{
  "transactions": [
    {
      "hash": "0xf378fbde4f2fba1b53400f90cd9ab66049938b6e104042fd0f0dbbd49a1d8d0d",
      "transactionType": "CREATE",
      "contractName": "PNFT",
      "contractAddress": "0x711a51532e2BE8c2D13F0aa704cfd593D7513304",
      "function": null,
      "arguments": [
        "Pulse Project",
        "PULSE"
      ],
      "transaction": {
        "type": "0x02",
        "from": "0x8c4c12e63fcd9a9930c7d305fc87193cf46b5832",
        "gas": "0x37fe54",
        "value": "0x0",
        "data": "0x636e616d6560e01b60e052600460c0527f2361458367e696363fbcc70777d07ebbd2394e89fd0adcaf147faccd1d294d6060809081526b195e1d195c9b985b17dd5c9b60a21b61010452600c60e4526101106040527f99fcff623ab6b042ddb1bcfaee6a59c6bc765b13d5b4add8cc44452a4951ae9b60a0526200008890600d90600262000266565b503480156200009657600080fd5b506040516200343d3803806200343d833981016040819052620000b99162000392565b81816000620000c983826200048b565b506001620000d882826200048b565b505050620000f5620000ef6200010b60201b60201c565b6200010f565b62000103306101f462000161565b505062000557565b3390565b600c80546001600160a01b038381166001600160a01b0319831681179093556040519116919082907f8be0079c531659141344cd1fd0a4f28419497f9722a3daafe3b4186f6b6457e090600090a35050565b6127106001600160601b0382161115620001d55760405162461bcd60e51b815260206004820152602a60248201527f455243323938313a20726f79616c7479206665652077696c6c206578636565646044820152692073616c65507269636560b01b60648201526084015b60405180910390fd5b6001600160a01b0382166200022d5760405162461bcd60e51b815260206004820152601960248201527f455243323938313a20696e76616c6964207265636569766572000000000000006044820152606401620001cc565b604080518082019091526001600160a01b039092168083526001600160601b039091166020909201829052600160a01b90910217600655565b828054828255906000526020600020908101928215620002a4579160200282015b82811115620002a457825182559160200191906001019062000287565b50620002b2929150620002b6565b5090565b5b80821115620002b25760008155600101620002b7565b634e487b7160e01b600052604160045260246000fd5b600082601f830112620002f557600080fd5b81516001600160401b0380821115620003125762000312620002cd565b604051601f8301601f19908116603f011681019082821181831017156200033d576200033d620002cd565b816040528381526020925086838588010111156200035a57600080fd5b600091505b838210156200037e57858201830151818301840152908201906200035f565b600093810190920192909252949350505050565b60008060408385031215620003a657600080fd5b82516001600160401b0380821115620003be57600080fd5b620003cc86838701620002e3565b93506020850151915080821115620003e357600080fd5b50620003f285828601620002e3565b9150509250929050565b600181811c908216806200041157607f821691505b6020821081036200043257634e487b7160e01b600052602260045260246000fd5b50919050565b601f8211156200048657600081815260208120601f850160051c81016020861015620004615750805b601f850160051c820191505b8181101562000482578281556001016200046d565b5050505b505050565b81516001600160401b03811115620004a757620004a7620002cd565b620004bf81620004b88454620003fc565b8462000438565b602080601f831160018114620004f75760008415620004de5750858301515b600019600386901b1c1916600185901b17855562000482565b600085815260208120601f198616915b82811015620005285788860151825594840194600190910190840162000507565b5085821015620005475787850151600019600388901b60f8161c191681555b5050505050600190811b01905550565b612ed680620005676000396000f3fe6080604052600436106101c25760003560e01c806359f9f50f116100f7578063b88d4fde11610095578063d0def52111610064578063d0def52114610513578063d6948b7514610526578063e985e9c514610546578063f2fde38b1461058f57600080fd5b8063b88d4fde14610493578063c7cd997f146104b3578063c87b56dd146104d3578063cb4799f2146104f357600080fd5b8063715018a6116100d1578063715018a61461042b5780638da5cb5b1461044057806395d89b411461045e578063a22cb4651461047357600080fd5b806359f9f50f146103cb5780636352211e146103eb57806370a082311461040b57600080fd5b806323b872dd116101645780633ccfd60b1161013e5780633ccfd60b146103565780633d7e3dc31461036b57806342842e0e1461038b5780634f6ccce7146103ab57600080fd5b806323b872dd146102d75780632a55205a146102f75780632f745c591461033657600080fd5b8063095ea7b3116101a0578063095ea7b3146102565780631425d6251461027857806314fccfa01461029857806318160ddd146102b857600080fd5b806301ffc9a7146101c757806306fdde03146101fc578063081812fc1461021e575b600080fd5b3480156101d357600080fd5b506101e76101e23660046123d7565b6105af565b60405190151581526020015b60405180910390f35b34801561020857600080fd5b506102116105c0565b6040516101f39190612444565b34801561022a57600080fd5b5061023e610239366004612457565b610652565b6040516001600160a01b0390911681526020016101f3565b34801561026257600080fd5b5061027661027136600461248c565b610679565b005b34801561028457600080fd5b50610276610293366004612562565b610793565b3480156102a457600080fd5b506102766102b3366004612562565b610806565b3480156102c457600080fd5b50600a545b6040519081526020016101f3565b3480156102e357600080fd5b506102766102f2366004612597565b61086e565b34801561030357600080fd5b506103176103123660046125d3565b61089f565b604080516001600160a01b0390931683526020830191909152016101f3565b34801561034257600080fd5b506102c961035136600461248c565b61094d565b34801561036257600080fd5b506102766109e3565b34801561037757600080fd5b506102c9610386366004612457565b610a27565b34801561039757600080fd5b506102766103a6366004612597565b610a48565b3480156103b757600080fd5b506102c96103c6366004612457565b610a63565b3480156103d757600080fd5b506102766103e6366004612637565b610af6565b3480156103f757600080fd5b5061023e610406366004612457565b610ef1565b34801561041757600080fd5b506102c96104263660046126b1565b610f51565b34801561043757600080fd5b50610276610fd7565b34801561044c57600080fd5b50600c546001600160a01b031661023e565b34801561046a57600080fd5b50610211610feb565b34801561047f57600080fd5b5061027661048e3660046126cc565b610ffa565b34801561049f57600080fd5b506102766104ae366004612708565b611009565b3480156104bf57600080fd5b506102766104ce366004612457565b611041565b3480156104df57600080fd5b506102116104ee366004612457565b61104e565b3480156104ff57600080fd5b5061021161050e366004612784565b611232565b6102766105213660046127d0565b6113ca565b34801561053257600080fd5b5061027661054136600461281e565b6115ab565b34801561055257600080fd5b506101e7610561366004612847565b6001600160a01b03918216600090815260056020908152604080832093909416825291909152205460ff1690565b34801561059b57600080fd5b506102766105aa3660046126b1565b6115bd565b60006105ba82611633565b92915050565b6060600080546105cf9061287a565b80601f01602080910402602001604051908101604052809291908181526020018280546105fb9061287a565b80156106485780601f1061061d57610100808354040283529160200191610648565b820191906000526020600020905b81548152906001019060200180831161062b57829003601f168201915b5050505050905090565b600061065d82611658565b506000908152600460205260409020546001600160a01b031690565b600061068482610ef1565b9050806001600160a01b0316836001600160a01b0316036106f65760405162461bcd60e51b815260206004820152602160248201527f4552433732313a20617070726f76616c20746f2063757272656e74206f776e656044820152603960f91b60648201526084015b60405180910390fd5b336001600160a01b038216148061071257506107128133610561565b6107845760405162461bcd60e51b815260206004820152603d60248201527f4552433732313a20617070726f76652063616c6c6572206973206e6f7420746f60448201527f6b656e206f776e6572206f7220617070726f76656420666f7220616c6c00000060648201526084016106ed565b61078e83836116b7565b505050565b61079b611725565b60016010826040516107ad91906128b4565b908152604051908190036020018120805492151560ff19909316929092179091557f90a456c57871417b2930ed93a1cd64ff03a49414a743796acdfd7912a869889f906107fb908390612444565b60405180910390a150565b61080e611725565b600060108260405161082091906128b4565b908152604051908190036020018120805492151560ff19909316929092179091557f4fe9ac3bc65e2cae61f14d89132a5d199f148eca24f6ff2eed430b50683be1b4906107fb908390612444565b610878338261177f565b6108945760405162461bcd60e51b81526004016106ed906128d0565b61078e8383836117fe565b60008281526007602090815260408083208151808301909252546001600160a01b038116808352600160a01b9091046001600160601b03169282019290925282916109145750604080518082019091526006546001600160a01b0381168252600160a01b90046001600160601b031660208201525b602081015160009061271090610933906001600160601b031687612933565b61093d919061294a565b91519350909150505b9250929050565b600061095883610f51565b82106109ba5760405162461bcd60e51b815260206004820152602b60248201527f455243373231456e756d657261626c653a206f776e657220696e646578206f7560448201526a74206f6620626f756e647360a81b60648201526084016106ed565b506001600160a01b03919091166000908152600860209081526040808320938352929052205490565b6109eb611725565b600c546040516001600160a01b03909116904780156108fc02916000818181858888f19350505050158015610a24573d6000803e3d6000fd5b50565b600d8181548110610a3757600080fd5b600091825260209091200154905081565b61078e83838360405180602001604052806000815250611009565b6000610a6e600a5490565b8210610ad15760405162461bcd60e51b815260206004820152602c60248201527f455243373231456e756d657261626c653a20676c6f62616c20696e646578206f60448201526b7574206f6620626f756e647360a01b60648201526084016106ed565b600a8281548110610ae457610ae461296c565b90600052602060002001549050919050565b610b3584848080601f01602080910402602001604051908101604052809392919081815260200183838082843760009201919091525061196f92505050565b15610bae57600c546001600160a01b03163314610ba95760405162461bcd60e51b815260206004820152602c60248201527f4f6e6c7920636f6e7472616374206f776e65722063616e206d6f64696679207460448201526b686973206d6574616461746160a01b60648201526084016106ed565b610c04565b610bb8338661177f565b610c045760405162461bcd60e51b815260206004820181905260248201527f43616c6c6572206973206e6f74206f776e6572206e6f7220617070726f76656460448201526064016106ed565b6040805160208082018352600080835292518391610c26918991899101612982565b60405160208183030381529060405280519060200120905060005b6000898152600f6020526040902054811015610dd2576000898152600f60205260409020805483919083908110610c7a57610c7a61296c565b9060005260206000209060020201600001604051602001610c9b9190612a05565b6040516020818303038152906040528051906020012003610dc0576000898152600f60205260409020805482908110610cd657610cd661296c565b90600052602060002090600202016001018054610cf29061287a565b80601f0160208091040260200160405190810160405280929190818152602001828054610d1e9061287a565b8015610d6b5780601f10610d4057610100808354040283529160200191610d6b565b820191906000526020600020905b815481529060010190602001808311610d4e57829003601f168201915b505050505092508585600f60008c81526020019081526020016000208381548110610d9857610d9861296c565b90600052602060002090600202016001019182610db6929190612a5f565b5060019350610dd2565b80610dca81612b1f565b915050610c41565b5082610ea757600f6000898152602001908152602001600020604051806040016040528089898080601f016020809104026020016040519081016040528093929190818152602001838380828437600092019190915250505090825250604080516020601f8a01819004810282018101909252888152918101919089908990819084018382808284376000920182905250939094525050835460018101855593815260209020825192936002020191829150610e8e9082612b38565b5060208201516001820190610ea39082612b38565b5050505b877fce244affe047c96a0ad176b7e35e054912ccf455964e9b602475cae89a53d6f08888858989604051610edf959493929190612c21565b60405180910390a25050505050505050565b6000818152600260205260408120546001600160a01b0316806105ba5760405162461bcd60e51b8152602060048201526018602482015277115490cdcc8c4e881a5b9d985b1a59081d1bdad95b88125160421b60448201526064016106ed565b60006001600160a01b038216610fbb5760405162461bcd60e51b815260206004820152602960248201527f4552433732313a2061646472657373207a65726f206973206e6f7420612076616044820152683634b21037bbb732b960b91b60648201526084016106ed565b506001600160a01b031660009081526003602052604090205490565b610fdf611725565b610fe960006119f2565b565b6060600180546105cf9061287a565b611005338383611a44565b5050565b611013338361177f565b61102f5760405162461bcd60e51b81526004016106ed906128d0565b61103b84848484611b12565b50505050565b611049611725565b601155565b6000818152600260205260409020546060906001600160a01b03166110cd5760405162461bcd60e51b815260206004820152602f60248201527f4552433732314d657461646174613a2055524920717565727920666f72206e6f60448201526e3732bc34b9ba32b73a103a37b5b2b760891b60648201526084016106ed565b6040805180820190915260018152607b60f81b602082015260005b6000848152600f60205260409020548110156111df57818160000361112657604051806040016040528060018152602001601160f91b815250611142565b60405180604001604052806002815260200161161160f11b8152505b6000868152600f602052604090208054849081106111625761116261296c565b9060005260206000209060020201600001600f600088815260200190815260200160002084815481106111975761119761296c565b90600052602060002090600202016001016040516020016111bb9493929190612c68565b604051602081830303815290604052915080806111d790612b1f565b9150506110e8565b50806040516020016111f19190612cc9565b604051602081830303815290604052905061120b81611b45565b60405160200161121b9190612cee565b604051602081830303815290604052915050919050565b606060008383604051602001611249929190612982565b60405160208183030381529060405280519060200120905060005b6000868152600f60205260409020548110156113ae576000868152600f6020526040902080548391908390811061129d5761129d61296c565b90600052602060002090600202016000016040516020016112be9190612a05565b604051602081830303815290604052805190602001200361139c576000868152600f602052604090208054829081106112f9576112f961296c565b906000526020600020906002020160010180546113159061287a565b80601f01602080910402602001604051908101604052809291908181526020018280546113419061287a565b801561138e5780601f106113635761010080835404028352916020019161138e565b820191906000526020600020905b81548152906001019060200180831161137157829003601f168201915b5050505050925050506113c3565b806113a681612b1f565b915050611264565b50604051806020016040528060008152509150505b9392505050565b6010816040516113da91906128b4565b9081526040519081900360200190205460ff166114395760405162461bcd60e51b815260206004820152601c60248201527f50726f7669646564206e616d65206973206e6f7420616c6c6f7765640000000060448201526064016106ed565b60115434101561149d5760405162461bcd60e51b815260206004820152602960248201527f496e73756666696369656e74206574682070726f766964656420666f72206d696044820152686e74696e672066656560b81b60648201526084016106ed565b60006010826040516114af91906128b4565b908152604051908190036020019020805491151560ff19909216919091179055600e8054600091826114e083612b1f565b909155506000818152600f6020908152604080832081516080810183526004928101928352636e616d6560e01b60608201529182528183018790528054600181018255908452919092208251939450919260029091029091019081906115469082612b38565b506020820151600182019061155b9082612b38565b5050506115688382611c98565b8160405161157691906128b4565b604051908190038120907f845020906442ad0651b44a75d9767153912bfa586416784cf8ead41b37b1dbf590600090a2505050565b6115b3611725565b610a243082611cb2565b6115c5611725565b6001600160a01b03811661162a5760405162461bcd60e51b815260206004820152602660248201527f4f776e61626c653a206e6577206f776e657220697320746865207a65726f206160448201526564647265737360d01b60648201526084016106ed565b610a24816119f2565b60006001600160e01b0319821663780e9d6360e01b14806105ba57506105ba82611daf565b6000818152600260205260409020546001600160a01b0316610a245760405162461bcd60e51b8152602060048201526018602482015277115490cdcc8c4e881a5b9d985b1a59081d1bdad95b88125160421b60448201526064016106ed565b600081815260046020526040902080546001600160a01b0319166001600160a01b03841690811790915581906116ec82610ef1565b6001600160a01b03167f8c5be1e5ebec7d5bd14f71427d1e84f3dd0314c0f7b2291e5b200ac8c7c3b92560405160405180910390a45050565b600c546001600160a01b03163314610fe95760405162461bcd60e51b815260206004820181905260248201527f4f776e61626c653a2063616c6c6572206973206e6f7420746865206f776e657260448201526064016106ed565b60008061178b83610ef1565b9050806001600160a01b0316846001600160a01b031614806117d257506001600160a01b0380821660009081526005602090815260408083209388168352929052205460ff165b806117f65750836001600160a01b03166117eb84610652565b6001600160a01b0316145b949350505050565b826001600160a01b031661181182610ef1565b6001600160a01b0316146118375760405162461bcd60e51b81526004016106ed90612d33565b6001600160a01b0382166118995760405162461bcd60e51b8152602060048201526024808201527f4552433732313a207472616e7366657220746f20746865207a65726f206164646044820152637265737360e01b60648201526084016106ed565b6118a68383836001611dd4565b826001600160a01b03166118b982610ef1565b6001600160a01b0316146118df5760405162461bcd60e51b81526004016106ed90612d33565b600081815260046020908152604080832080546001600160a01b03199081169091556001600160a01b0387811680865260038552838620805460001901905590871680865283862080546001019055868652600290945282852080549092168417909155905184937fddf252ad1be2c89b69c2b068fc378daa952ba7f163c4a11628f55a4df523b3ef91a4505050565b6000808260405160200161198391906128b4565b60405160208183030381529060405280519060200120905060005b600d548110156119e85781600d82815481106119bc576119bc61296c565b9060005260206000200154036119d6575060019392505050565b806119e081612b1f565b91505061199e565b5060009392505050565b600c80546001600160a01b038381166001600160a01b0319831681179093556040519116919082907f8be0079c531659141344cd1fd0a4f28419497f9722a3daafe3b4186f6b6457e090600090a35050565b816001600160a01b0316836001600160a01b031603611aa55760405162461bcd60e51b815260206004820152601960248201527f4552433732313a20617070726f766520746f2063616c6c65720000000000000060448201526064016106ed565b6001600160a01b03838116600081815260056020908152604080832094871680845294825291829020805460ff191686151590811790915591519182527f17307eab39ab6107e8899845ad3d59bd9653f200f220920489ca2b5937696c31910160405180910390a3505050565b611b1d8484846117fe565b611b2984848484611de0565b61103b5760405162461bcd60e51b81526004016106ed90612d78565b60608151600003611b6457505060408051602081019091526000815290565b6000604051806060016040528060408152602001612e616040913990506000600384516002611b939190612dca565b611b9d919061294a565b611ba8906004612933565b67ffffffffffffffff811115611bc057611bc06124b6565b6040519080825280601f01601f191660200182016040528015611bea576020820181803683370190505b509050600182016020820185865187015b80821015611c56576003820191508151603f8160121c168501518453600184019350603f81600c1c168501518453600184019350603f8160061c168501518453600184019350603f8116850151845350600183019250611bfb565b5050600386510660018114611c725760028114611c8557611c8d565b603d6001830353603d6002830353611c8d565b603d60018303535b509195945050505050565b611005828260405180602001604052806000815250611ee1565b6127106001600160601b0382161115611d205760405162461bcd60e51b815260206004820152602a60248201527f455243323938313a20726f79616c7479206665652077696c6c206578636565646044820152692073616c65507269636560b01b60648201526084016106ed565b6001600160a01b038216611d765760405162461bcd60e51b815260206004820152601960248201527f455243323938313a20696e76616c69642072656365697665720000000000000060448201526064016106ed565b604080518082019091526001600160a01b039092168083526001600160601b039091166020909201829052600160a01b90910217600655565b60006001600160e01b0319821663152a902d60e11b14806105ba57506105ba82611f14565b61103b84848484611f64565b60006001600160a01b0384163b15611ed657604051630a85bd0160e11b81526001600160a01b0385169063150b7a0290611e24903390899088908890600401612ddd565b6020604051808303816000875af1925050508015611e5f575060408051601f3d908101601f19168201909252611e5c91810190612e1a565b60015b611ebc573d808015611e8d576040519150601f19603f3d011682016040523d82523d6000602084013e611e92565b606091505b508051600003611eb45760405162461bcd60e51b81526004016106ed90612d78565b805181602001fd5b6001600160e01b031916630a85bd0160e11b1490506117f6565b506001949350505050565b611eeb8383612098565b611ef86000848484611de0565b61078e5760405162461bcd60e51b81526004016106ed90612d78565b60006001600160e01b031982166380ac58cd60e01b1480611f4557506001600160e01b03198216635b5e139f60e01b145b806105ba57506301ffc9a760e01b6001600160e01b03198316146105ba565b6001811115611fd35760405162461bcd60e51b815260206004820152603560248201527f455243373231456e756d657261626c653a20636f6e7365637574697665207472604482015274185b9cd9995c9cc81b9bdd081cdd5c1c1bdc9d1959605a1b60648201526084016106ed565b816001600160a01b03851661202f5761202a81600a80546000838152600b60205260408120829055600182018355919091527fc65a7bb8d6351c1cf70c95a316cc6a92839c986682d98bc35f958f4883f9d2a80155565b612052565b836001600160a01b0316856001600160a01b031614612052576120528582612231565b6001600160a01b03841661206e57612069816122ce565b612091565b846001600160a01b0316846001600160a01b03161461209157612091848261237d565b5050505050565b6001600160a01b0382166120ee5760405162461bcd60e51b815260206004820181905260248201527f4552433732313a206d696e7420746f20746865207a65726f206164647265737360448201526064016106ed565b6000818152600260205260409020546001600160a01b0316156121535760405162461bcd60e51b815260206004820152601c60248201527f4552433732313a20746f6b656e20616c7265616479206d696e7465640000000060448201526064016106ed565b612161600083836001611dd4565b6000818152600260205260409020546001600160a01b0316156121c65760405162461bcd60e51b815260206004820152601c60248201527f4552433732313a20746f6b656e20616c7265616479206d696e7465640000000060448201526064016106ed565b6001600160a01b038216600081815260036020908152604080832080546001019055848352600290915280822080546001600160a01b0319168417905551839291907fddf252ad1be2c89b69c2b068fc378daa952ba7f163c4a11628f55a4df523b3ef908290a45050565b6000600161223e84610f51565b6122489190612e37565b60008381526009602052604090205490915080821461229b576001600160a01b03841660009081526008602090815260408083208584528252808320548484528184208190558352600990915290208190555b5060009182526009602090815260408084208490556001600160a01b039094168352600881528383209183525290812055565b600a546000906122e090600190612e37565b6000838152600b6020526040812054600a80549394509092849081106123085761230861296c565b9060005260206000200154905080600a83815481106123295761232961296c565b6000918252602080832090910192909255828152600b9091526040808220849055858252812055600a80548061236157612361612e4a565b6001900381819060005260206000200160009055905550505050565b600061238883610f51565b6001600160a01b039093166000908152600860209081526040808320868452825280832085905593825260099052919091209190915550565b6001600160e01b031981168114610a2457600080fd5b6000602082840312156123e957600080fd5b81356113c3816123c1565b60005b8381101561240f5781810151838201526020016123f7565b50506000910152565b600081518084526124308160208601602086016123f4565b601f01601f19169290920160200192915050565b6020815260006113c36020830184612418565b60006020828403121561246957600080fd5b5035919050565b80356001600160a01b038116811461248757600080fd5b919050565b6000806040838503121561249f57600080fd5b6124a883612470565b946020939093013593505050565b634e487b7160e01b600052604160045260246000fd5b600067ffffffffffffffff808411156124e7576124e76124b6565b604051601f8501601f19908116603f0116810190828211818310171561250f5761250f6124b6565b8160405280935085815286868601111561252857600080fd5b858560208301376000602087830101525050509392505050565b600082601f83011261255357600080fd5b6113c3838335602085016124cc565b60006020828403121561257457600080fd5b813567ffffffffffffffff81111561258b57600080fd5b6117f684828501612542565b6000806000606084860312156125ac57600080fd5b6125b584612470565b92506125c360208501612470565b9150604084013590509250925092565b600080604083850312156125e657600080fd5b50508035926020909101359150565b60008083601f84011261260757600080fd5b50813567ffffffffffffffff81111561261f57600080fd5b60208301915083602082850101111561094657600080fd5b60008060008060006060868803121561264f57600080fd5b85359450602086013567ffffffffffffffff8082111561266e57600080fd5b61267a89838a016125f5565b9096509450604088013591508082111561269357600080fd5b506126a0888289016125f5565b969995985093965092949392505050565b6000602082840312156126c357600080fd5b6113c382612470565b600080604083850312156126df57600080fd5b6126e883612470565b9150602083013580151581146126fd57600080fd5b809150509250929050565b6000806000806080858703121561271e57600080fd5b61272785612470565b935061273560208601612470565b925060408501359150606085013567ffffffffffffffff81111561275857600080fd5b8501601f8101871361276957600080fd5b612778878235602084016124cc565b91505092959194509250565b60008060006040848603121561279957600080fd5b83359250602084013567ffffffffffffffff8111156127b757600080fd5b6127c3868287016125f5565b9497909650939450505050565b600080604083850312156127e357600080fd5b6127ec83612470565b9150602083013567ffffffffffffffff81111561280857600080fd5b61281485828601612542565b9150509250929050565b60006020828403121561283057600080fd5b81356001600160601b03811681146113c357600080fd5b6000806040838503121561285a57600080fd5b61286383612470565b915061287160208401612470565b90509250929050565b600181811c9082168061288e57607f821691505b6020821081036128ae57634e487b7160e01b600052602260045260246000fd5b50919050565b600082516128c68184602087016123f4565b9190910192915050565b6020808252602d908201527f4552433732313a2063616c6c6572206973206e6f7420746f6b656e206f776e6560408201526c1c881bdc88185c1c1c9bdd9959609a1b606082015260800190565b634e487b7160e01b600052601160045260246000fd5b80820281158282048414176105ba576105ba61291d565b60008261296757634e487b7160e01b600052601260045260246000fd5b500490565b634e487b7160e01b600052603260045260246000fd5b8183823760009101908152919050565b6000815461299f8161287a565b600182811680156129b757600181146129cc576129fb565b60ff19841687528215158302870194506129fb565b8560005260208060002060005b858110156129f25781548a8201529084019082016129d9565b50505082870194505b5050505092915050565b60006113c38284612992565b601f82111561078e57600081815260208120601f850160051c81016020861015612a385750805b601f850160051c820191505b81811015612a5757828155600101612a44565b505050505050565b67ffffffffffffffff831115612a7757612a776124b6565b612a8b83612a85835461287a565b83612a11565b6000601f841160018114612abf5760008515612aa75750838201355b600019600387901b1c1916600186901b178355612091565b600083815260209020601f19861690835b82811015612af05786850135825560209485019460019092019101612ad0565b5086821015612b0d5760001960f88860031b161c19848701351681555b505060018560011b0183555050505050565b600060018201612b3157612b3161291d565b5060010190565b815167ffffffffffffffff811115612b5257612b526124b6565b612b6681612b60845461287a565b84612a11565b602080601f831160018114612b9b5760008415612b835750858301515b600019600386901b1c1916600185901b178555612a57565b600085815260208120601f198616915b82811015612bca57888601518255948401946001909101908401612bab565b5085821015612be85787850151600019600388901b60f8161c191681555b5050505050600190811b01905550565b81835281816020850137506000828201602090810191909152601f909101601f19169091010190565b606081526000612c35606083018789612bf8565b8281036020840152612c478187612418565b90508281036040840152612c5c818587612bf8565b98975050505050505050565b60008551612c7a818460208a016123f4565b855190830190612c8e818360208a016123f4565b612c9a81830187612992565b62111d1160e91b81529150612cb490506003820185612992565b601160f91b8152600101979650505050505050565b60008251612cdb8184602087016123f4565b607d60f81b920191825250600101919050565b7f646174613a6170706c69636174696f6e2f6a736f6e3b6261736536342c000000815260008251612d2681601d8501602087016123f4565b91909101601d0192915050565b60208082526025908201527f4552433732313a207472616e736665722066726f6d20696e636f72726563742060408201526437bbb732b960d91b606082015260800190565b60208082526032908201527f4552433732313a207472616e7366657220746f206e6f6e20455243373231526560408201527131b2b4bb32b91034b6b83632b6b2b73a32b960711b606082015260800190565b808201808211156105ba576105ba61291d565b6001600160a01b0385811682528416602082015260408101839052608060608201819052600090612e1090830184612418565b9695505050505050565b600060208284031215612e2c57600080fd5b81516113c3816123c1565b818103818111156105ba576105ba61291d565b634e487b7160e01b600052603160045260246000fdfe4142434445464748494a4b4c4d4e4f505152535455565758595a6162636465666768696a6b6c6d6e6f707172737475767778797a303132333435363738392b2fa26469706673582212200718224fcdfd201d2d04a95d5e37196f969e4a430cc2a138b06476b405e3f29764736f6c6343000814003300000000000000000000000000000000000000000000000000000000000000400000000000000000000000000000000000000000000000000000000000000080000000000000000000000000000000000000000000000000000000000000000d50756c73652050726f6a65637400000000000000000000000000000000000000000000000000000000000000000000000000000000000000000000000000000550554c5345000000000000000000000000000000000000000000000000000000",
        "nonce": "0x253",
        "accessList": []
      },
      "additionalContracts": [],
      "isFixedGasLimit": false
    },
    {
      "hash": "0xbd69fc6fcf172018325c7c5f899425784616fdec36d16f9318d107fe27426048",
      "transactionType": "CALL",
      "contractName": "PNFT",
      "contractAddress": "0x711a51532e2BE8c2D13F0aa704cfd593D7513304",
      "function": "allowName(string)",
      "arguments": [
        "Garry Gensley"
      ],
      "transaction": {
        "type": "0x02",
        "from": "0x8c4c12e63fcd9a9930c7d305fc87193cf46b5832",
        "to": "0x711a51532e2be8c2d13f0aa704cfd593d7513304",
        "gas": "0x1074d",
        "value": "0x0",
        "data": "0x1425d6250000000000000000000000000000000000000000000000000000000000000020000000000000000000000000000000000000000000000000000000000000000d47617272792047656e736c657900000000000000000000000000000000000000",
        "nonce": "0x254",
        "accessList": []
      },
      "additionalContracts": [],
      "isFixedGasLimit": false
    },
    {
      "hash": "0xea2f8fd7c093ba39ca66c696ff4e3c6ce5fb5bbbafbb1a66cd32b730ffce004e",
      "transactionType": "CALL",
      "contractName": "PNFT",
      "contractAddress": "0x711a51532e2BE8c2D13F0aa704cfd593D7513304",
      "function": "mint(address,string)",
      "arguments": [
        "0x8c4c12E63FCd9A9930C7d305Fc87193cF46B5832",
        "Garry Gensley"
      ],
      "transaction": {
        "type": "0x02",
        "from": "0x8c4c12e63fcd9a9930c7d305fc87193cf46b5832",
        "to": "0x711a51532e2be8c2d13f0aa704cfd593d7513304",
        "gas": "0x42063",
        "value": "0x0",
        "data": "0xd0def5210000000000000000000000008c4c12e63fcd9a9930c7d305fc87193cf46b58320000000000000000000000000000000000000000000000000000000000000040000000000000000000000000000000000000000000000000000000000000000d47617272792047656e736c657900000000000000000000000000000000000000",
        "nonce": "0x255",
        "accessList": []
      },
      "additionalContracts": [],
      "isFixedGasLimit": false
    },
    {
      "hash": "0x20869a9d54f03c887d59dc8c893c64e2216fbdbcafffa655033393ff6bff00fe",
      "transactionType": "CALL",
      "contractName": "PNFT",
      "contractAddress": "0x711a51532e2BE8c2D13F0aa704cfd593D7513304",
      "function": "setMetadata(uint256,string,string)",
      "arguments": [
        "0",
        "image",
        "ipfs://QmbGijv3sD95vKPFGAL8nAeo7qB1zSetP2zRfYsTWBYCiG"
      ],
      "transaction": {
        "type": "0x02",
        "from": "0x8c4c12e63fcd9a9930c7d305fc87193cf46b5832",
        "to": "0x711a51532e2be8c2d13f0aa704cfd593d7513304",
        "gas": "0x30a60",
        "value": "0x0",
        "data": "0x59f9f50f0000000000000000000000000000000000000000000000000000000000000000000000000000000000000000000000000000000000000000000000000000006000000000000000000000000000000000000000000000000000000000000000a00000000000000000000000000000000000000000000000000000000000000005696d6167650000000000000000000000000000000000000000000000000000000000000000000000000000000000000000000000000000000000000000000035697066733a2f2f516d6247696a763373443935764b504647414c386e41656f377142317a53657450327a52665973545742594369470000000000000000000000",
        "nonce": "0x256",
        "accessList": []
      },
      "additionalContracts": [],
      "isFixedGasLimit": false
    },
    {
      "hash": "0xc1ca85768d2f717b05b5b5b1c81982ec703cd6b30203b68a93531f70428fe1c3",
      "transactionType": "CALL",
      "contractName": "PNFT",
      "contractAddress": "0x711a51532e2BE8c2D13F0aa704cfd593D7513304",
      "function": "setMetadata(uint256,string,string)",
      "arguments": [
        "0",
        "image0",
        "ipfs://QmbGijv3sD95vKPFGAL8nAeo7qB1zSetP2zRfYsTWBYCiG"
      ],
      "transaction": {
        "type": "0x02",
        "from": "0x8c4c12e63fcd9a9930c7d305fc87193cf46b5832",
        "to": "0x711a51532e2be8c2d13f0aa704cfd593d7513304",
        "gas": "0x2efd1",
        "value": "0x0",
        "data": "0x59f9f50f0000000000000000000000000000000000000000000000000000000000000000000000000000000000000000000000000000000000000000000000000000006000000000000000000000000000000000000000000000000000000000000000a00000000000000000000000000000000000000000000000000000000000000006696d6167653000000000000000000000000000000000000000000000000000000000000000000000000000000000000000000000000000000000000000000035697066733a2f2f516d6247696a763373443935764b504647414c386e41656f377142317a53657450327a52665973545742594369470000000000000000000000",
        "nonce": "0x257",
        "accessList": []
      },
      "additionalContracts": [],
      "isFixedGasLimit": false
    },
    {
      "hash": "0xc921024bac6d008e3df49afcae67289a45a6bd419af34860769cba953affd6c9",
      "transactionType": "CALL",
      "contractName": "PNFT",
      "contractAddress": "0x711a51532e2BE8c2D13F0aa704cfd593D7513304",
      "function": "setMetadata(uint256,string,string)",
      "arguments": [
        "0",
        "image1",
        "ipfs://QmSJDWRHabF9SdaSksXSSZL1g3N67q1sRestcVjCkvkNvP"
      ],
      "transaction": {
        "type": "0x02",
        "from": "0x8c4c12e63fcd9a9930c7d305fc87193cf46b5832",
        "to": "0x711a51532e2be8c2d13f0aa704cfd593d7513304",
        "gas": "0x30071",
        "value": "0x0",
        "data": "0x59f9f50f0000000000000000000000000000000000000000000000000000000000000000000000000000000000000000000000000000000000000000000000000000006000000000000000000000000000000000000000000000000000000000000000a00000000000000000000000000000000000000000000000000000000000000006696d6167653100000000000000000000000000000000000000000000000000000000000000000000000000000000000000000000000000000000000000000035697066733a2f2f516d534a4457524861624639536461536b735853535a4c3167334e36377131735265737463566a436b766b4e76500000000000000000000000",
        "nonce": "0x258",
        "accessList": []
      },
      "additionalContracts": [],
      "isFixedGasLimit": false
    },
    {
      "hash": "0x045de54061ddee48abba0bb044a8ed928755d93289163d1b6d8c6e99c32755f7",
      "transactionType": "CALL",
      "contractName": "PNFT",
      "contractAddress": "0x711a51532e2BE8c2D13F0aa704cfd593D7513304",
      "function": "setMetadata(uint256,string,string)",
      "arguments": [
        "0",
        "image2",
        "ipfs://QmNtrp9PAwt8XPcbWzyB73XqU7xdQMoaA3ztaFwCSmktxV"
      ],
      "transaction": {
        "type": "0x02",
        "from": "0x8c4c12e63fcd9a9930c7d305fc87193cf46b5832",
        "to": "0x711a51532e2be8c2d13f0aa704cfd593d7513304",
        "gas": "0x31111",
        "value": "0x0",
        "data": "0x59f9f50f0000000000000000000000000000000000000000000000000000000000000000000000000000000000000000000000000000000000000000000000000000006000000000000000000000000000000000000000000000000000000000000000a00000000000000000000000000000000000000000000000000000000000000006696d6167653200000000000000000000000000000000000000000000000000000000000000000000000000000000000000000000000000000000000000000035697066733a2f2f516d4e74727039504177743858506362577a79423733587155377864514d6f6141337a7461467743536d6b7478560000000000000000000000",
        "nonce": "0x259",
        "accessList": []
      },
      "additionalContracts": [],
      "isFixedGasLimit": false
    },
    {
      "hash": "0x951735783aa44163ac1d0fcf6cbd26a40ed0be883c066ed3523153c76b5e98fd",
      "transactionType": "CALL",
      "contractName": "PNFT",
      "contractAddress": "0x711a51532e2BE8c2D13F0aa704cfd593D7513304",
      "function": "setMetadata(uint256,string,string)",
      "arguments": [
        "0",
        "image3",
        "ipfs://QmXRFLcbobG1xqfkzmHyQvEHn96U4pprMBiGhDdgTqusNR"
      ],
      "transaction": {
        "type": "0x02",
        "from": "0x8c4c12e63fcd9a9930c7d305fc87193cf46b5832",
        "to": "0x711a51532e2be8c2d13f0aa704cfd593d7513304",
        "gas": "0x350da",
        "value": "0x0",
        "data": "0x59f9f50f0000000000000000000000000000000000000000000000000000000000000000000000000000000000000000000000000000000000000000000000000000006000000000000000000000000000000000000000000000000000000000000000a00000000000000000000000000000000000000000000000000000000000000006696d6167653300000000000000000000000000000000000000000000000000000000000000000000000000000000000000000000000000000000000000000035697066733a2f2f516d5852464c63626f6247317871666b7a6d4879517645486e393655347070724d42694768446467547175734e520000000000000000000000",
        "nonce": "0x25a",
        "accessList": []
      },
      "additionalContracts": [],
      "isFixedGasLimit": false
    },
    {
      "hash": "0xcd3b690f71ab1e597da0111cbe72a19a4bb8261d6be5f47b158119f401487bc9",
      "transactionType": "CALL",
      "contractName": "PNFT",
      "contractAddress": "0x711a51532e2BE8c2D13F0aa704cfd593D7513304",
      "function": "setMetadata(uint256,string,string)",
      "arguments": [
        "0",
        "image4",
        "ipfs://QmdbTuTBcibkCLn7STfFqXRC97Mtj6AWxeunxFG2nEd2pT"
      ],
      "transaction": {
        "type": "0x02",
        "from": "0x8c4c12e63fcd9a9930c7d305fc87193cf46b5832",
        "to": "0x711a51532e2be8c2d13f0aa704cfd593d7513304",
        "gas": "0x33255",
        "value": "0x0",
        "data": "0x59f9f50f0000000000000000000000000000000000000000000000000000000000000000000000000000000000000000000000000000000000000000000000000000006000000000000000000000000000000000000000000000000000000000000000a00000000000000000000000000000000000000000000000000000000000000006696d6167653400000000000000000000000000000000000000000000000000000000000000000000000000000000000000000000000000000000000000000035697066733a2f2f516d6462547554426369626b434c6e37535466467158524339374d746a3641577865756e784647326e45643270540000000000000000000000",
        "nonce": "0x25b",
        "accessList": []
      },
      "additionalContracts": [],
      "isFixedGasLimit": false
    },
    {
      "hash": "0x499f685fda122b2ce366f7424a21c887934e70b0bdcf2acf084844c5535557b7",
      "transactionType": "CALL",
      "contractName": "PNFT",
      "contractAddress": "0x711a51532e2BE8c2D13F0aa704cfd593D7513304",
      "function": "setMetadata(uint256,string,string)",
      "arguments": [
        "0",
        "image5",
        "ipfs://QmVsy9SU9C8imeDpF2vp7HaySYEMiZzvknZeP4Ja6oVFTr"
      ],
      "transaction": {
        "type": "0x02",
        "from": "0x8c4c12e63fcd9a9930c7d305fc87193cf46b5832",
        "to": "0x711a51532e2be8c2d13f0aa704cfd593d7513304",
        "gas": "0x342f4",
        "value": "0x0",
        "data": "0x59f9f50f0000000000000000000000000000000000000000000000000000000000000000000000000000000000000000000000000000000000000000000000000000006000000000000000000000000000000000000000000000000000000000000000a00000000000000000000000000000000000000000000000000000000000000006696d6167653500000000000000000000000000000000000000000000000000000000000000000000000000000000000000000000000000000000000000000035697066733a2f2f516d567379395355394338696d65447046327670374861795359454d695a7a766b6e5a6550344a61366f564654720000000000000000000000",
        "nonce": "0x25c",
        "accessList": []
      },
      "additionalContracts": [],
      "isFixedGasLimit": false
    },
    {
      "hash": "0xaf259170912445c924acf5494bfb9ba61994b3e95189a912c3b402116282ae96",
      "transactionType": "CALL",
      "contractName": "PNFT",
      "contractAddress": "0x711a51532e2BE8c2D13F0aa704cfd593D7513304",
      "function": "setMetadata(uint256,string,string)",
      "arguments": [
        "0",
        "image6",
        "ipfs://QmVJrUZ7bWVpkZYvNWQvNJUXPtnDioHRHuXHHLoRrr8ag4"
      ],
      "transaction": {
        "type": "0x02",
        "from": "0x8c4c12e63fcd9a9930c7d305fc87193cf46b5832",
        "to": "0x711a51532e2be8c2d13f0aa704cfd593d7513304",
        "gas": "0x35394",
        "value": "0x0",
        "data": "0x59f9f50f0000000000000000000000000000000000000000000000000000000000000000000000000000000000000000000000000000000000000000000000000000006000000000000000000000000000000000000000000000000000000000000000a00000000000000000000000000000000000000000000000000000000000000006696d6167653600000000000000000000000000000000000000000000000000000000000000000000000000000000000000000000000000000000000000000035697066733a2f2f516d564a72555a37625756706b5a59764e5751764e4a555850746e44696f485248755848484c6f527272386167340000000000000000000000",
        "nonce": "0x25d",
        "accessList": []
      },
      "additionalContracts": [],
      "isFixedGasLimit": false
    },
    {
      "hash": "0xdbb4ca5afb005ac1f116e1cfd1465b5c39e3d42f2714479090ca836c96cdd947",
      "transactionType": "CALL",
      "contractName": "PNFT",
      "contractAddress": "0x711a51532e2BE8c2D13F0aa704cfd593D7513304",
      "function": "setMetadata(uint256,string,string)",
      "arguments": [
        "0",
        "image7",
        "ipfs://QmRBHBaqYURE2Z2Jd6sVuiD74YH9hehmxzXmQTVW5reyGH"
      ],
      "transaction": {
        "type": "0x02",
        "from": "0x8c4c12e63fcd9a9930c7d305fc87193cf46b5832",
        "to": "0x711a51532e2be8c2d13f0aa704cfd593d7513304",
        "gas": "0x39747",
        "value": "0x0",
        "data": "0x59f9f50f0000000000000000000000000000000000000000000000000000000000000000000000000000000000000000000000000000000000000000000000000000006000000000000000000000000000000000000000000000000000000000000000a00000000000000000000000000000000000000000000000000000000000000006696d6167653700000000000000000000000000000000000000000000000000000000000000000000000000000000000000000000000000000000000000000035697066733a2f2f516d52424842617159555245325a324a6436735675694437345948396865686d787a586d515456573572657947480000000000000000000000",
        "nonce": "0x25e",
        "accessList": []
      },
      "additionalContracts": [],
      "isFixedGasLimit": false
    },
    {
      "hash": "0xb1fe9d8f17c3ad3943a049d056d99b99c6d18901a4e2cd5d1e152228d6f6c23b",
      "transactionType": "CALL",
      "contractName": "PNFT",
      "contractAddress": "0x711a51532e2BE8c2D13F0aa704cfd593D7513304",
      "function": "setMetadata(uint256,string,string)",
      "arguments": [
        "0",
        "image8",
        "ipfs://QmNYnQp897TahwJpmtwo2bNoYD2Mdagw9GToKe1Zr9uL8q"
      ],
      "transaction": {
        "type": "0x02",
        "from": "0x8c4c12e63fcd9a9930c7d305fc87193cf46b5832",
        "to": "0x711a51532e2be8c2d13f0aa704cfd593d7513304",
        "gas": "0x3a8e0",
        "value": "0x0",
        "data": "0x59f9f50f0000000000000000000000000000000000000000000000000000000000000000000000000000000000000000000000000000000000000000000000000000006000000000000000000000000000000000000000000000000000000000000000a00000000000000000000000000000000000000000000000000000000000000006696d6167653800000000000000000000000000000000000000000000000000000000000000000000000000000000000000000000000000000000000000000035697066733a2f2f516d4e596e5170383937546168774a706d74776f32624e6f5944324d646167773947546f4b65315a7239754c38710000000000000000000000",
        "nonce": "0x25f",
        "accessList": []
      },
      "additionalContracts": [],
      "isFixedGasLimit": false
    },
    {
      "hash": "0xe00b84f6c21538a3169c2771f84ca8e83f6bce8c66269c0901a404170eb4b785",
      "transactionType": "CALL",
      "contractName": "PNFT",
      "contractAddress": "0x711a51532e2BE8c2D13F0aa704cfd593D7513304",
      "function": "setMetadata(uint256,string,string)",
      "arguments": [
        "0",
        "image9",
        "ipfs://QmPQY4D3qNXUyixqL1Mvq3m8C7TbriaKMBSvdSGhzuCSEP"
      ],
      "transaction": {
        "type": "0x02",
        "from": "0x8c4c12e63fcd9a9930c7d305fc87193cf46b5832",
        "to": "0x711a51532e2be8c2d13f0aa704cfd593d7513304",
        "gas": "0x3ba7a",
        "value": "0x0",
        "data": "0x59f9f50f0000000000000000000000000000000000000000000000000000000000000000000000000000000000000000000000000000000000000000000000000000006000000000000000000000000000000000000000000000000000000000000000a00000000000000000000000000000000000000000000000000000000000000006696d6167653900000000000000000000000000000000000000000000000000000000000000000000000000000000000000000000000000000000000000000035697066733a2f2f516d505159344433714e5855796978714c314d7671336d38433754627269614b4d425376645347687a75435345500000000000000000000000",
        "nonce": "0x260",
        "accessList": []
      },
      "additionalContracts": [],
      "isFixedGasLimit": false
    },
    {
      "hash": "0x893a2e32fde677929654028eee6216b557b51592812982a878b2c573dc77c611",
      "transactionType": "CALL",
      "contractName": "PNFT",
      "contractAddress": "0x711a51532e2BE8c2D13F0aa704cfd593D7513304",
      "function": "setMetadata(uint256,string,string)",
      "arguments": [
        "0",
        "image10",
        "ipfs://QmZrXeUumXhqF6BvTvoa8CyDW9DNJQdpTqSaKycuvLWxgv"
      ],
      "transaction": {
        "type": "0x02",
        "from": "0x8c4c12e63fcd9a9930c7d305fc87193cf46b5832",
        "to": "0x711a51532e2be8c2d13f0aa704cfd593d7513304",
        "gas": "0x39629",
        "value": "0x0",
        "data": "0x59f9f50f0000000000000000000000000000000000000000000000000000000000000000000000000000000000000000000000000000000000000000000000000000006000000000000000000000000000000000000000000000000000000000000000a00000000000000000000000000000000000000000000000000000000000000007696d6167653130000000000000000000000000000000000000000000000000000000000000000000000000000000000000000000000000000000000000000035697066733a2f2f516d5a72586555756d5868714636427654766f61384379445739444e4a516470547153614b796375764c577867760000000000000000000000",
        "nonce": "0x261",
        "accessList": []
      },
      "additionalContracts": [],
      "isFixedGasLimit": false
    },
    {
      "hash": "0x016347aec2a6bde85735e3a18cd3a69c11c2d6b9c6516ded5c27564b8f8c2d10",
      "transactionType": "CALL",
      "contractName": "PNFT",
      "contractAddress": "0x711a51532e2BE8c2D13F0aa704cfd593D7513304",
      "function": "allowName(string)",
      "arguments": [
        "Elerming Warring"
      ],
      "transaction": {
        "type": "0x02",
        "from": "0x8c4c12e63fcd9a9930c7d305fc87193cf46b5832",
        "to": "0x711a51532e2be8c2d13f0aa704cfd593d7513304",
        "gas": "0x1077e",
        "value": "0x0",
        "data": "0x1425d62500000000000000000000000000000000000000000000000000000000000000200000000000000000000000000000000000000000000000000000000000000010456c65726d696e672057617272696e6700000000000000000000000000000000",
        "nonce": "0x262",
        "accessList": []
      },
      "additionalContracts": [],
      "isFixedGasLimit": false
    },
    {
      "hash": "0xadb9014aaec45ab7823cd27c3f7fbdd36d6c1790b65e2ad6608b65eeca764ccc",
      "transactionType": "CALL",
      "contractName": "PNFT",
      "contractAddress": "0x711a51532e2BE8c2D13F0aa704cfd593D7513304",
      "function": "mint(address,string)",
      "arguments": [
        "0x8c4c12E63FCd9A9930C7d305Fc87193cF46B5832",
        "Elerming Warring"
      ],
      "transaction": {
        "type": "0x02",
        "from": "0x8c4c12e63fcd9a9930c7d305fc87193cf46b5832",
        "to": "0x711a51532e2be8c2d13f0aa704cfd593d7513304",
        "gas": "0x4b946",
        "value": "0x0",
        "data": "0xd0def5210000000000000000000000008c4c12e63fcd9a9930c7d305fc87193cf46b583200000000000000000000000000000000000000000000000000000000000000400000000000000000000000000000000000000000000000000000000000000010456c65726d696e672057617272696e6700000000000000000000000000000000",
        "nonce": "0x263",
        "accessList": []
      },
      "additionalContracts": [],
      "isFixedGasLimit": false
    },
    {
      "hash": "0x5245eed561c843521af95f8af490d037f2696ecb84267ae8a423ca812c8c51cd",
      "transactionType": "CALL",
      "contractName": "PNFT",
      "contractAddress": "0x711a51532e2BE8c2D13F0aa704cfd593D7513304",
      "function": "setMetadata(uint256,string,string)",
      "arguments": [
        "1",
        "image",
        "ipfs://QmQZebSJYnZtUHm2Zxh7GhDQchkQeJgsvZK7uZAgMWa13h"
      ],
      "transaction": {
        "type": "0x02",
        "from": "0x8c4c12e63fcd9a9930c7d305fc87193cf46b5832",
        "to": "0x711a51532e2be8c2d13f0aa704cfd593d7513304",
        "gas": "0x2df32",
        "value": "0x0",
        "data": "0x59f9f50f0000000000000000000000000000000000000000000000000000000000000001000000000000000000000000000000000000000000000000000000000000006000000000000000000000000000000000000000000000000000000000000000a00000000000000000000000000000000000000000000000000000000000000005696d6167650000000000000000000000000000000000000000000000000000000000000000000000000000000000000000000000000000000000000000000035697066733a2f2f516d515a6562534a596e5a7455486d325a7868374768445163686b51654a6773765a4b37755a41674d57613133680000000000000000000000",
        "nonce": "0x264",
        "accessList": []
      },
      "additionalContracts": [],
      "isFixedGasLimit": false
    },
    {
      "hash": "0x0feb54c1e29884ffdfa8d74d76332e5a765202feb1740aa0522d13dc3e78c8b9",
      "transactionType": "CALL",
      "contractName": "PNFT",
      "contractAddress": "0x711a51532e2BE8c2D13F0aa704cfd593D7513304",
      "function": "setMetadata(uint256,string,string)",
      "arguments": [
        "1",
        "image0",
        "ipfs://QmQZebSJYnZtUHm2Zxh7GhDQchkQeJgsvZK7uZAgMWa13h"
      ],
      "transaction": {
        "type": "0x02",
        "from": "0x8c4c12e63fcd9a9930c7d305fc87193cf46b5832",
        "to": "0x711a51532e2be8c2d13f0aa704cfd593d7513304",
        "gas": "0x31c1c",
        "value": "0x0",
        "data": "0x59f9f50f0000000000000000000000000000000000000000000000000000000000000001000000000000000000000000000000000000000000000000000000000000006000000000000000000000000000000000000000000000000000000000000000a00000000000000000000000000000000000000000000000000000000000000006696d6167653000000000000000000000000000000000000000000000000000000000000000000000000000000000000000000000000000000000000000000035697066733a2f2f516d515a6562534a596e5a7455486d325a7868374768445163686b51654a6773765a4b37755a41674d57613133680000000000000000000000",
        "nonce": "0x265",
        "accessList": []
      },
      "additionalContracts": [],
      "isFixedGasLimit": false
    },
    {
      "hash": "0x925a60848bfc53e5beb5619966da6739a06e1fe0c88a10268e809098e06bfa84",
      "transactionType": "CALL",
      "contractName": "PNFT",
      "contractAddress": "0x711a51532e2BE8c2D13F0aa704cfd593D7513304",
      "function": "setMetadata(uint256,string,string)",
      "arguments": [
        "1",
        "image1",
        "ipfs://QmaXbVT6fayFf7ruQiMEdshXKEif1kyotd9yM49Y2Rwf9D"
      ],
      "transaction": {
        "type": "0x02",
        "from": "0x8c4c12e63fcd9a9930c7d305fc87193cf46b5832",
        "to": "0x711a51532e2be8c2d13f0aa704cfd593d7513304",
        "gas": "0x32db6",
        "value": "0x0",
        "data": "0x59f9f50f0000000000000000000000000000000000000000000000000000000000000001000000000000000000000000000000000000000000000000000000000000006000000000000000000000000000000000000000000000000000000000000000a00000000000000000000000000000000000000000000000000000000000000006696d6167653100000000000000000000000000000000000000000000000000000000000000000000000000000000000000000000000000000000000000000035697066733a2f2f516d615862565436666179466637727551694d45647368584b456966316b796f746439794d3439593252776639440000000000000000000000",
        "nonce": "0x266",
        "accessList": []
      },
      "additionalContracts": [],
      "isFixedGasLimit": false
    },
    {
      "hash": "0xfae3adf1c376e55d906cedc517f6a3035498b6a76c6db78d6d2fcd28dffdbd6a",
      "transactionType": "CALL",
      "contractName": "PNFT",
      "contractAddress": "0x711a51532e2BE8c2D13F0aa704cfd593D7513304",
      "function": "setMetadata(uint256,string,string)",
      "arguments": [
        "1",
        "image2",
        "ipfs://QmWjpjS5ry3WCajjP7KSAUEsvz2LwfwwjnDC3ZaJkBXUxF"
      ],
      "transaction": {
        "type": "0x02",
        "from": "0x8c4c12e63fcd9a9930c7d305fc87193cf46b5832",
        "to": "0x711a51532e2be8c2d13f0aa704cfd593d7513304",
        "gas": "0x31121",
        "value": "0x0",
        "data": "0x59f9f50f0000000000000000000000000000000000000000000000000000000000000001000000000000000000000000000000000000000000000000000000000000006000000000000000000000000000000000000000000000000000000000000000a00000000000000000000000000000000000000000000000000000000000000006696d6167653200000000000000000000000000000000000000000000000000000000000000000000000000000000000000000000000000000000000000000035697066733a2f2f516d576a706a53357279335743616a6a50374b5341554573767a324c776677776a6e4443335a614a6b42585578460000000000000000000000",
        "nonce": "0x267",
        "accessList": []
      },
      "additionalContracts": [],
      "isFixedGasLimit": false
    },
    {
      "hash": "0x4e4f8e0379541c2abaf4b699a972ec9621ada89db8f204fac21e3cbe506fbd2f",
      "transactionType": "CALL",
      "contractName": "PNFT",
      "contractAddress": "0x711a51532e2BE8c2D13F0aa704cfd593D7513304",
      "function": "setMetadata(uint256,string,string)",
      "arguments": [
        "1",
        "image3",
        "ipfs://QmXBdGCgVe4XaPnJnCUCYvYBF3mD9XKMKVUHywR47tArUg"
      ],
      "transaction": {
        "type": "0x02",
        "from": "0x8c4c12e63fcd9a9930c7d305fc87193cf46b5832",
        "to": "0x711a51532e2be8c2d13f0aa704cfd593d7513304",
        "gas": "0x321c2",
        "value": "0x0",
        "data": "0x59f9f50f0000000000000000000000000000000000000000000000000000000000000001000000000000000000000000000000000000000000000000000000000000006000000000000000000000000000000000000000000000000000000000000000a00000000000000000000000000000000000000000000000000000000000000006696d6167653300000000000000000000000000000000000000000000000000000000000000000000000000000000000000000000000000000000000000000035697066733a2f2f516d5842644743675665345861506e4a6e4355435976594246336d4439584b4d4b565548797752343774417255670000000000000000000000",
        "nonce": "0x268",
        "accessList": []
      },
      "additionalContracts": [],
      "isFixedGasLimit": false
    },
    {
      "hash": "0xa219a74cc13ffb9f1abbf7eaaf47ce6cb03c3fb1e3563e64b829967a6888941c",
      "transactionType": "CALL",
      "contractName": "PNFT",
      "contractAddress": "0x711a51532e2BE8c2D13F0aa704cfd593D7513304",
      "function": "setMetadata(uint256,string,string)",
      "arguments": [
        "1",
        "image4",
        "ipfs://QmbX1zXfvgAqYb9T4ikoRvYgy14tRXWACpvuFiwgoJJXJB"
      ],
      "transaction": {
        "type": "0x02",
        "from": "0x8c4c12e63fcd9a9930c7d305fc87193cf46b5832",
        "to": "0x711a51532e2be8c2d13f0aa704cfd593d7513304",
        "gas": "0x3628a",
        "value": "0x0",
        "data": "0x59f9f50f0000000000000000000000000000000000000000000000000000000000000001000000000000000000000000000000000000000000000000000000000000006000000000000000000000000000000000000000000000000000000000000000a00000000000000000000000000000000000000000000000000000000000000006696d6167653400000000000000000000000000000000000000000000000000000000000000000000000000000000000000000000000000000000000000000035697066733a2f2f516d6258317a5866766741715962395434696b6f52765967793134745258574143707675466977676f4a4a584a420000000000000000000000",
        "nonce": "0x269",
        "accessList": []
      },
      "additionalContracts": [],
      "isFixedGasLimit": false
    },
    {
      "hash": "0xa56d820603589b610829009014f181a6b48684c1a1bf96394e949395118b4c99",
      "transactionType": "CALL",
      "contractName": "PNFT",
      "contractAddress": "0x711a51532e2BE8c2D13F0aa704cfd593D7513304",
      "function": "setMetadata(uint256,string,string)",
      "arguments": [
        "1",
        "image5",
        "ipfs://QmR84QvtMvhm8ammfLf6cv4hGk5rhXKCeHVjN59tLFLbzQ"
      ],
      "transaction": {
        "type": "0x02",
        "from": "0x8c4c12e63fcd9a9930c7d305fc87193cf46b5832",
        "to": "0x711a51532e2be8c2d13f0aa704cfd593d7513304",
        "gas": "0x37424",
        "value": "0x0",
        "data": "0x59f9f50f0000000000000000000000000000000000000000000000000000000000000001000000000000000000000000000000000000000000000000000000000000006000000000000000000000000000000000000000000000000000000000000000a00000000000000000000000000000000000000000000000000000000000000006696d6167653500000000000000000000000000000000000000000000000000000000000000000000000000000000000000000000000000000000000000000035697066733a2f2f516d5238345176744d76686d38616d6d664c663663763468476b357268584b436548566a4e3539744c464c627a510000000000000000000000",
        "nonce": "0x26a",
        "accessList": []
      },
      "additionalContracts": [],
      "isFixedGasLimit": false
    },
    {
      "hash": "0x781d33af79f954b89581d7d7bd598bfba7b87fbdf1eefaac6b3cd1a426f6fd3c",
      "transactionType": "CALL",
      "contractName": "PNFT",
      "contractAddress": "0x711a51532e2BE8c2D13F0aa704cfd593D7513304",
      "function": "setMetadata(uint256,string,string)",
      "arguments": [
        "1",
        "image6",
        "ipfs://QmUecSQYhpMS9nAsNUcGRDDJ9nXFD3BeCGXkkVqrV7G6Fj"
      ],
      "transaction": {
        "type": "0x02",
        "from": "0x8c4c12e63fcd9a9930c7d305fc87193cf46b5832",
        "to": "0x711a51532e2be8c2d13f0aa704cfd593d7513304",
        "gas": "0x353a5",
        "value": "0x0",
        "data": "0x59f9f50f0000000000000000000000000000000000000000000000000000000000000001000000000000000000000000000000000000000000000000000000000000006000000000000000000000000000000000000000000000000000000000000000a00000000000000000000000000000000000000000000000000000000000000006696d6167653600000000000000000000000000000000000000000000000000000000000000000000000000000000000000000000000000000000000000000035697066733a2f2f516d55656353515968704d53396e41734e5563475244444a396e5846443342654347586b6b56717256374736466a0000000000000000000000",
        "nonce": "0x26b",
        "accessList": []
      },
      "additionalContracts": [],
      "isFixedGasLimit": false
    },
    {
      "hash": "0x40e4c422f1d325c45c50ef911e429c7a496b54efe575733bc7b102b88cd32aa4",
      "transactionType": "CALL",
      "contractName": "PNFT",
      "contractAddress": "0x711a51532e2BE8c2D13F0aa704cfd593D7513304",
      "function": "setMetadata(uint256,string,string)",
      "arguments": [
        "1",
        "image7",
        "ipfs://QmbD2uUqXHdcBuemTU3EJTp77XjWgUe514PvyyCsviHwWc"
      ],
      "transaction": {
        "type": "0x02",
        "from": "0x8c4c12e63fcd9a9930c7d305fc87193cf46b5832",
        "to": "0x711a51532e2be8c2d13f0aa704cfd593d7513304",
        "gas": "0x36444",
        "value": "0x0",
        "data": "0x59f9f50f0000000000000000000000000000000000000000000000000000000000000001000000000000000000000000000000000000000000000000000000000000006000000000000000000000000000000000000000000000000000000000000000a00000000000000000000000000000000000000000000000000000000000000006696d6167653700000000000000000000000000000000000000000000000000000000000000000000000000000000000000000000000000000000000000000035697066733a2f2f516d624432755571584864634275656d545533454a54703737586a576755653531345076797943737669487757630000000000000000000000",
        "nonce": "0x26c",
        "accessList": []
      },
      "additionalContracts": [],
      "isFixedGasLimit": false
    },
    {
      "hash": "0x6bdfe4565d24a9faaf326f376e107aef983196ea3616e32e46d4f7022b4d9f44",
      "transactionType": "CREATE",
      "contractName": "PToken",
      "contractAddress": "0x0e7FbB177CC3366c2F9e60cBfE49C0bc083b80F2",
      "function": null,
      "arguments": [
        "Pulse Project",
        "PULSE"
      ],
      "transaction": {
        "type": "0x02",
        "from": "0x8c4c12e63fcd9a9930c7d305fc87193cf46b5832",
        "gas": "0x26b89c",
        "value": "0x0",
        "data": "0x6101606040523480156200001257600080fd5b5060405162002a5938038062002a5983398101604081905262000035916200087e565b6040805180820190915260018152603160f81b6020820152829081908184600362000061838262000976565b50600462000070828262000976565b50620000829150839050600562000142565b610120526200009381600662000142565b61014052815160208084019190912060e052815190820120610100524660a0526200012160e05161010051604080517f8b73c3c69bb8fe3d512ecc4cf759cc79239f7b179b0ffacaa9a75d522b39400f60208201529081019290925260608201524660808201523060a082015260009060c00160405160208183030381529060405280519060200120905090565b60805250503060c052506200013a33620f42406200017b565b505062000ade565b600060208351101562000162576200015a8362000227565b905062000175565b816200016f848262000976565b5060ff90505b92915050565b6200018782826200026a565b6001600160e01b036200019b6200033b8216565b1115620002085760405162461bcd60e51b815260206004820152603060248201527f4552433230566f7465733a20746f74616c20737570706c79207269736b73206f60448201526f766572666c6f77696e6720766f74657360801b60648201526084015b60405180910390fd5b62000221600b62000bb26200034160201b178362000356565b50505050565b600080829050601f8151111562000255578260405163305a27a960e01b8152600401620001ff919062000a42565b8051620002628262000a77565b179392505050565b6001600160a01b038216620002c25760405162461bcd60e51b815260206004820152601f60248201527f45524332303a206d696e7420746f20746865207a65726f2061646472657373006044820152606401620001ff565b8060026000828254620002d6919062000ab2565b90915550506001600160a01b038216600081815260208181526040808320805486019055518481527fddf252ad1be2c89b69c2b068fc378daa952ba7f163c4a11628f55a4df523b3ef910160405180910390a36200033760008383620004e3565b5050565b60025490565b60006200034f828462000ab2565b9392505050565b82546000908190818115620003a55760008781526020902082016000190160408051808201909152905463ffffffff8116825264010000000090046001600160e01b03166020820152620003ba565b60408051808201909152600080825260208201525b905080602001516001600160e01b03169350620003d884868860201c565b9250600082118015620004055750620003f062000517565b65ffffffffffff16816000015163ffffffff16145b156200044e57620004168362000529565b60008881526020902083016000190180546001600160e01b03929092166401000000000263ffffffff909216919091179055620004d4565b8660405180604001604052806200047c6200046e6200051760201b60201c565b65ffffffffffff1662000598565b63ffffffff168152602001620004928662000529565b6001600160e01b0390811690915282546001810184556000938452602093849020835194909301519091166401000000000263ffffffff909316929092179101555b5050935093915050565b505050565b6001600160a01b03838116600090815260096020526040808220548584168352912054620004de92918216911683620005ff565b600062000524436200073a565b905090565b60006001600160e01b03821115620005945760405162461bcd60e51b815260206004820152602760248201527f53616665436173743a2076616c756520646f65736e27742066697420696e20326044820152663234206269747360c81b6064820152608401620001ff565b5090565b600063ffffffff821115620005945760405162461bcd60e51b815260206004820152602660248201527f53616665436173743a2076616c756520646f65736e27742066697420696e203360448201526532206269747360d01b6064820152608401620001ff565b816001600160a01b0316836001600160a01b031614158015620006225750600081115b15620004de576001600160a01b03831615620006af576001600160a01b0383166000908152600a60209081526040822082916200066c9190620007a3901b62000bbe178562000356565b91509150846001600160a01b031660008051602062002a398339815191528383604051620006a4929190918252602082015260400190565b60405180910390a250505b6001600160a01b03821615620004de576001600160a01b0382166000908152600a6020908152604082208291620006f3919062000341901b62000bb2178562000356565b91509150836001600160a01b031660008051602062002a3983398151915283836040516200072b929190918252602082015260400190565b60405180910390a25050505050565b600065ffffffffffff821115620005945760405162461bcd60e51b815260206004820152602660248201527f53616665436173743a2076616c756520646f65736e27742066697420696e203460448201526538206269747360d01b6064820152608401620001ff565b60006200034f828462000ac8565b634e487b7160e01b600052604160045260246000fd5b60005b83811015620007e4578181015183820152602001620007ca565b50506000910152565b600082601f830112620007ff57600080fd5b81516001600160401b03808211156200081c576200081c620007b1565b604051601f8301601f19908116603f01168101908282118183101715620008475762000847620007b1565b816040528381528660208588010111156200086157600080fd5b62000874846020830160208901620007c7565b9695505050505050565b600080604083850312156200089257600080fd5b82516001600160401b0380821115620008aa57600080fd5b620008b886838701620007ed565b93506020850151915080821115620008cf57600080fd5b50620008de85828601620007ed565b9150509250929050565b600181811c90821680620008fd57607f821691505b6020821081036200091e57634e487b7160e01b600052602260045260246000fd5b50919050565b601f821115620004de57600081815260208120601f850160051c810160208610156200094d5750805b601f850160051c820191505b818110156200096e5782815560010162000959565b505050505050565b81516001600160401b03811115620009925762000992620007b1565b620009aa81620009a38454620008e8565b8462000924565b602080601f831160018114620009e25760008415620009c95750858301515b600019600386901b1c1916600185901b1785556200096e565b600085815260208120601f198616915b8281101562000a1357888601518255948401946001909101908401620009f2565b508582101562000a325787850151600019600388901b60f8161c191681555b5050505050600190811b01905550565b602081526000825180602084015262000a63816040850160208701620007c7565b601f01601f19169190910160400192915050565b805160208083015191908110156200091e5760001960209190910360031b1b16919050565b634e487b7160e01b600052601160045260246000fd5b8082018082111562000175576200017562000a9c565b8181038181111562000175576200017562000a9c565b60805160a05160c05160e051610100516101205161014051611f0062000b39600039600061068d0152600061066201526000610fec01526000610fc401526000610f1f01526000610f4901526000610f730152611f006000f3fe608060405234801561001057600080fd5b50600436106101735760003560e01c806370a08231116100de5780639ab24eb011610097578063c3cda52011610071578063c3cda5201461036e578063d505accf14610381578063dd62ed3e14610394578063f1127ed8146103a757600080fd5b80639ab24eb014610335578063a457c2d714610348578063a9059cbb1461035b57600080fd5b806370a08231146102a45780637ecebe00146102cd57806384b0196e146102e05780638e539e8c146102fb57806391ddadf41461030e57806395d89b411461032d57600080fd5b8063395093511161013057806339509351146101f55780633a46b1a8146102085780634bf5d7e91461021b578063587cde1e146102235780635c19a95c146102675780636fcfff451461027c57600080fd5b806306fdde0314610178578063095ea7b31461019657806318160ddd146101b957806323b872dd146101cb578063313ce567146101de5780633644e515146101ed575b600080fd5b6101806103e4565b60405161018d9190611b51565b60405180910390f35b6101a96101a4366004611b80565b610476565b604051901515815260200161018d565b6002545b60405190815260200161018d565b6101a96101d9366004611baa565b610490565b6040516012815260200161018d565b6101bd6104b4565b6101a9610203366004611b80565b6104c3565b6101bd610216366004611b80565b6104e5565b61018061056f565b61024f610231366004611be6565b6001600160a01b039081166000908152600960205260409020541690565b6040516001600160a01b03909116815260200161018d565b61027a610275366004611be6565b610607565b005b61028f61028a366004611be6565b610614565b60405163ffffffff909116815260200161018d565b6101bd6102b2366004611be6565b6001600160a01b031660009081526020819052604090205490565b6101bd6102db366004611be6565b610636565b6102e8610654565b60405161018d9796959493929190611c01565b6101bd610309366004611c97565b6106dd565b610316610744565b60405165ffffffffffff909116815260200161018d565b61018061074f565b6101bd610343366004611be6565b61075e565b6101a9610356366004611b80565b6107e0565b6101a9610369366004611b80565b61085b565b61027a61037c366004611cc1565b610869565b61027a61038f366004611d19565b61099f565b6101bd6103a2366004611d83565b610b03565b6103ba6103b5366004611db6565b610b2e565b60408051825163ffffffff1681526020928301516001600160e01b0316928101929092520161018d565b6060600380546103f390611df6565b80601f016020809104026020016040519081016040528092919081815260200182805461041f90611df6565b801561046c5780601f106104415761010080835404028352916020019161046c565b820191906000526020600020905b81548152906001019060200180831161044f57829003601f168201915b5050505050905090565b600033610484818585610bca565b60019150505b92915050565b60003361049e858285610cee565b6104a9858585610d68565b506001949350505050565b60006104be610f12565b905090565b6000336104848185856104d68383610b03565b6104e09190611e40565b610bca565b60006104ef610744565b65ffffffffffff1682106105465760405162461bcd60e51b815260206004820152601960248201527804552433230566f7465733a20667574757265206c6f6f6b757603c1b60448201526064015b60405180910390fd5b6001600160a01b0383166000908152600a60205260409020610568908361103d565b9392505050565b60604361057a610744565b65ffffffffffff16146105cf5760405162461bcd60e51b815260206004820152601d60248201527f4552433230566f7465733a2062726f6b656e20636c6f636b206d6f6465000000604482015260640161053d565b5060408051808201909152601d81527f6d6f64653d626c6f636b6e756d6265722666726f6d3d64656661756c74000000602082015290565b6106113382611126565b50565b6001600160a01b0381166000908152600a602052604081205461048a9061119f565b6001600160a01b03811660009081526007602052604081205461048a565b6000606080828080836106887f00000000000000000000000000000000000000000000000000000000000000006005611208565b6106b37f00000000000000000000000000000000000000000000000000000000000000006006611208565b60408051600080825260208201909252600f60f81b9b939a50919850469750309650945092509050565b60006106e7610744565b65ffffffffffff1682106107395760405162461bcd60e51b815260206004820152601960248201527804552433230566f7465733a20667574757265206c6f6f6b757603c1b604482015260640161053d565b61048a600b8361103d565b60006104be436112b3565b6060600480546103f390611df6565b6001600160a01b0381166000908152600a602052604081205480156107cd576001600160a01b0383166000908152600a60205260409020805460001983019081106107ab576107ab611e53565b60009182526020909120015464010000000090046001600160e01b03166107d0565b60005b6001600160e01b03169392505050565b600033816107ee8286610b03565b90508381101561084e5760405162461bcd60e51b815260206004820152602560248201527f45524332303a2064656372656173656420616c6c6f77616e63652062656c6f77604482015264207a65726f60d81b606482015260840161053d565b6104a98286868403610bca565b600033610484818585610d68565b834211156108b95760405162461bcd60e51b815260206004820152601d60248201527f4552433230566f7465733a207369676e61747572652065787069726564000000604482015260640161053d565b604080517fe48329057bfd03d55e49b547132e39cffd9c1820ad7b9d4c5307691425d15adf60208201526001600160a01b0388169181019190915260608101869052608081018590526000906109339061092b9060a0016040516020818303038152906040528051906020012061131a565b858585611347565b905061093e8161136f565b861461098c5760405162461bcd60e51b815260206004820152601960248201527f4552433230566f7465733a20696e76616c6964206e6f6e636500000000000000604482015260640161053d565b6109968188611126565b50505050505050565b834211156109ef5760405162461bcd60e51b815260206004820152601d60248201527f45524332305065726d69743a206578706972656420646561646c696e65000000604482015260640161053d565b60007f6e71edae12b1b97f4d1f60370fef10105fa2faae0126114a169c64845d6126c9888888610a1e8c61136f565b6040805160208101969096526001600160a01b0394851690860152929091166060840152608083015260a082015260c0810186905260e0016040516020818303038152906040528051906020012090506000610a798261131a565b90506000610a8982878787611347565b9050896001600160a01b0316816001600160a01b031614610aec5760405162461bcd60e51b815260206004820152601e60248201527f45524332305065726d69743a20696e76616c6964207369676e61747572650000604482015260640161053d565b610af78a8a8a610bca565b50505050505050505050565b6001600160a01b03918216600090815260016020908152604080832093909416825291909152205490565b60408051808201909152600080825260208201526001600160a01b0383166000908152600a60205260409020805463ffffffff8416908110610b7257610b72611e53565b60009182526020918290206040805180820190915291015463ffffffff8116825264010000000090046001600160e01b0316918101919091529392505050565b60006105688284611e40565b60006105688284611e69565b6001600160a01b038316610c2c5760405162461bcd60e51b8152602060048201526024808201527f45524332303a20617070726f76652066726f6d20746865207a65726f206164646044820152637265737360e01b606482015260840161053d565b6001600160a01b038216610c8d5760405162461bcd60e51b815260206004820152602260248201527f45524332303a20617070726f766520746f20746865207a65726f206164647265604482015261737360f01b606482015260840161053d565b6001600160a01b0383811660008181526001602090815260408083209487168084529482529182902085905590518481527f8c5be1e5ebec7d5bd14f71427d1e84f3dd0314c0f7b2291e5b200ac8c7c3b925910160405180910390a3505050565b6000610cfa8484610b03565b90506000198114610d625781811015610d555760405162461bcd60e51b815260206004820152601d60248201527f45524332303a20696e73756666696369656e7420616c6c6f77616e6365000000604482015260640161053d565b610d628484848403610bca565b50505050565b6001600160a01b038316610dcc5760405162461bcd60e51b815260206004820152602560248201527f45524332303a207472616e736665722066726f6d20746865207a65726f206164604482015264647265737360d81b606482015260840161053d565b6001600160a01b038216610e2e5760405162461bcd60e51b815260206004820152602360248201527f45524332303a207472616e7366657220746f20746865207a65726f206164647260448201526265737360e81b606482015260840161053d565b6001600160a01b03831660009081526020819052604090205481811015610ea65760405162461bcd60e51b815260206004820152602660248201527f45524332303a207472616e7366657220616d6f756e7420657863656564732062604482015265616c616e636560d01b606482015260840161053d565b6001600160a01b03848116600081815260208181526040808320878703905593871680835291849020805487019055925185815290927fddf252ad1be2c89b69c2b068fc378daa952ba7f163c4a11628f55a4df523b3ef910160405180910390a3610d6284848461139c565b6000306001600160a01b037f000000000000000000000000000000000000000000000000000000000000000016148015610f6b57507f000000000000000000000000000000000000000000000000000000000000000046145b15610f9557507f000000000000000000000000000000000000000000000000000000000000000090565b6104be604080517f8b73c3c69bb8fe3d512ecc4cf759cc79239f7b179b0ffacaa9a75d522b39400f60208201527f0000000000000000000000000000000000000000000000000000000000000000918101919091527f000000000000000000000000000000000000000000000000000000000000000060608201524660808201523060a082015260009060c00160405160208183030381529060405280519060200120905090565b815460009081816005811115611097576000611058846113ce565b6110629085611e69565b600088815260209020909150869082015463ffffffff16111561108757809150611095565b611092816001611e40565b92505b505b808210156110e45760006110ab83836114b6565b600088815260209020909150869082015463ffffffff1611156110d0578091506110de565b6110db816001611e40565b92505b50611097565b8015611110576000868152602090208101600019015464010000000090046001600160e01b0316611113565b60005b6001600160e01b03169695505050505050565b6001600160a01b038281166000818152600960208181526040808420805485845282862054949093528787166001600160a01b03198416811790915590519190951694919391928592917f3134e8a2e6d97e929a7e54011ea5485d7d196dd5f0ba4d4ef95803e8e3fc257f9190a4610d628284836114d1565b600063ffffffff8211156112045760405162461bcd60e51b815260206004820152602660248201527f53616665436173743a2076616c756520646f65736e27742066697420696e203360448201526532206269747360d01b606482015260840161053d565b5090565b606060ff83146112225761121b8361160e565b905061048a565b81805461122e90611df6565b80601f016020809104026020016040519081016040528092919081815260200182805461125a90611df6565b80156112a75780601f1061127c576101008083540402835291602001916112a7565b820191906000526020600020905b81548152906001019060200180831161128a57829003601f168201915b5050505050905061048a565b600065ffffffffffff8211156112045760405162461bcd60e51b815260206004820152602660248201527f53616665436173743a2076616c756520646f65736e27742066697420696e203460448201526538206269747360d01b606482015260840161053d565b600061048a611327610f12565b8360405161190160f01b8152600281019290925260228201526042902090565b60008060006113588787878761164d565b9150915061136581611711565b5095945050505050565b6001600160a01b03811660009081526007602052604090208054600181018255905b50919050565b505050565b6001600160a01b03838116600090815260096020526040808220548584168352912054611397929182169116836114d1565b6000816000036113e057506000919050565b600060016113ed8461185b565b901c6001901b9050600181848161140657611406611e7c565b048201901c9050600181848161141e5761141e611e7c565b048201901c9050600181848161143657611436611e7c565b048201901c9050600181848161144e5761144e611e7c565b048201901c9050600181848161146657611466611e7c565b048201901c9050600181848161147e5761147e611e7c565b048201901c9050600181848161149657611496611e7c565b048201901c9050610568818285816114b0576114b0611e7c565b046118ef565b60006114c56002848418611e92565b61056890848416611e40565b816001600160a01b0316836001600160a01b0316141580156114f35750600081115b15611397576001600160a01b03831615611581576001600160a01b0383166000908152600a60205260408120819061152e90610bbe85611905565b91509150846001600160a01b03167fdec2bacdd2f05b59de34da9b523dff8be42e5e38e818c82fdb0bae774387a7248383604051611576929190918252602082015260400190565b60405180910390a250505b6001600160a01b03821615611397576001600160a01b0382166000908152600a6020526040812081906115b790610bb285611905565b91509150836001600160a01b03167fdec2bacdd2f05b59de34da9b523dff8be42e5e38e818c82fdb0bae774387a72483836040516115ff929190918252602082015260400190565b60405180910390a25050505050565b6060600061161b83611a7a565b604080516020808252818301909252919250600091906020820181803683375050509182525060208101929092525090565b6000807f7fffffffffffffffffffffffffffffff5d576e7357a4501ddfe92f46681b20a08311156116845750600090506003611708565b6040805160008082526020820180845289905260ff881692820192909252606081018690526080810185905260019060a0016020604051602081039080840390855afa1580156116d8573d6000803e3d6000fd5b5050604051601f1901519150506001600160a01b03811661170157600060019250925050611708565b9150600090505b94509492505050565b600081600481111561172557611725611eb4565b0361172d5750565b600181600481111561174157611741611eb4565b0361178e5760405162461bcd60e51b815260206004820152601860248201527f45434453413a20696e76616c6964207369676e61747572650000000000000000604482015260640161053d565b60028160048111156117a2576117a2611eb4565b036117ef5760405162461bcd60e51b815260206004820152601f60248201527f45434453413a20696e76616c6964207369676e6174757265206c656e67746800604482015260640161053d565b600381600481111561180357611803611eb4565b036106115760405162461bcd60e51b815260206004820152602260248201527f45434453413a20696e76616c6964207369676e6174757265202773272076616c604482015261756560f01b606482015260840161053d565b600080608083901c1561187057608092831c92015b604083901c1561188257604092831c92015b602083901c1561189457602092831c92015b601083901c156118a657601092831c92015b600883901c156118b857600892831c92015b600483901c156118ca57600492831c92015b600283901c156118dc57600292831c92015b600183901c1561048a5760010192915050565b60008183106118fe5781610568565b5090919050565b825460009081908181156119525760008781526020902082016000190160408051808201909152905463ffffffff8116825264010000000090046001600160e01b03166020820152611967565b60408051808201909152600080825260208201525b905080602001516001600160e01b0316935061198784868863ffffffff16565b92506000821180156119b1575061199c610744565b65ffffffffffff16816000015163ffffffff16145b156119f6576119bf83611aa2565b60008881526020902083016000190180546001600160e01b03929092166401000000000263ffffffff909216919091179055611a70565b866040518060400160405280611a1a611a0d610744565b65ffffffffffff1661119f565b63ffffffff168152602001611a2e86611aa2565b6001600160e01b0390811690915282546001810184556000938452602093849020835194909301519091166401000000000263ffffffff909316929092179101555b5050935093915050565b600060ff8216601f81111561048a57604051632cd44ac360e21b815260040160405180910390fd5b60006001600160e01b038211156112045760405162461bcd60e51b815260206004820152602760248201527f53616665436173743a2076616c756520646f65736e27742066697420696e20326044820152663234206269747360c81b606482015260840161053d565b6000815180845260005b81811015611b3157602081850181015186830182015201611b15565b506000602082860101526020601f19601f83011685010191505092915050565b6020815260006105686020830184611b0b565b80356001600160a01b0381168114611b7b57600080fd5b919050565b60008060408385031215611b9357600080fd5b611b9c83611b64565b946020939093013593505050565b600080600060608486031215611bbf57600080fd5b611bc884611b64565b9250611bd660208501611b64565b9150604084013590509250925092565b600060208284031215611bf857600080fd5b61056882611b64565b60ff60f81b881681526000602060e081840152611c2160e084018a611b0b565b8381036040850152611c33818a611b0b565b606085018990526001600160a01b038816608086015260a0850187905284810360c0860152855180825283870192509083019060005b81811015611c8557835183529284019291840191600101611c69565b50909c9b505050505050505050505050565b600060208284031215611ca957600080fd5b5035919050565b803560ff81168114611b7b57600080fd5b60008060008060008060c08789031215611cda57600080fd5b611ce387611b64565b95506020870135945060408701359350611cff60608801611cb0565b92506080870135915060a087013590509295509295509295565b600080600080600080600060e0888a031215611d3457600080fd5b611d3d88611b64565b9650611d4b60208901611b64565b95506040880135945060608801359350611d6760808901611cb0565b925060a0880135915060c0880135905092959891949750929550565b60008060408385031215611d9657600080fd5b611d9f83611b64565b9150611dad60208401611b64565b90509250929050565b60008060408385031215611dc957600080fd5b611dd283611b64565b9150602083013563ffffffff81168114611deb57600080fd5b809150509250929050565b600181811c90821680611e0a57607f821691505b60208210810361139157634e487b7160e01b600052602260045260246000fd5b634e487b7160e01b600052601160045260246000fd5b8082018082111561048a5761048a611e2a565b634e487b7160e01b600052603260045260246000fd5b8181038181111561048a5761048a611e2a565b634e487b7160e01b600052601260045260246000fd5b600082611eaf57634e487b7160e01b600052601260045260246000fd5b500490565b634e487b7160e01b600052602160045260246000fdfea264697066735822122082c625511de75c5061e94d4890bca956be150717cc1ce698925d60e7da4e441c64736f6c63430008140033dec2bacdd2f05b59de34da9b523dff8be42e5e38e818c82fdb0bae774387a72400000000000000000000000000000000000000000000000000000000000000400000000000000000000000000000000000000000000000000000000000000080000000000000000000000000000000000000000000000000000000000000000d50756c73652050726f6a65637400000000000000000000000000000000000000000000000000000000000000000000000000000000000000000000000000000550554c5345000000000000000000000000000000000000000000000000000000",
        "nonce": "0x26d",
        "accessList": []
      },
      "additionalContracts": [],
      "isFixedGasLimit": false
    },
    {
      "hash": "0x0b407654ceddb222e0b645f3f7186ca1e45e6710f0c4669a0658834c3310aeff",
      "transactionType": "CREATE",
      "contractName": "PGovernor",
      "contractAddress": "0x3688adE0cF7C028D42FEa40F272fe793c5D6307b",
      "function": null,
      "arguments": [
        "0x0e7FbB177CC3366c2F9e60cBfE49C0bc083b80F2"
      ],
      "transaction": {
        "type": "0x02",
        "from": "0x8c4c12e63fcd9a9930c7d305fc87193cf46b5832",
        "gas": "0x4938c1",
        "value": "0x0",
        "data": "0x6101806040523480156200001257600080fd5b5060405162004a0b38038062004a0b8339810160408190526200003591620008bd565b60338161012c613840612710604051806040016040528060098152602001682823b7bb32b93737b960b91b81525080620000746200017e60201b60201c565b6200008182600062000199565b610120526200009281600162000199565b61014052815160208084019190912060e052815190820120610100524660a0526200012060e05161010051604080517f8b73c3c69bb8fe3d512ecc4cf759cc79239f7b179b0ffacaa9a75d522b39400f60208201529081019290925260608201524660808201523060a082015260009060c00160405160208183030381529060405280519060200120905090565b60805250503060c05260026200013782826200098d565b5062000145905083620001d2565b620001508262000213565b6200015b81620002ba565b5050506001600160a01b0316610160526200017681620002fb565b505062000b1a565b6040805180820190915260018152603160f81b602082015290565b6000602083511015620001b957620001b1836200047a565b9050620001cc565b81620001c684826200098d565b5060ff90505b92915050565b60065460408051918252602082018390527fc565b045403dc03c2eea82b81a0465edad9e2e7fc4d97e11421c209da93d7a93910160405180910390a1600655565b60008111620002795760405162461bcd60e51b815260206004820152602760248201527f476f7665726e6f7253657474696e67733a20766f74696e6720706572696f6420604482015266746f6f206c6f7760c81b60648201526084015b60405180910390fd5b60075460408051918252602082018390527f7e3f7f0708a84de9203036abaa450dccc85ad5ff52f78c170f3edb55cf5e8828910160405180910390a1600755565b60085460408051918252602082018390527fccb45da8d5717e6c4544694297c4ba5cf151d455c9bb0ed4fc7a38411bc05461910160405180910390a1600855565b6064811115620003805760405162461bcd60e51b815260206004820152604360248201527f476f7665726e6f72566f74657351756f72756d4672616374696f6e3a2071756f60448201527f72756d4e756d657261746f72206f7665722071756f72756d44656e6f6d696e616064820152623a37b960e91b608482015260a40162000270565b60006200038c620004bd565b905080158015906200039e5750600b54155b1562000406576040805180820190915260008152600b9060208101620003c484620004ec565b6001600160e01b0390811690915282546001810184556000938452602093849020835194909301519091166401000000000263ffffffff909316929092179101555b6200043b62000426620004186200055b565b65ffffffffffff16620005d2565b6200043184620004ec565b600b919062000639565b505060408051828152602081018490527f0553476bf02ef2726e8ce5ced78d63e26e602e4a2257b1f559418e24b4633997910160405180910390a15050565b600080829050601f81511115620004a8578260405163305a27a960e01b815260040162000270919062000a59565b8051620004b58262000aa9565b179392505050565b600b5460009015620004e357620004d5600b62000656565b6001600160e01b0316905090565b600a545b905090565b60006001600160e01b03821115620005575760405162461bcd60e51b815260206004820152602760248201527f53616665436173743a2076616c756520646f65736e27742066697420696e20326044820152663234206269747360c81b606482015260840162000270565b5090565b6000610160516001600160a01b03166391ddadf46040518163ffffffff1660e01b8152600401602060405180830381865afa925050508015620005bd575060408051601f3d908101601f19168201909252620005ba9181019062000ace565b60015b620005cd57620004e743620006a4565b919050565b600063ffffffff821115620005575760405162461bcd60e51b815260206004820152602660248201527f53616665436173743a2076616c756520646f65736e27742066697420696e203360448201526532206269747360d01b606482015260840162000270565b600080620006498585856200070d565b915091505b935093915050565b805460009080156200069a5762000682836200067460018462000af8565b600091825260209091200190565b5464010000000090046001600160e01b03166200069d565b60005b9392505050565b600065ffffffffffff821115620005575760405162461bcd60e51b815260206004820152602660248201527f53616665436173743a2076616c756520646f65736e27742066697420696e203460448201526538206269747360d01b606482015260840162000270565b825460009081908015620008625760006200072f876200067460018562000af8565b60408051808201909152905463ffffffff8082168084526401000000009092046001600160e01b031660208401529192509087161015620007b35760405162461bcd60e51b815260206004820152601b60248201527f436865636b706f696e743a2064656372656173696e67206b6579730000000000604482015260640162000270565b805163ffffffff808816911603620008015784620007d8886200067460018662000af8565b80546001600160e01b03929092166401000000000263ffffffff90921691909117905562000851565b6040805180820190915263ffffffff80881682526001600160e01b0380881660208085019182528b54600181018d5560008d81529190912094519151909216640100000000029216919091179101555b6020015192508391506200064e9050565b50506040805180820190915263ffffffff80851682526001600160e01b0380851660208085019182528854600181018a5560008a8152918220955192519093166401000000000291909316179201919091559050816200064e565b600060208284031215620008d057600080fd5b81516001600160a01b03811681146200069d57600080fd5b634e487b7160e01b600052604160045260246000fd5b600181811c908216806200091357607f821691505b6020821081036200093457634e487b7160e01b600052602260045260246000fd5b50919050565b601f8211156200098857600081815260208120601f850160051c81016020861015620009635750805b601f850160051c820191505b8181101562000984578281556001016200096f565b5050505b505050565b81516001600160401b03811115620009a957620009a9620008e8565b620009c181620009ba8454620008fe565b846200093a565b602080601f831160018114620009f95760008415620009e05750858301515b600019600386901b1c1916600185901b17855562000984565b600085815260208120601f198616915b8281101562000a2a5788860151825594840194600190910190840162000a09565b508582101562000a495787850151600019600388901b60f8161c191681555b5050505050600190811b01905550565b600060208083528351808285015260005b8181101562000a885785810183015185820160400152820162000a6a565b506000604082860101526040601f19601f8301168501019250505092915050565b80516020808301519190811015620009345760001960209190910360031b1b16919050565b60006020828403121562000ae157600080fd5b815165ffffffffffff811681146200069d57600080fd5b81810381811115620001cc57634e487b7160e01b600052601160045260246000fd5b60805160a05160c05160e05161010051610120516101405161016051613e6f62000b9c600039600081816108b401528181610f770152818161164501528181612358015261251c015260006115f1015260006115c70152600061267d01526000612655015260006125b0015260006125da015260006126040152613e6f6000f3fe6080604052600436106102555760003560e01c806370b0f66011610139578063c01f9e37116100b6578063ea0217cf1161007a578063ea0217cf146107f6578063eb9019d414610816578063ece40cc114610836578063f23a6e6114610856578063f8ce560a14610882578063fc0c546a146108a257600080fd5b8063c01f9e3714610710578063c28bc2fa14610749578063c59057e41461075c578063dd4e2ba51461077c578063deaaa7cc146107c257600080fd5b806397c3d334116100fd57806397c3d334146106865780639a802a6d1461069a578063a7713a70146106ba578063b58131b0146106cf578063bc197c81146106e457600080fd5b806370b0f660146105d25780637b3c71d3146105f25780637d5e81e21461061257806384b0196e1461063257806391ddadf41461065a57600080fd5b80633932abb1116101d25780634bf5d7e9116101965780634bf5d7e9146104de578063544ffc9c146104f357806354fd4d501461054857806356781388146105725780635f398a141461059257806360c4247f146105b257600080fd5b80633932abb11461043c5780633bccf4fd146104515780633e4f49e614610471578063438596321461049e578063452115d6146104be57600080fd5b8063143489d011610219578063143489d014610326578063150b7a021461037b5780632656227d146103bf5780632d63f693146103d25780632fe3e2611461040857600080fd5b806301ffc9a71461026c57806302a251a3146102a157806303420181146102c457806306f3f9e6146102e457806306fdde031461030457600080fd5b3661026757005b60405180910390fd5b005b600080fd5b34801561027857600080fd5b5061028c610287366004612fe3565b6108d6565b60405190151581526020015b60405180910390f35b3480156102ad57600080fd5b506102b6610973565b604051908152602001610298565b3480156102d057600080fd5b506102b66102df366004613131565b610983565b3480156102f057600080fd5b506102656102ff3660046131d7565b610a7b565b34801561031057600080fd5b50610319610abd565b6040516102989190613240565b34801561033257600080fd5b506103636103413660046131d7565b600090815260036020526040902054600160401b90046001600160a01b031690565b6040516001600160a01b039091168152602001610298565b34801561038757600080fd5b506103a661039636600461326a565b630a85bd0160e11b949350505050565b6040516001600160e01b03199091168152602001610298565b6102b66103cd36600461343b565b610b4f565b3480156103de57600080fd5b506102b66103ed3660046131d7565b6000908152600360205260409020546001600160401b031690565b34801561041457600080fd5b506102b67fb3b3f3b703cd84ce352197dcff232b1b5d3cfb2025ce47cf04742d0651f1af8881565b34801561044857600080fd5b506102b6610c7b565b34801561045d57600080fd5b506102b661046c3660046134ca565b610c86565b34801561047d57600080fd5b5061049161048c3660046131d7565b610cfc565b604051610298919061352e565b3480156104aa57600080fd5b5061028c6104b9366004613556565b610e3c565b3480156104ca57600080fd5b506102b66104d936600461343b565b610e6c565b3480156104ea57600080fd5b50610319610f73565b3480156104ff57600080fd5b5061052d61050e3660046131d7565b6000908152600960205260409020805460018201546002909201549092565b60408051938452602084019290925290820152606001610298565b34801561055457600080fd5b506040805180820190915260018152603160f81b6020820152610319565b34801561057e57600080fd5b506102b661058d366004613582565b611035565b34801561059e57600080fd5b506102b66105ad3660046135a5565b61105e565b3480156105be57600080fd5b506102b66105cd3660046131d7565b6110a8565b3480156105de57600080fd5b506102656105ed3660046131d7565b611159565b3480156105fe57600080fd5b506102b661060d366004613628565b611198565b34801561061e57600080fd5b506102b661062d366004613681565b6111e0565b34801561063e57600080fd5b506106476115b9565b6040516102989796959493929190613770565b34801561066657600080fd5b5061066f611641565b60405165ffffffffffff9091168152602001610298565b34801561069257600080fd5b5060646102b6565b3480156106a657600080fd5b506102b66106b53660046137d2565b6116ca565b3480156106c657600080fd5b506102b66116e1565b3480156106db57600080fd5b506102b661170b565b3480156106f057600080fd5b506103a66106ff366004613828565b63bc197c8160e01b95945050505050565b34801561071c57600080fd5b506102b661072b3660046131d7565b6000908152600360205260409020600101546001600160401b031690565b6102656107573660046138b7565b611716565b34801561076857600080fd5b506102b661077736600461343b565b6117dd565b34801561078857600080fd5b506040805180820190915260208082527f737570706f72743d627261766f2671756f72756d3d666f722c6162737461696e90820152610319565b3480156107ce57600080fd5b506102b67f150214d74d59b7d1e90c73fc22ef3d991dd0a76b046543d4d80ab92d2a50328f81565b34801561080257600080fd5b506102656108113660046131d7565b611817565b34801561082257600080fd5b506102b66108313660046138f8565b611856565b34801561084257600080fd5b506102656108513660046131d7565b611877565b34801561086257600080fd5b506103a6610871366004613922565b63f23a6e6160e01b95945050505050565b34801561088e57600080fd5b506102b661089d3660046131d7565b6118b6565b3480156108ae57600080fd5b506103637f000000000000000000000000000000000000000000000000000000000000000081565b600063288ace0360e11b6318df743f60e31b63bf26d89760e01b6379dd796f60e01b6001600160e01b0319861682148061091c57506001600160e01b0319868116908216145b8061093357506001600160e01b0319868116908516145b8061094e57506001600160e01b03198616630271189760e51b145b8061096957506301ffc9a760e01b6001600160e01b03198716145b9695505050505050565b600061097e60075490565b905090565b600080610a27610a1f7fb3b3f3b703cd84ce352197dcff232b1b5d3cfb2025ce47cf04742d0651f1af888c8c8c8c6040516109bf929190613986565b60405180910390208b80519060200120604051602001610a04959493929190948552602085019390935260ff9190911660408401526060830152608082015260a00190565b604051602081830303815290604052805190602001206118c1565b8686866118ee565b9050610a6d8a828b8b8b8080601f0160208091040260200160405190810160405280939291908181526020018383808284376000920191909152508d925061190c915050565b9a9950505050505050505050565b333014610a9a5760405162461bcd60e51b815260040161025c90613996565b610ab1565b80610aaa6004611a61565b03610a9f57505b610aba81611ae0565b50565b606060028054610acc906139cd565b80601f0160208091040260200160405190810160405280929190818152602001828054610af8906139cd565b8015610b455780601f10610b1a57610100808354040283529160200191610b45565b820191906000526020600020905b815481529060010190602001808311610b2857829003601f168201915b5050505050905090565b600080610b5e868686866117dd565b90506000610b6b82610cfc565b90506004816007811115610b8157610b81613518565b1480610b9e57506005816007811115610b9c57610b9c613518565b145b610bf45760405162461bcd60e51b815260206004820152602160248201527f476f7665726e6f723a2070726f706f73616c206e6f74207375636365737366756044820152601b60fa1b606482015260840161025c565b60008281526003602052604090819020600201805460ff19166001179055517f712ae1383f79ac853f8d882153778e0260ef8f03b504e2866e0593e04d2b291f90610c429084815260200190565b60405180910390a1610c578288888888611c4e565b610c648288888888611cdb565b610c718288888888611c4e565b5095945050505050565b600061097e60065490565b604080517f150214d74d59b7d1e90c73fc22ef3d991dd0a76b046543d4d80ab92d2a50328f602082015290810186905260ff851660608201526000908190610cd490610a1f90608001610a04565b9050610cf187828860405180602001604052806000815250611dd1565b979650505050505050565b6000818152600360205260408120600281015460ff1615610d205750600792915050565b6002810154610100900460ff1615610d3b5750600292915050565b6000838152600360205260408120546001600160401b031690819003610da35760405162461bcd60e51b815260206004820152601d60248201527f476f7665726e6f723a20756e6b6e6f776e2070726f706f73616c206964000000604482015260640161025c565b6000610dad611641565b65ffffffffffff169050808210610dc957506000949350505050565b6000858152600360205260409020600101546001600160401b0316818110610df75750600195945050505050565b610e0086611dfd565b8015610e1f575060008681526009602052604090208054600190910154115b15610e305750600495945050505050565b50600395945050505050565b60008281526009602090815260408083206001600160a01b038516845260030190915290205460ff165b92915050565b600080610e7b868686866117dd565b90506000610e8882610cfc565b6007811115610e9957610e99613518565b14610ee65760405162461bcd60e51b815260206004820152601c60248201527f476f7665726e6f723a20746f6f206c61746520746f2063616e63656c00000000604482015260640161025c565b600081815260036020526040902054600160401b90046001600160a01b0316336001600160a01b031614610f675760405162461bcd60e51b815260206004820152602260248201527f476f7665726e6f723a206f6e6c792070726f706f7365722063616e2063616e63604482015261195b60f21b606482015260840161025c565b61096986868686611e49565b60607f00000000000000000000000000000000000000000000000000000000000000006001600160a01b0316634bf5d7e96040518163ffffffff1660e01b8152600401600060405180830381865afa925050508015610ff457506040513d6000823e601f3d908101601f19168201604052610ff19190810190613a07565b60015b611030575060408051808201909152601d81527f6d6f64653d626c6f636b6e756d6265722666726f6d3d64656661756c74000000602082015290565b919050565b60008033905061105684828560405180602001604052806000815250611dd1565b949350505050565b600080339050610cf187828888888080601f0160208091040260200160405190810160405280939291908181526020018383808284376000920191909152508a925061190c915050565b600b546000908082036110bf575050600a54919050565b6000600b6110ce600184613a8a565b815481106110de576110de613a9d565b60009182526020918290206040805180820190915291015463ffffffff8116808352600160201b9091046001600160e01b0316928201929092529150841061113457602001516001600160e01b03169392505050565b61114861114085611f67565b600b90611fd0565b6001600160e01b0316949350505050565b3330146111785760405162461bcd60e51b815260040161025c90613996565b61118f565b806111886004611a61565b0361117d57505b610aba81612083565b60008033905061096986828787878080601f016020809104026020016040519081016040528093929190818152602001838380828437600092019190915250611dd192505050565b6000336111ed81846120c4565b6112395760405162461bcd60e51b815260206004820152601d60248201527f476f7665726e6f723a2070726f706f7365722072657374726963746564000000604482015260640161025c565b6000611243611641565b65ffffffffffff16905061125561170b565b61126483610831600185613a8a565b10156112cc5760405162461bcd60e51b815260206004820152603160248201527f476f7665726e6f723a2070726f706f73657220766f7465732062656c6f7720706044820152701c9bdc1bdcd85b081d1a1c995cda1bdb19607a1b606482015260840161025c565b60006112e188888888805190602001206117dd565b905086518851146113045760405162461bcd60e51b815260040161025c90613ab3565b85518851146113255760405162461bcd60e51b815260040161025c90613ab3565b60008851116113765760405162461bcd60e51b815260206004820152601860248201527f476f7665726e6f723a20656d7074792070726f706f73616c0000000000000000604482015260640161025c565b6000818152600360205260409020546001600160401b0316156113e55760405162461bcd60e51b815260206004820152602160248201527f476f7665726e6f723a2070726f706f73616c20616c72656164792065786973746044820152607360f81b606482015260840161025c565b60006113ef610c7b565b6113f99084613af4565b90506000611405610973565b61140f9083613af4565b90506040518060e00160405280611425846121b5565b6001600160401b031681526001600160a01b038716602082015260006040820152606001611452836121b5565b6001600160401b039081168252600060208084018290526040808501839052606094850183905288835260038252918290208551815492870151878501519186166001600160e01b031990941693909317600160401b6001600160a01b039094168402176001600160e01b0316600160e01b60e09290921c91909102178155938501516080860151908416921c0217600183015560a08301516002909201805460c09094015161ffff1990941692151561ff00191692909217610100931515939093029290921790558a517f7d84a6263ae0d98d3329bd7b46bb4e8d6f98cd35a7adb45c274c8b7fd5ebd5e091859188918e918e9181111561155657611556613066565b60405190808252806020026020018201604052801561158957816020015b60608152602001906001900390816115745790505b508d88888f6040516115a399989796959493929190613b95565b60405180910390a1509098975050505050505050565b6000606080828080836115ec7f00000000000000000000000000000000000000000000000000000000000000008361221d565b6116177f0000000000000000000000000000000000000000000000000000000000000000600161221d565b60408051600080825260208201909252600f60f81b9b939a50919850469750309650945092509050565b60007f00000000000000000000000000000000000000000000000000000000000000006001600160a01b03166391ddadf46040518163ffffffff1660e01b8152600401602060405180830381865afa9250505080156116bd575060408051601f3d908101601f191682019092526116ba91810190613c6c565b60015b6110305761097e436122c8565b60006116d784848461232f565b90505b9392505050565b600b5460009015611704576116f6600b6123c5565b6001600160e01b0316905090565b50600a5490565b600061097e60085490565b3330146117355760405162461bcd60e51b815260040161025c90613996565b61174c565b806117456004611a61565b0361173a57505b600080856001600160a01b031685858560405161176a929190613986565b60006040518083038185875af1925050503d80600081146117a7576040519150601f19603f3d011682016040523d82523d6000602084013e6117ac565b606091505b50915091506117d48282604051806060016040528060288152602001613deb602891396123fe565b50505050505050565b6000848484846040516020016117f69493929190613c94565b60408051601f19818403018152919052805160209091012095945050505050565b3330146118365760405162461bcd60e51b815260040161025c90613996565b61184d565b806118466004611a61565b0361183b57505b610aba81612417565b60006116da838361187260408051602081019091526000815290565b61232f565b3330146118965760405162461bcd60e51b815260040161025c90613996565b6118ad565b806118a66004611a61565b0361189b57505b610aba816124b8565b6000610e66826124f9565b6000610e666118ce6125a3565b8360405161190160f01b8152600281019290925260228201526042902090565b60008060006118ff878787876126ce565b91509150610c7181612792565b6000858152600360205260408120600161192588610cfc565b600781111561193657611936613518565b1461198f5760405162461bcd60e51b815260206004820152602360248201527f476f7665726e6f723a20766f7465206e6f742063757272656e746c792061637460448201526269766560e81b606482015260840161025c565b80546000906119a99088906001600160401b03168661232f565b90506119b888888884886128dc565b8351600003611a0d57866001600160a01b03167fb8e138887d0aa13bab447e82de9d5c1777041ecd21ca36ba824ff1e6c07ddda489888489604051611a009493929190613cdf565b60405180910390a2610cf1565b866001600160a01b03167fe2babfbac5889a709b63bb7f598b324e08bc5a4fb9ec647fb3cbc9ec07eb87128988848989604051611a4e959493929190613d07565b60405180910390a2979650505050505050565b6000611a7c8254600f81810b600160801b909204900b131590565b15611a9a57604051631ed9509560e11b815260040160405180910390fd5b508054600f0b6000818152600180840160205260408220805492905583546fffffffffffffffffffffffffffffffff191692016001600160801b03169190911790915590565b6064811115611b635760405162461bcd60e51b815260206004820152604360248201527f476f7665726e6f72566f74657351756f72756d4672616374696f6e3a2071756f60448201527f72756d4e756d657261746f72206f7665722071756f72756d44656e6f6d696e616064820152623a37b960e91b608482015260a40161025c565b6000611b6d6116e1565b90508015801590611b7e5750600b54155b15611be2576040805180820190915260008152600b9060208101611ba184612a56565b6001600160e01b039081169091528254600181018455600093845260209384902083519490930151909116600160201b0263ffffffff909316929092179101555b611c0f611bfd611bf0611641565b65ffffffffffff16611f67565b611c0684612a56565b600b9190612abf565b505060408051828152602081018490527f0553476bf02ef2726e8ce5ced78d63e26e602e4a2257b1f559418e24b4633997910160405180910390a15050565b611cd4565b8451811015611cd257306001600160a01b0316858281518110611c7857611c78613a9d565b60200260200101516001600160a01b031603611cc257611cc2838281518110611ca357611ca3613a9d565b6020026020010151805190602001206004612ada90919063ffffffff16565b611ccb81613d4d565b9050611c53565b505b5050505050565b6000604051806060016040528060278152602001613e1360279139905060005b85518110156117d457600080878381518110611d1957611d19613a9d565b60200260200101516001600160a01b0316878481518110611d3c57611d3c613a9d565b6020026020010151878581518110611d5657611d56613a9d565b6020026020010151604051611d6b9190613d66565b60006040518083038185875af1925050503d8060008114611da8576040519150601f19603f3d011682016040523d82523d6000602084013e611dad565b606091505b5091509150611dbd8282866123fe565b50505080611dca90613d4d565b9050611cfb565b6000611df485858585611def60408051602081019091526000815290565b61190c565b95945050505050565b600081815260096020526040812060028101546001820154611e1f9190613af4565b600084815260036020526040902054611e40906001600160401b03166118b6565b11159392505050565b600080611e58868686866117dd565b90506000611e6582610cfc565b90506002816007811115611e7b57611e7b613518565b14158015611e9b57506006816007811115611e9857611e98613518565b14155b8015611eb957506007816007811115611eb657611eb6613518565b14155b611f055760405162461bcd60e51b815260206004820152601d60248201527f476f7665726e6f723a2070726f706f73616c206e6f7420616374697665000000604482015260640161025c565b60008281526003602052604090819020600201805461ff001916610100179055517f789cf55be980739dad1d0699b93b58e806b51c9d96619bfa8fe0a28abaa7b30c90611f559084815260200190565b60405180910390a15095945050505050565b600063ffffffff821115611fcc5760405162461bcd60e51b815260206004820152602660248201527f53616665436173743a2076616c756520646f65736e27742066697420696e203360448201526532206269747360d01b606482015260840161025c565b5090565b81546000908181600581111561202d576000611feb84612b16565b611ff59085613a8a565b60008881526020902090915081015463ffffffff908116908716101561201d5780915061202b565b612028816001613af4565b92505b505b600061203b87878585612bfe565b905080156120765761206087612052600184613a8a565b600091825260209091200190565b54600160201b90046001600160e01b0316610cf1565b6000979650505050505050565b60065460408051918252602082018390527fc565b045403dc03c2eea82b81a0465edad9e2e7fc4d97e11421c209da93d7a93910160405180910390a1600655565b805160009060348110156120dc576001915050610e66565b82810160131901516001600160a01b031981166b046e0e4dee0dee6cae47a60f60a31b1461210f57600192505050610e66565b60008061211d602885613a8a565b90505b838110156121945760008061215488848151811061214057612140613a9d565b01602001516001600160f81b031916612c5c565b915091508161216c5760019650505050505050610e66565b8060ff166004856001600160a01b0316901b17935050508061218d90613d4d565b9050612120565b50856001600160a01b0316816001600160a01b031614935050505092915050565b60006001600160401b03821115611fcc5760405162461bcd60e51b815260206004820152602660248201527f53616665436173743a2076616c756520646f65736e27742066697420696e203660448201526534206269747360d01b606482015260840161025c565b606060ff83146122375761223083612cee565b9050610e66565b818054612243906139cd565b80601f016020809104026020016040519081016040528092919081815260200182805461226f906139cd565b80156122bc5780601f10612291576101008083540402835291602001916122bc565b820191906000526020600020905b81548152906001019060200180831161229f57829003601f168201915b50505050509050610e66565b600065ffffffffffff821115611fcc5760405162461bcd60e51b815260206004820152602660248201527f53616665436173743a2076616c756520646f65736e27742066697420696e203460448201526538206269747360d01b606482015260840161025c565b604051630748d63560e31b81526001600160a01b038481166004830152602482018490526000917f000000000000000000000000000000000000000000000000000000000000000090911690633a46b1a890604401602060405180830381865afa1580156123a1573d6000803e3d6000fd5b505050506040513d601f19601f820116820180604052508101906116d79190613d82565b805460009080156123f5576123df83612052600184613a8a565b54600160201b90046001600160e01b03166116da565b60009392505050565b6060831561240d5750816116da565b6116da8383612d2d565b600081116124775760405162461bcd60e51b815260206004820152602760248201527f476f7665726e6f7253657474696e67733a20766f74696e6720706572696f6420604482015266746f6f206c6f7760c81b606482015260840161025c565b60075460408051918252602082018390527f7e3f7f0708a84de9203036abaa450dccc85ad5ff52f78c170f3edb55cf5e8828910160405180910390a1600755565b60085460408051918252602082018390527fccb45da8d5717e6c4544694297c4ba5cf151d455c9bb0ed4fc7a38411bc05461910160405180910390a1600855565b60006064612506836110a8565b604051632394e7a360e21b8152600481018590527f00000000000000000000000000000000000000000000000000000000000000006001600160a01b031690638e539e8c90602401602060405180830381865afa15801561256b573d6000803e3d6000fd5b505050506040513d601f19601f8201168201806040525081019061258f9190613d82565b6125999190613d9b565b610e669190613dc8565b6000306001600160a01b037f0000000000000000000000000000000000000000000000000000000000000000161480156125fc57507f000000000000000000000000000000000000000000000000000000000000000046145b1561262657507f000000000000000000000000000000000000000000000000000000000000000090565b61097e604080517f8b73c3c69bb8fe3d512ecc4cf759cc79239f7b179b0ffacaa9a75d522b39400f60208201527f0000000000000000000000000000000000000000000000000000000000000000918101919091527f000000000000000000000000000000000000000000000000000000000000000060608201524660808201523060a082015260009060c00160405160208183030381529060405280519060200120905090565b6000807f7fffffffffffffffffffffffffffffff5d576e7357a4501ddfe92f46681b20a08311156127055750600090506003612789565b6040805160008082526020820180845289905260ff881692820192909252606081018690526080810185905260019060a0016020604051602081039080840390855afa158015612759573d6000803e3d6000fd5b5050604051601f1901519150506001600160a01b03811661278257600060019250925050612789565b9150600090505b94509492505050565b60008160048111156127a6576127a6613518565b036127ae5750565b60018160048111156127c2576127c2613518565b0361280f5760405162461bcd60e51b815260206004820152601860248201527f45434453413a20696e76616c6964207369676e61747572650000000000000000604482015260640161025c565b600281600481111561282357612823613518565b036128705760405162461bcd60e51b815260206004820152601f60248201527f45434453413a20696e76616c6964207369676e6174757265206c656e67746800604482015260640161025c565b600381600481111561288457612884613518565b03610aba5760405162461bcd60e51b815260206004820152602260248201527f45434453413a20696e76616c6964207369676e6174757265202773272076616c604482015261756560f01b606482015260840161025c565b60008581526009602090815260408083206001600160a01b0388168452600381019092529091205460ff16156129645760405162461bcd60e51b815260206004820152602760248201527f476f7665726e6f72566f74696e6753696d706c653a20766f746520616c726561604482015266191e4818d85cdd60ca1b606482015260840161025c565b6001600160a01b03851660009081526003820160205260409020805460ff1916600117905560ff84166129b057828160000160008282546129a59190613af4565b90915550611cd29050565b60001960ff8516016129d057828160010160008282546129a59190613af4565b60011960ff8516016129f057828160020160008282546129a59190613af4565b60405162461bcd60e51b815260206004820152603560248201527f476f7665726e6f72566f74696e6753696d706c653a20696e76616c69642076616044820152746c756520666f7220656e756d20566f74655479706560581b606482015260840161025c565b60006001600160e01b03821115611fcc5760405162461bcd60e51b815260206004820152602760248201527f53616665436173743a2076616c756520646f65736e27742066697420696e20326044820152663234206269747360c81b606482015260840161025c565b600080612acd858585612d57565b915091505b935093915050565b8154600160801b90819004600f0b6000818152600180860160205260409091209390935583546001600160801b03908116939091011602179055565b600081600003612b2857506000919050565b60006001612b3584612ef6565b901c6001901b90506001818481612b4e57612b4e613db2565b048201901c90506001818481612b6657612b66613db2565b048201901c90506001818481612b7e57612b7e613db2565b048201901c90506001818481612b9657612b96613db2565b048201901c90506001818481612bae57612bae613db2565b048201901c90506001818481612bc657612bc6613db2565b048201901c90506001818481612bde57612bde613db2565b048201901c90506116da81828581612bf857612bf8613db2565b04612f8a565b60005b81831015612c54576000612c158484612fa0565b60008781526020902090915063ffffffff86169082015463ffffffff161115612c4057809250612c4e565b612c4b816001613af4565b93505b50612c01565b509392505050565b60008060f883901c602f81118015612c775750603a8160ff16105b15612c8c57600194602f199091019350915050565b8060ff166040108015612ca2575060478160ff16105b15612cb7576001946036199091019350915050565b8060ff166060108015612ccd575060678160ff16105b15612ce2576001946056199091019350915050565b50600093849350915050565b60606000612cfb83612fbb565b604080516020808252818301909252919250600091906020820181803683375050509182525060208101929092525090565b815115612d3d5781518083602001fd5b8060405162461bcd60e51b815260040161025c9190613240565b825460009081908015612e9d576000612d7587612052600185613a8a565b60408051808201909152905463ffffffff808216808452600160201b9092046001600160e01b031660208401529192509087161015612df65760405162461bcd60e51b815260206004820152601b60248201527f436865636b706f696e743a2064656372656173696e67206b6579730000000000604482015260640161025c565b805163ffffffff808816911603612e3e5784612e1788612052600186613a8a565b80546001600160e01b0392909216600160201b0263ffffffff909216919091179055612e8d565b6040805180820190915263ffffffff80881682526001600160e01b0380881660208085019182528b54600181018d5560008d81529190912094519151909216600160201b029216919091179101555b602001519250839150612ad29050565b50506040805180820190915263ffffffff80851682526001600160e01b0380851660208085019182528854600181018a5560008a815291822095519251909316600160201b029190931617920191909155905081612ad2565b600080608083901c15612f0b57608092831c92015b604083901c15612f1d57604092831c92015b602083901c15612f2f57602092831c92015b601083901c15612f4157601092831c92015b600883901c15612f5357600892831c92015b600483901c15612f6557600492831c92015b600283901c15612f7757600292831c92015b600183901c15610e665760010192915050565b6000818310612f9957816116da565b5090919050565b6000612faf6002848418613dc8565b6116da90848416613af4565b600060ff8216601f811115610e6657604051632cd44ac360e21b815260040160405180910390fd5b600060208284031215612ff557600080fd5b81356001600160e01b0319811681146116da57600080fd5b803560ff8116811461103057600080fd5b60008083601f84011261303057600080fd5b5081356001600160401b0381111561304757600080fd5b60208301915083602082850101111561305f57600080fd5b9250929050565b634e487b7160e01b600052604160045260246000fd5b604051601f8201601f191681016001600160401b03811182821017156130a4576130a4613066565b604052919050565b60006001600160401b038211156130c5576130c5613066565b50601f01601f191660200190565b60006130e66130e1846130ac565b61307c565b90508281528383830111156130fa57600080fd5b828260208301376000602084830101529392505050565b600082601f83011261312257600080fd5b6116da838335602085016130d3565b60008060008060008060008060e0898b03121561314d57600080fd5b8835975061315d60208a0161300d565b965060408901356001600160401b038082111561317957600080fd5b6131858c838d0161301e565b909850965060608b013591508082111561319e57600080fd5b506131ab8b828c01613111565b9450506131ba60808a0161300d565b925060a0890135915060c089013590509295985092959890939650565b6000602082840312156131e957600080fd5b5035919050565b60005b8381101561320b5781810151838201526020016131f3565b50506000910152565b6000815180845261322c8160208601602086016131f0565b601f01601f19169290920160200192915050565b6020815260006116da6020830184613214565b80356001600160a01b038116811461103057600080fd5b6000806000806080858703121561328057600080fd5b61328985613253565b935061329760208601613253565b92506040850135915060608501356001600160401b038111156132b957600080fd5b6132c587828801613111565b91505092959194509250565b60006001600160401b038211156132ea576132ea613066565b5060051b60200190565b600082601f83011261330557600080fd5b813560206133156130e1836132d1565b82815260059290921b8401810191818101908684111561333457600080fd5b8286015b848110156133565761334981613253565b8352918301918301613338565b509695505050505050565b600082601f83011261337257600080fd5b813560206133826130e1836132d1565b82815260059290921b840181019181810190868411156133a157600080fd5b8286015b8481101561335657803583529183019183016133a5565b600082601f8301126133cd57600080fd5b813560206133dd6130e1836132d1565b82815260059290921b840181019181810190868411156133fc57600080fd5b8286015b848110156133565780356001600160401b0381111561341f5760008081fd5b61342d8986838b0101613111565b845250918301918301613400565b6000806000806080858703121561345157600080fd5b84356001600160401b038082111561346857600080fd5b613474888389016132f4565b9550602087013591508082111561348a57600080fd5b61349688838901613361565b945060408701359150808211156134ac57600080fd5b506134b9878288016133bc565b949793965093946060013593505050565b600080600080600060a086880312156134e257600080fd5b853594506134f26020870161300d565b93506135006040870161300d565b94979396509394606081013594506080013592915050565b634e487b7160e01b600052602160045260246000fd5b602081016008831061355057634e487b7160e01b600052602160045260246000fd5b91905290565b6000806040838503121561356957600080fd5b8235915061357960208401613253565b90509250929050565b6000806040838503121561359557600080fd5b823591506135796020840161300d565b6000806000806000608086880312156135bd57600080fd5b853594506135cd6020870161300d565b935060408601356001600160401b03808211156135e957600080fd5b6135f589838a0161301e565b9095509350606088013591508082111561360e57600080fd5b5061361b88828901613111565b9150509295509295909350565b6000806000806060858703121561363e57600080fd5b8435935061364e6020860161300d565b925060408501356001600160401b0381111561366957600080fd5b6136758782880161301e565b95989497509550505050565b6000806000806080858703121561369757600080fd5b84356001600160401b03808211156136ae57600080fd5b6136ba888389016132f4565b955060208701359150808211156136d057600080fd5b6136dc88838901613361565b945060408701359150808211156136f257600080fd5b6136fe888389016133bc565b9350606087013591508082111561371457600080fd5b508501601f8101871361372657600080fd5b6132c5878235602084016130d3565b600081518084526020808501945080840160005b8381101561376557815187529582019590820190600101613749565b509495945050505050565b60ff60f81b8816815260e06020820152600061378f60e0830189613214565b82810360408401526137a18189613214565b606084018890526001600160a01b038716608085015260a0840186905283810360c08501529050610a6d8185613735565b6000806000606084860312156137e757600080fd5b6137f084613253565b92506020840135915060408401356001600160401b0381111561381257600080fd5b61381e86828701613111565b9150509250925092565b600080600080600060a0868803121561384057600080fd5b61384986613253565b945061385760208701613253565b935060408601356001600160401b038082111561387357600080fd5b61387f89838a01613361565b9450606088013591508082111561389557600080fd5b6138a189838a01613361565b9350608088013591508082111561360e57600080fd5b600080600080606085870312156138cd57600080fd5b6138d685613253565b93506020850135925060408501356001600160401b0381111561366957600080fd5b6000806040838503121561390b57600080fd5b61391483613253565b946020939093013593505050565b600080600080600060a0868803121561393a57600080fd5b61394386613253565b945061395160208701613253565b9350604086013592506060860135915060808601356001600160401b0381111561397a57600080fd5b61361b88828901613111565b8183823760009101908152919050565b60208082526018908201527f476f7665726e6f723a206f6e6c79476f7665726e616e63650000000000000000604082015260600190565b600181811c908216806139e157607f821691505b602082108103613a0157634e487b7160e01b600052602260045260246000fd5b50919050565b600060208284031215613a1957600080fd5b81516001600160401b03811115613a2f57600080fd5b8201601f81018413613a4057600080fd5b8051613a4e6130e1826130ac565b818152856020838501011115613a6357600080fd5b611df48260208301602086016131f0565b634e487b7160e01b600052601160045260246000fd5b81810381811115610e6657610e66613a74565b634e487b7160e01b600052603260045260246000fd5b60208082526021908201527f476f7665726e6f723a20696e76616c69642070726f706f73616c206c656e67746040820152600d60fb1b606082015260800190565b80820180821115610e6657610e66613a74565b600081518084526020808501945080840160005b838110156137655781516001600160a01b031687529582019590820190600101613b1b565b600081518084526020808501808196508360051b8101915082860160005b85811015613b88578284038952613b76848351613214565b98850198935090840190600101613b5e565b5091979650505050505050565b60006101208b8352602060018060a01b038c1681850152816040850152613bbe8285018c613b07565b91508382036060850152613bd2828b613735565b915083820360808501528189518084528284019150828160051b850101838c0160005b83811015613c2357601f19878403018552613c11838351613214565b94860194925090850190600101613bf5565b505086810360a0880152613c37818c613b40565b9450505050508560c08401528460e0840152828103610100840152613c5c8185613214565b9c9b505050505050505050505050565b600060208284031215613c7e57600080fd5b815165ffffffffffff811681146116da57600080fd5b608081526000613ca76080830187613b07565b8281036020840152613cb98187613735565b90508281036040840152613ccd8186613b40565b91505082606083015295945050505050565b84815260ff841660208201528260408201526080606082015260006109696080830184613214565b85815260ff8516602082015283604082015260a060608201526000613d2f60a0830185613214565b8281036080840152613d418185613214565b98975050505050505050565b600060018201613d5f57613d5f613a74565b5060010190565b60008251613d788184602087016131f0565b9190910192915050565b600060208284031215613d9457600080fd5b5051919050565b8082028115828204841417610e6657610e66613a74565b634e487b7160e01b600052601260045260246000fd5b600082613de557634e487b7160e01b600052601260045260246000fd5b50049056fe476f7665726e6f723a2072656c617920726576657274656420776974686f7574206d657373616765476f7665726e6f723a2063616c6c20726576657274656420776974686f7574206d657373616765a26469706673582212202c38c8fcd7196a6c083ac0571a4a8b8aa4ea9ced60d5c874a8858047bc71298f64736f6c634300081400330000000000000000000000000e7fbb177cc3366c2f9e60cbfe49c0bc083b80f2",
        "nonce": "0x26e",
        "accessList": []
      },
      "additionalContracts": [],
      "isFixedGasLimit": false
    },
    {
      "hash": "0xf09fe077f07afe420ea56931953db110df2d9a326c0368c674746df2bed39a07",
      "transactionType": "CREATE",
      "contractName": "PMarketplace",
      "contractAddress": "0xc19A9750F408fe2C5A6389de523643f81ac6336C",
      "function": null,
      "arguments": [
        "0x711a51532e2BE8c2D13F0aa704cfd593D7513304"
      ],
      "transaction": {
        "type": "0x02",
        "from": "0x8c4c12e63fcd9a9930c7d305fc87193cf46b5832",
        "gas": "0xf5f7b",
        "value": "0x0",
        "data": "0x60a060405234801561001057600080fd5b50604051610d48380380610d4883398101604081905261002f916100a0565b600160005561003d3361004e565b6001600160a01b03166080526100d0565b600180546001600160a01b038381166001600160a01b0319831681179093556040519116919082907f8be0079c531659141344cd1fd0a4f28419497f9722a3daafe3b4186f6b6457e090600090a35050565b6000602082840312156100b257600080fd5b81516001600160a01b03811681146100c957600080fd5b9392505050565b608051610c3361011560003960008181610178015281816102e00152818161037e0152818161041701528181610496015281816105df01526106ad0152610c336000f3fe6080604052600436106100865760003560e01c80638da5cb5b116100595780638da5cb5b1461011457806394383f1414610146578063d56d229d14610166578063e5afe3e61461019a578063f2fde38b146101d557600080fd5b8063150b7a021461008b5780631d85bf03146100d55780633ccfd60b146100ea578063715018a6146100ff575b600080fd5b34801561009757600080fd5b506100b76100a6366004610a6b565b630a85bd0160e11b95945050505050565b6040516001600160e01b031990911681526020015b60405180910390f35b6100e86100e3366004610b0a565b6101f5565b005b3480156100f657600080fd5b506100e8610567565b34801561010b57600080fd5b506100e86105ab565b34801561012057600080fd5b506001546001600160a01b03165b6040516001600160a01b0390911681526020016100cc565b34801561015257600080fd5b506100e8610161366004610b0a565b6105bf565b34801561017257600080fd5b5061012e7f000000000000000000000000000000000000000000000000000000000000000081565b3480156101a657600080fd5b506101c76101b5366004610b2c565b60026020526000908152604090205481565b6040519081526020016100cc565b3480156101e157600080fd5b506100e86101f0366004610b45565b6107bd565b6101fd610833565b600082815260026020526040902054348111156102575760405162461bcd60e51b8152602060048201526013602482015272139bdd08195b9bdd59da08195d1a081cd95b9d606a1b60448201526064015b60405180910390fd5b8082116102ba5760405162461bcd60e51b815260206004820152602b60248201527f4e6577207072696365206d75737420626520686967686572207468616e20637560448201526a7272656e7420707269636560a81b606482015260840161024e565b600083815260026020526040808220849055516331a9108f60e11b8152600481018590527f00000000000000000000000000000000000000000000000000000000000000006001600160a01b031690636352211e90602401602060405180830381865afa15801561032f573d6000803e3d6000fd5b505050506040513d601f19601f820116820180604052508101906103539190610b69565b60405163152a902d60e11b815260048101869052602481018490529091506000906001600160a01b037f00000000000000000000000000000000000000000000000000000000000000001690632a55205a906044016040805180830381865afa1580156103c4573d6000803e3d6000fd5b505050506040513d601f19601f820116820180604052508101906103e89190610b86565b604051632142170760e11b81526001600160a01b038581166004830152306024830152604482018990529193507f000000000000000000000000000000000000000000000000000000000000000090911691506342842e0e90606401600060405180830381600087803b15801561045e57600080fd5b505af1158015610472573d6000803e3d6000fd5b5050604051632142170760e11b8152306004820152336024820152604481018890527f00000000000000000000000000000000000000000000000000000000000000006001600160a01b031692506342842e0e9150606401600060405180830381600087803b1580156104e457600080fd5b505af11580156104f8573d6000803e3d6000fd5b5050505061051b818461050b9190610bb4565b6001600160a01b0384169061088c565b604080513381526020810185905286917fad546cba5af920bc2c64678bbd69f3d8965ac26d1b82f7ebf6f098aaa8335282910160405180910390a25050506105636001600055565b5050565b61056f6109aa565b6001546040516001600160a01b03909116904780156108fc02916000818181858888f193505050501580156105a8573d6000803e3d6000fd5b50565b6105b36109aa565b6105bd6000610a04565b565b6040516331a9108f60e11b81526004810183905233906001600160a01b037f00000000000000000000000000000000000000000000000000000000000000001690636352211e90602401602060405180830381865afa158015610626573d6000803e3d6000fd5b505050506040513d601f19601f8201168201806040525081019061064a9190610b69565b6001600160a01b0316146106925760405162461bcd60e51b815260206004820152600f60248201526e2737ba103a37b5b2b71037bbb732b960891b604482015260640161024e565b60405163e985e9c560e01b81523360048201523060248201527f00000000000000000000000000000000000000000000000000000000000000006001600160a01b03169063e985e9c590604401602060405180830381865afa1580156106fc573d6000803e3d6000fd5b505050506040513d601f19601f820116820180604052508101906107209190610bdb565b61076c5760405162461bcd60e51b815260206004820152601960248201527f4e6f7420617070726f76656420666f72207472616e7366657200000000000000604482015260640161024e565b600082815260026020526040908190208290555182907fa6cd73580a273eec6c1026108f6b63479fbaef5356dde4ff43e4b38dd187485f906107b19084815260200190565b60405180910390a25050565b6107c56109aa565b6001600160a01b03811661082a5760405162461bcd60e51b815260206004820152602660248201527f4f776e61626c653a206e6577206f776e657220697320746865207a65726f206160448201526564647265737360d01b606482015260840161024e565b6105a881610a04565b6002600054036108855760405162461bcd60e51b815260206004820152601f60248201527f5265656e7472616e637947756172643a207265656e7472616e742063616c6c00604482015260640161024e565b6002600055565b804710156108dc5760405162461bcd60e51b815260206004820152601d60248201527f416464726573733a20696e73756666696369656e742062616c616e6365000000604482015260640161024e565b6000826001600160a01b03168260405160006040518083038185875af1925050503d8060008114610929576040519150601f19603f3d011682016040523d82523d6000602084013e61092e565b606091505b50509050806109a55760405162461bcd60e51b815260206004820152603a60248201527f416464726573733a20756e61626c6520746f2073656e642076616c75652c207260448201527f6563697069656e74206d61792068617665207265766572746564000000000000606482015260840161024e565b505050565b6001546001600160a01b031633146105bd5760405162461bcd60e51b815260206004820181905260248201527f4f776e61626c653a2063616c6c6572206973206e6f7420746865206f776e6572604482015260640161024e565b600180546001600160a01b038381166001600160a01b0319831681179093556040519116919082907f8be0079c531659141344cd1fd0a4f28419497f9722a3daafe3b4186f6b6457e090600090a35050565b6001600160a01b03811681146105a857600080fd5b600080600080600060808688031215610a8357600080fd5b8535610a8e81610a56565b94506020860135610a9e81610a56565b935060408601359250606086013567ffffffffffffffff80821115610ac257600080fd5b818801915088601f830112610ad657600080fd5b813581811115610ae557600080fd5b896020828501011115610af757600080fd5b9699959850939650602001949392505050565b60008060408385031215610b1d57600080fd5b50508035926020909101359150565b600060208284031215610b3e57600080fd5b5035919050565b600060208284031215610b5757600080fd5b8135610b6281610a56565b9392505050565b600060208284031215610b7b57600080fd5b8151610b6281610a56565b60008060408385031215610b9957600080fd5b8251610ba481610a56565b6020939093015192949293505050565b81810381811115610bd557634e487b7160e01b600052601160045260246000fd5b92915050565b600060208284031215610bed57600080fd5b81518015158114610b6257600080fdfea2646970667358221220e9bbcebf2552be11ea3a5402b1dff06d1615f3253cdaddde94d0f76d9e66839d64736f6c63430008140033000000000000000000000000711a51532e2be8c2d13f0aa704cfd593d7513304",
        "nonce": "0x26f",
        "accessList": []
      },
      "additionalContracts": [],
      "isFixedGasLimit": false
    },
    {
      "hash": "0x56e22a79711e2f6a349327477b42839748ade6df933b928156d271d5c17f34eb",
      "transactionType": "CALL",
      "contractName": "PNFT",
      "contractAddress": "0x711a51532e2BE8c2D13F0aa704cfd593D7513304",
      "function": "setApprovalForAll(address,bool)",
      "arguments": [
        "0xc19A9750F408fe2C5A6389de523643f81ac6336C",
        "true"
      ],
      "transaction": {
        "type": "0x02",
        "from": "0x8c4c12e63fcd9a9930c7d305fc87193cf46b5832",
        "to": "0x711a51532e2be8c2d13f0aa704cfd593d7513304",
        "gas": "0x1084f",
        "value": "0x0",
        "data": "0xa22cb465000000000000000000000000c19a9750f408fe2c5a6389de523643f81ac6336c0000000000000000000000000000000000000000000000000000000000000001",
        "nonce": "0x270",
        "accessList": []
      },
      "additionalContracts": [],
      "isFixedGasLimit": false
    }
  ],
  "receipts": [
    {
      "transactionHash": "0xf378fbde4f2fba1b53400f90cd9ab66049938b6e104042fd0f0dbbd49a1d8d0d",
      "transactionIndex": "0x2",
      "blockHash": "0xb25282e115bcbd9973e5796663aecef40a2d439d69d9cfab596cb105d5bff29a",
      "blockNumber": "0x3c6ab9",
      "from": "0x8c4c12E63FCd9A9930C7d305Fc87193cF46B5832",
      "to": null,
      "cumulativeGasUsed": "0x30d92d",
      "gasUsed": "0x2b15b8",
      "contractAddress": "0x711a51532e2BE8c2D13F0aa704cfd593D7513304",
      "logs": [
        {
          "address": "0x711a51532e2BE8c2D13F0aa704cfd593D7513304",
          "topics": [
            "0x8be0079c531659141344cd1fd0a4f28419497f9722a3daafe3b4186f6b6457e0",
            "0x0000000000000000000000000000000000000000000000000000000000000000",
            "0x0000000000000000000000008c4c12e63fcd9a9930c7d305fc87193cf46b5832"
          ],
          "data": "0x",
          "blockHash": "0xb25282e115bcbd9973e5796663aecef40a2d439d69d9cfab596cb105d5bff29a",
          "blockNumber": "0x3c6ab9",
          "transactionHash": "0xf378fbde4f2fba1b53400f90cd9ab66049938b6e104042fd0f0dbbd49a1d8d0d",
          "transactionIndex": "0x2",
          "logIndex": "0x3",
          "removed": false
        }
      ],
      "status": "0x1",
      "logsBloom": "0x00000000020000000000000000000000000000000000000000800000000000000000000000000000000000000000000000000000000000000000000000000000000000000000000000000000000040004001000000000000000000000000080000000000020000000000000000100800000000000000000000000000000000400000000000000000000000000000000000000000000000000000000000000000000000000000000000000000000000000000000000000000000000000000000000000000000000000000000000000000000000000000000000000000000020000000000000000000000000000002000000000000000000000000000000000000",
      "type": "0x2",
      "effectiveGasPrice": "0xb2d05e0f"
    },
    {
      "transactionHash": "0xbd69fc6fcf172018325c7c5f899425784616fdec36d16f9318d107fe27426048",
      "transactionIndex": "0x3",
      "blockHash": "0xb25282e115bcbd9973e5796663aecef40a2d439d69d9cfab596cb105d5bff29a",
      "blockNumber": "0x3c6ab9",
      "from": "0x8c4c12E63FCd9A9930C7d305Fc87193cF46B5832",
      "to": "0x711a51532e2BE8c2D13F0aa704cfd593D7513304",
      "cumulativeGasUsed": "0x3197cd",
      "gasUsed": "0xbea0",
      "contractAddress": null,
      "logs": [
        {
          "address": "0x711a51532e2BE8c2D13F0aa704cfd593D7513304",
          "topics": [
            "0x90a456c57871417b2930ed93a1cd64ff03a49414a743796acdfd7912a869889f"
          ],
          "data": "0x0000000000000000000000000000000000000000000000000000000000000020000000000000000000000000000000000000000000000000000000000000000d47617272792047656e736c657900000000000000000000000000000000000000",
          "blockHash": "0xb25282e115bcbd9973e5796663aecef40a2d439d69d9cfab596cb105d5bff29a",
          "blockNumber": "0x3c6ab9",
          "transactionHash": "0xbd69fc6fcf172018325c7c5f899425784616fdec36d16f9318d107fe27426048",
          "transactionIndex": "0x3",
          "logIndex": "0x4",
          "removed": false
        }
      ],
      "status": "0x1",
      "logsBloom": "0x00004000020000000000000000000000000000000000000000000000000000000000000000000000000000000000000000000000800000000000000000000000000000000000000000000000000000000000000000000000000000000000080000000000000000000000080000100000000000000000000000000000000000000000000000000000000000000000000000000000000000000000000000000000000000000000000000000000000000000000000000000000000000000000000000000000000000000000000000000000000000000000000000000000000000000000000000000000000000000000000000000000000000000000000000000000",
      "type": "0x2",
      "effectiveGasPrice": "0xb2d05e0f"
    },
    {
      "transactionHash": "0xea2f8fd7c093ba39ca66c696ff4e3c6ce5fb5bbbafbb1a66cd32b730ffce004e",
      "transactionIndex": "0x4",
      "blockHash": "0xb25282e115bcbd9973e5796663aecef40a2d439d69d9cfab596cb105d5bff29a",
      "blockNumber": "0x3c6ab9",
      "from": "0x8c4c12E63FCd9A9930C7d305Fc87193cF46B5832",
      "to": "0x711a51532e2BE8c2D13F0aa704cfd593D7513304",
      "cumulativeGasUsed": "0x34949c",
      "gasUsed": "0x2fccf",
      "contractAddress": null,
      "logs": [
        {
          "address": "0x711a51532e2BE8c2D13F0aa704cfd593D7513304",
          "topics": [
            "0xddf252ad1be2c89b69c2b068fc378daa952ba7f163c4a11628f55a4df523b3ef",
            "0x0000000000000000000000000000000000000000000000000000000000000000",
            "0x0000000000000000000000008c4c12e63fcd9a9930c7d305fc87193cf46b5832",
            "0x0000000000000000000000000000000000000000000000000000000000000000"
          ],
          "data": "0x",
          "blockHash": "0xb25282e115bcbd9973e5796663aecef40a2d439d69d9cfab596cb105d5bff29a",
          "blockNumber": "0x3c6ab9",
          "transactionHash": "0xea2f8fd7c093ba39ca66c696ff4e3c6ce5fb5bbbafbb1a66cd32b730ffce004e",
          "transactionIndex": "0x4",
          "logIndex": "0x5",
          "removed": false
        },
        {
          "address": "0x711a51532e2BE8c2D13F0aa704cfd593D7513304",
          "topics": [
            "0x845020906442ad0651b44a75d9767153912bfa586416784cf8ead41b37b1dbf5",
            "0x30aa9bb59f2ead850a1ffcc5fb368031d56b350d669f049a8ca8dcf674fb0c19"
          ],
          "data": "0x",
          "blockHash": "0xb25282e115bcbd9973e5796663aecef40a2d439d69d9cfab596cb105d5bff29a",
          "blockNumber": "0x3c6ab9",
          "transactionHash": "0xea2f8fd7c093ba39ca66c696ff4e3c6ce5fb5bbbafbb1a66cd32b730ffce004e",
          "transactionIndex": "0x4",
          "logIndex": "0x6",
          "removed": false
        }
      ],
      "status": "0x1",
      "logsBloom": "0x00000000020000000000002000000000000000000000000000000000000000000000000000000000000000000000000000000000000000000000000000000000000000000000000000000008000040004000000000000000000000000000080000000000020000000000000000100800000000000000000400000010000000000000000000000000000000000000000000000000000000000000000000000400000000000000000000000000000000040000000000000000000000000000000000000002000000000000004000000000000000000000000000000000000020000400000000000000000000000002000000000000000000000000000000000000",
      "type": "0x2",
      "effectiveGasPrice": "0xb2d05e0f"
    },
    {
      "transactionHash": "0x20869a9d54f03c887d59dc8c893c64e2216fbdbcafffa655033393ff6bff00fe",
      "transactionIndex": "0x5",
      "blockHash": "0xb25282e115bcbd9973e5796663aecef40a2d439d69d9cfab596cb105d5bff29a",
      "blockNumber": "0x3c6ab9",
      "from": "0x8c4c12E63FCd9A9930C7d305Fc87193cF46B5832",
      "to": "0x711a51532e2BE8c2D13F0aa704cfd593D7513304",
      "cumulativeGasUsed": "0x36a8d5",
      "gasUsed": "0x21439",
      "contractAddress": null,
      "logs": [
        {
          "address": "0x711a51532e2BE8c2D13F0aa704cfd593D7513304",
          "topics": [
            "0xce244affe047c96a0ad176b7e35e054912ccf455964e9b602475cae89a53d6f0",
            "0x0000000000000000000000000000000000000000000000000000000000000000"
          ],
          "data": "0x000000000000000000000000000000000000000000000000000000000000006000000000000000000000000000000000000000000000000000000000000000a000000000000000000000000000000000000000000000000000000000000000c00000000000000000000000000000000000000000000000000000000000000005696d61676500000000000000000000000000000000000000000000000000000000000000000000000000000000000000000000000000000000000000000000000000000000000000000000000000000000000000000000000000000000000035697066733a2f2f516d6247696a763373443935764b504647414c386e41656f377142317a53657450327a52665973545742594369470000000000000000000000",
          "blockHash": "0xb25282e115bcbd9973e5796663aecef40a2d439d69d9cfab596cb105d5bff29a",
          "blockNumber": "0x3c6ab9",
          "transactionHash": "0x20869a9d54f03c887d59dc8c893c64e2216fbdbcafffa655033393ff6bff00fe",
          "transactionIndex": "0x5",
          "logIndex": "0x7",
          "removed": false
        }
      ],
      "status": "0x1",
      "logsBloom": "0x00000000020000000000000000000000000000000000000000002000000000000000000000000000000000000000000000000000000000000000000000000000000000000000000000000000000000000000000000000000000000000000080000200000020000000000000000100800000000000000080000000000000000000000000000000000000000000000000000000000000000000000000000000000000000000000000000000000000000000000000000000000000000000000000000000000000000000000000000000000000000000000000000000000000020000000000000000000000000000000000000000000000000000000000000000000",
      "type": "0x2",
      "effectiveGasPrice": "0xb2d05e0f"
    },
    {
      "transactionHash": "0xc1ca85768d2f717b05b5b5b1c81982ec703cd6b30203b68a93531f70428fe1c3",
      "transactionIndex": "0x6",
      "blockHash": "0xb25282e115bcbd9973e5796663aecef40a2d439d69d9cfab596cb105d5bff29a",
      "blockNumber": "0x3c6ab9",
      "from": "0x8c4c12E63FCd9A9930C7d305Fc87193cF46B5832",
      "to": "0x711a51532e2BE8c2D13F0aa704cfd593D7513304",
      "cumulativeGasUsed": "0x38c923",
      "gasUsed": "0x2204e",
      "contractAddress": null,
      "logs": [
        {
          "address": "0x711a51532e2BE8c2D13F0aa704cfd593D7513304",
          "topics": [
            "0xce244affe047c96a0ad176b7e35e054912ccf455964e9b602475cae89a53d6f0",
            "0x0000000000000000000000000000000000000000000000000000000000000000"
          ],
          "data": "0x000000000000000000000000000000000000000000000000000000000000006000000000000000000000000000000000000000000000000000000000000000a000000000000000000000000000000000000000000000000000000000000000c00000000000000000000000000000000000000000000000000000000000000006696d61676530000000000000000000000000000000000000000000000000000000000000000000000000000000000000000000000000000000000000000000000000000000000000000000000000000000000000000000000000000000000035697066733a2f2f516d6247696a763373443935764b504647414c386e41656f377142317a53657450327a52665973545742594369470000000000000000000000",
          "blockHash": "0xb25282e115bcbd9973e5796663aecef40a2d439d69d9cfab596cb105d5bff29a",
          "blockNumber": "0x3c6ab9",
          "transactionHash": "0xc1ca85768d2f717b05b5b5b1c81982ec703cd6b30203b68a93531f70428fe1c3",
          "transactionIndex": "0x6",
          "logIndex": "0x8",
          "removed": false
        }
      ],
      "status": "0x1",
      "logsBloom": "0x00000000020000000000000000000000000000000000000000002000000000000000000000000000000000000000000000000000000000000000000000000000000000000000000000000000000000000000000000000000000000000000080000200000020000000000000000100800000000000000080000000000000000000000000000000000000000000000000000000000000000000000000000000000000000000000000000000000000000000000000000000000000000000000000000000000000000000000000000000000000000000000000000000000000020000000000000000000000000000000000000000000000000000000000000000000",
      "type": "0x2",
      "effectiveGasPrice": "0xb2d05e0f"
    },
    {
      "transactionHash": "0xc921024bac6d008e3df49afcae67289a45a6bd419af34860769cba953affd6c9",
      "transactionIndex": "0x7",
      "blockHash": "0xb25282e115bcbd9973e5796663aecef40a2d439d69d9cfab596cb105d5bff29a",
      "blockNumber": "0x3c6ab9",
      "from": "0x8c4c12E63FCd9A9930C7d305Fc87193cF46B5832",
      "to": "0x711a51532e2BE8c2D13F0aa704cfd593D7513304",
      "cumulativeGasUsed": "0x3af57a",
      "gasUsed": "0x22c57",
      "contractAddress": null,
      "logs": [
        {
          "address": "0x711a51532e2BE8c2D13F0aa704cfd593D7513304",
          "topics": [
            "0xce244affe047c96a0ad176b7e35e054912ccf455964e9b602475cae89a53d6f0",
            "0x0000000000000000000000000000000000000000000000000000000000000000"
          ],
          "data": "0x000000000000000000000000000000000000000000000000000000000000006000000000000000000000000000000000000000000000000000000000000000a000000000000000000000000000000000000000000000000000000000000000c00000000000000000000000000000000000000000000000000000000000000006696d61676531000000000000000000000000000000000000000000000000000000000000000000000000000000000000000000000000000000000000000000000000000000000000000000000000000000000000000000000000000000000035697066733a2f2f516d534a4457524861624639536461536b735853535a4c3167334e36377131735265737463566a436b766b4e76500000000000000000000000",
          "blockHash": "0xb25282e115bcbd9973e5796663aecef40a2d439d69d9cfab596cb105d5bff29a",
          "blockNumber": "0x3c6ab9",
          "transactionHash": "0xc921024bac6d008e3df49afcae67289a45a6bd419af34860769cba953affd6c9",
          "transactionIndex": "0x7",
          "logIndex": "0x9",
          "removed": false
        }
      ],
      "status": "0x1",
      "logsBloom": "0x00000000020000000000000000000000000000000000000000002000000000000000000000000000000000000000000000000000000000000000000000000000000000000000000000000000000000000000000000000000000000000000080000200000020000000000000000100800000000000000080000000000000000000000000000000000000000000000000000000000000000000000000000000000000000000000000000000000000000000000000000000000000000000000000000000000000000000000000000000000000000000000000000000000000020000000000000000000000000000000000000000000000000000000000000000000",
      "type": "0x2",
      "effectiveGasPrice": "0xb2d05e0f"
    },
    {
      "transactionHash": "0x045de54061ddee48abba0bb044a8ed928755d93289163d1b6d8c6e99c32755f7",
      "transactionIndex": "0x8",
      "blockHash": "0xb25282e115bcbd9973e5796663aecef40a2d439d69d9cfab596cb105d5bff29a",
      "blockNumber": "0x3c6ab9",
      "from": "0x8c4c12E63FCd9A9930C7d305Fc87193cF46B5832",
      "to": "0x711a51532e2BE8c2D13F0aa704cfd593D7513304",
      "cumulativeGasUsed": "0x3d2dda",
      "gasUsed": "0x23860",
      "contractAddress": null,
      "logs": [
        {
          "address": "0x711a51532e2BE8c2D13F0aa704cfd593D7513304",
          "topics": [
            "0xce244affe047c96a0ad176b7e35e054912ccf455964e9b602475cae89a53d6f0",
            "0x0000000000000000000000000000000000000000000000000000000000000000"
          ],
          "data": "0x000000000000000000000000000000000000000000000000000000000000006000000000000000000000000000000000000000000000000000000000000000a000000000000000000000000000000000000000000000000000000000000000c00000000000000000000000000000000000000000000000000000000000000006696d61676532000000000000000000000000000000000000000000000000000000000000000000000000000000000000000000000000000000000000000000000000000000000000000000000000000000000000000000000000000000000035697066733a2f2f516d4e74727039504177743858506362577a79423733587155377864514d6f6141337a7461467743536d6b7478560000000000000000000000",
          "blockHash": "0xb25282e115bcbd9973e5796663aecef40a2d439d69d9cfab596cb105d5bff29a",
          "blockNumber": "0x3c6ab9",
          "transactionHash": "0x045de54061ddee48abba0bb044a8ed928755d93289163d1b6d8c6e99c32755f7",
          "transactionIndex": "0x8",
          "logIndex": "0xa",
          "removed": false
        }
      ],
      "status": "0x1",
      "logsBloom": "0x00000000020000000000000000000000000000000000000000002000000000000000000000000000000000000000000000000000000000000000000000000000000000000000000000000000000000000000000000000000000000000000080000200000020000000000000000100800000000000000080000000000000000000000000000000000000000000000000000000000000000000000000000000000000000000000000000000000000000000000000000000000000000000000000000000000000000000000000000000000000000000000000000000000000020000000000000000000000000000000000000000000000000000000000000000000",
      "type": "0x2",
      "effectiveGasPrice": "0xb2d05e0f"
    },
    {
      "transactionHash": "0x951735783aa44163ac1d0fcf6cbd26a40ed0be883c066ed3523153c76b5e98fd",
      "transactionIndex": "0x9",
      "blockHash": "0xb25282e115bcbd9973e5796663aecef40a2d439d69d9cfab596cb105d5bff29a",
      "blockNumber": "0x3c6ab9",
      "from": "0x8c4c12E63FCd9A9930C7d305Fc87193cF46B5832",
      "to": "0x711a51532e2BE8c2D13F0aa704cfd593D7513304",
      "cumulativeGasUsed": "0x3f7244",
      "gasUsed": "0x2446a",
      "contractAddress": null,
      "logs": [
        {
          "address": "0x711a51532e2BE8c2D13F0aa704cfd593D7513304",
          "topics": [
            "0xce244affe047c96a0ad176b7e35e054912ccf455964e9b602475cae89a53d6f0",
            "0x0000000000000000000000000000000000000000000000000000000000000000"
          ],
          "data": "0x000000000000000000000000000000000000000000000000000000000000006000000000000000000000000000000000000000000000000000000000000000a000000000000000000000000000000000000000000000000000000000000000c00000000000000000000000000000000000000000000000000000000000000006696d61676533000000000000000000000000000000000000000000000000000000000000000000000000000000000000000000000000000000000000000000000000000000000000000000000000000000000000000000000000000000000035697066733a2f2f516d5852464c63626f6247317871666b7a6d4879517645486e393655347070724d42694768446467547175734e520000000000000000000000",
          "blockHash": "0xb25282e115bcbd9973e5796663aecef40a2d439d69d9cfab596cb105d5bff29a",
          "blockNumber": "0x3c6ab9",
          "transactionHash": "0x951735783aa44163ac1d0fcf6cbd26a40ed0be883c066ed3523153c76b5e98fd",
          "transactionIndex": "0x9",
          "logIndex": "0xb",
          "removed": false
        }
      ],
      "status": "0x1",
      "logsBloom": "0x00000000020000000000000000000000000000000000000000002000000000000000000000000000000000000000000000000000000000000000000000000000000000000000000000000000000000000000000000000000000000000000080000200000020000000000000000100800000000000000080000000000000000000000000000000000000000000000000000000000000000000000000000000000000000000000000000000000000000000000000000000000000000000000000000000000000000000000000000000000000000000000000000000000000020000000000000000000000000000000000000000000000000000000000000000000",
      "type": "0x2",
      "effectiveGasPrice": "0xb2d05e0f"
    },
    {
      "transactionHash": "0xcd3b690f71ab1e597da0111cbe72a19a4bb8261d6be5f47b158119f401487bc9",
      "transactionIndex": "0xa",
      "blockHash": "0xb25282e115bcbd9973e5796663aecef40a2d439d69d9cfab596cb105d5bff29a",
      "blockNumber": "0x3c6ab9",
      "from": "0x8c4c12E63FCd9A9930C7d305Fc87193cF46B5832",
      "to": "0x711a51532e2BE8c2D13F0aa704cfd593D7513304",
      "cumulativeGasUsed": "0x41c2ba",
      "gasUsed": "0x25076",
      "contractAddress": null,
      "logs": [
        {
          "address": "0x711a51532e2BE8c2D13F0aa704cfd593D7513304",
          "topics": [
            "0xce244affe047c96a0ad176b7e35e054912ccf455964e9b602475cae89a53d6f0",
            "0x0000000000000000000000000000000000000000000000000000000000000000"
          ],
          "data": "0x000000000000000000000000000000000000000000000000000000000000006000000000000000000000000000000000000000000000000000000000000000a000000000000000000000000000000000000000000000000000000000000000c00000000000000000000000000000000000000000000000000000000000000006696d61676534000000000000000000000000000000000000000000000000000000000000000000000000000000000000000000000000000000000000000000000000000000000000000000000000000000000000000000000000000000000035697066733a2f2f516d6462547554426369626b434c6e37535466467158524339374d746a3641577865756e784647326e45643270540000000000000000000000",
          "blockHash": "0xb25282e115bcbd9973e5796663aecef40a2d439d69d9cfab596cb105d5bff29a",
          "blockNumber": "0x3c6ab9",
          "transactionHash": "0xcd3b690f71ab1e597da0111cbe72a19a4bb8261d6be5f47b158119f401487bc9",
          "transactionIndex": "0xa",
          "logIndex": "0xc",
          "removed": false
        }
      ],
      "status": "0x1",
      "logsBloom": "0x00000000020000000000000000000000000000000000000000002000000000000000000000000000000000000000000000000000000000000000000000000000000000000000000000000000000000000000000000000000000000000000080000200000020000000000000000100800000000000000080000000000000000000000000000000000000000000000000000000000000000000000000000000000000000000000000000000000000000000000000000000000000000000000000000000000000000000000000000000000000000000000000000000000000020000000000000000000000000000000000000000000000000000000000000000000",
      "type": "0x2",
      "effectiveGasPrice": "0xb2d05e0f"
    },
    {
      "transactionHash": "0x499f685fda122b2ce366f7424a21c887934e70b0bdcf2acf084844c5535557b7",
      "transactionIndex": "0xb",
      "blockHash": "0xb25282e115bcbd9973e5796663aecef40a2d439d69d9cfab596cb105d5bff29a",
      "blockNumber": "0x3c6ab9",
      "from": "0x8c4c12E63FCd9A9930C7d305Fc87193cF46B5832",
      "to": "0x711a51532e2BE8c2D13F0aa704cfd593D7513304",
      "cumulativeGasUsed": "0x441f39",
      "gasUsed": "0x25c7f",
      "contractAddress": null,
      "logs": [
        {
          "address": "0x711a51532e2BE8c2D13F0aa704cfd593D7513304",
          "topics": [
            "0xce244affe047c96a0ad176b7e35e054912ccf455964e9b602475cae89a53d6f0",
            "0x0000000000000000000000000000000000000000000000000000000000000000"
          ],
          "data": "0x000000000000000000000000000000000000000000000000000000000000006000000000000000000000000000000000000000000000000000000000000000a000000000000000000000000000000000000000000000000000000000000000c00000000000000000000000000000000000000000000000000000000000000006696d61676535000000000000000000000000000000000000000000000000000000000000000000000000000000000000000000000000000000000000000000000000000000000000000000000000000000000000000000000000000000000035697066733a2f2f516d567379395355394338696d65447046327670374861795359454d695a7a766b6e5a6550344a61366f564654720000000000000000000000",
          "blockHash": "0xb25282e115bcbd9973e5796663aecef40a2d439d69d9cfab596cb105d5bff29a",
          "blockNumber": "0x3c6ab9",
          "transactionHash": "0x499f685fda122b2ce366f7424a21c887934e70b0bdcf2acf084844c5535557b7",
          "transactionIndex": "0xb",
          "logIndex": "0xd",
          "removed": false
        }
      ],
      "status": "0x1",
      "logsBloom": "0x00000000020000000000000000000000000000000000000000002000000000000000000000000000000000000000000000000000000000000000000000000000000000000000000000000000000000000000000000000000000000000000080000200000020000000000000000100800000000000000080000000000000000000000000000000000000000000000000000000000000000000000000000000000000000000000000000000000000000000000000000000000000000000000000000000000000000000000000000000000000000000000000000000000000020000000000000000000000000000000000000000000000000000000000000000000",
      "type": "0x2",
      "effectiveGasPrice": "0xb2d05e0f"
    },
    {
      "transactionHash": "0xaf259170912445c924acf5494bfb9ba61994b3e95189a912c3b402116282ae96",
      "transactionIndex": "0xc",
      "blockHash": "0xb25282e115bcbd9973e5796663aecef40a2d439d69d9cfab596cb105d5bff29a",
      "blockNumber": "0x3c6ab9",
      "from": "0x8c4c12E63FCd9A9930C7d305Fc87193cF46B5832",
      "to": "0x711a51532e2BE8c2D13F0aa704cfd593D7513304",
      "cumulativeGasUsed": "0x4687c1",
      "gasUsed": "0x26888",
      "contractAddress": null,
      "logs": [
        {
          "address": "0x711a51532e2BE8c2D13F0aa704cfd593D7513304",
          "topics": [
            "0xce244affe047c96a0ad176b7e35e054912ccf455964e9b602475cae89a53d6f0",
            "0x0000000000000000000000000000000000000000000000000000000000000000"
          ],
          "data": "0x000000000000000000000000000000000000000000000000000000000000006000000000000000000000000000000000000000000000000000000000000000a000000000000000000000000000000000000000000000000000000000000000c00000000000000000000000000000000000000000000000000000000000000006696d61676536000000000000000000000000000000000000000000000000000000000000000000000000000000000000000000000000000000000000000000000000000000000000000000000000000000000000000000000000000000000035697066733a2f2f516d564a72555a37625756706b5a59764e5751764e4a555850746e44696f485248755848484c6f527272386167340000000000000000000000",
          "blockHash": "0xb25282e115bcbd9973e5796663aecef40a2d439d69d9cfab596cb105d5bff29a",
          "blockNumber": "0x3c6ab9",
          "transactionHash": "0xaf259170912445c924acf5494bfb9ba61994b3e95189a912c3b402116282ae96",
          "transactionIndex": "0xc",
          "logIndex": "0xe",
          "removed": false
        }
      ],
      "status": "0x1",
      "logsBloom": "0x00000000020000000000000000000000000000000000000000002000000000000000000000000000000000000000000000000000000000000000000000000000000000000000000000000000000000000000000000000000000000000000080000200000020000000000000000100800000000000000080000000000000000000000000000000000000000000000000000000000000000000000000000000000000000000000000000000000000000000000000000000000000000000000000000000000000000000000000000000000000000000000000000000000000020000000000000000000000000000000000000000000000000000000000000000000",
      "type": "0x2",
      "effectiveGasPrice": "0xb2d05e0f"
    },
    {
      "transactionHash": "0xdbb4ca5afb005ac1f116e1cfd1465b5c39e3d42f2714479090ca836c96cdd947",
      "transactionIndex": "0xd",
      "blockHash": "0xb25282e115bcbd9973e5796663aecef40a2d439d69d9cfab596cb105d5bff29a",
      "blockNumber": "0x3c6ab9",
      "from": "0x8c4c12E63FCd9A9930C7d305Fc87193cF46B5832",
      "to": "0x711a51532e2BE8c2D13F0aa704cfd593D7513304",
      "cumulativeGasUsed": "0x48fc52",
      "gasUsed": "0x27491",
      "contractAddress": null,
      "logs": [
        {
          "address": "0x711a51532e2BE8c2D13F0aa704cfd593D7513304",
          "topics": [
            "0xce244affe047c96a0ad176b7e35e054912ccf455964e9b602475cae89a53d6f0",
            "0x0000000000000000000000000000000000000000000000000000000000000000"
          ],
          "data": "0x000000000000000000000000000000000000000000000000000000000000006000000000000000000000000000000000000000000000000000000000000000a000000000000000000000000000000000000000000000000000000000000000c00000000000000000000000000000000000000000000000000000000000000006696d61676537000000000000000000000000000000000000000000000000000000000000000000000000000000000000000000000000000000000000000000000000000000000000000000000000000000000000000000000000000000000035697066733a2f2f516d52424842617159555245325a324a6436735675694437345948396865686d787a586d515456573572657947480000000000000000000000",
          "blockHash": "0xb25282e115bcbd9973e5796663aecef40a2d439d69d9cfab596cb105d5bff29a",
          "blockNumber": "0x3c6ab9",
          "transactionHash": "0xdbb4ca5afb005ac1f116e1cfd1465b5c39e3d42f2714479090ca836c96cdd947",
          "transactionIndex": "0xd",
          "logIndex": "0xf",
          "removed": false
        }
      ],
      "status": "0x1",
      "logsBloom": "0x00000000020000000000000000000000000000000000000000002000000000000000000000000000000000000000000000000000000000000000000000000000000000000000000000000000000000000000000000000000000000000000080000200000020000000000000000100800000000000000080000000000000000000000000000000000000000000000000000000000000000000000000000000000000000000000000000000000000000000000000000000000000000000000000000000000000000000000000000000000000000000000000000000000000020000000000000000000000000000000000000000000000000000000000000000000",
      "type": "0x2",
      "effectiveGasPrice": "0xb2d05e0f"
    },
    {
      "transactionHash": "0xb1fe9d8f17c3ad3943a049d056d99b99c6d18901a4e2cd5d1e152228d6f6c23b",
      "transactionIndex": "0xe",
      "blockHash": "0xb25282e115bcbd9973e5796663aecef40a2d439d69d9cfab596cb105d5bff29a",
      "blockNumber": "0x3c6ab9",
      "from": "0x8c4c12E63FCd9A9930C7d305Fc87193cF46B5832",
      "to": "0x711a51532e2BE8c2D13F0aa704cfd593D7513304",
      "cumulativeGasUsed": "0x4b7cec",
      "gasUsed": "0x2809a",
      "contractAddress": null,
      "logs": [
        {
          "address": "0x711a51532e2BE8c2D13F0aa704cfd593D7513304",
          "topics": [
            "0xce244affe047c96a0ad176b7e35e054912ccf455964e9b602475cae89a53d6f0",
            "0x0000000000000000000000000000000000000000000000000000000000000000"
          ],
          "data": "0x000000000000000000000000000000000000000000000000000000000000006000000000000000000000000000000000000000000000000000000000000000a000000000000000000000000000000000000000000000000000000000000000c00000000000000000000000000000000000000000000000000000000000000006696d61676538000000000000000000000000000000000000000000000000000000000000000000000000000000000000000000000000000000000000000000000000000000000000000000000000000000000000000000000000000000000035697066733a2f2f516d4e596e5170383937546168774a706d74776f32624e6f5944324d646167773947546f4b65315a7239754c38710000000000000000000000",
          "blockHash": "0xb25282e115bcbd9973e5796663aecef40a2d439d69d9cfab596cb105d5bff29a",
          "blockNumber": "0x3c6ab9",
          "transactionHash": "0xb1fe9d8f17c3ad3943a049d056d99b99c6d18901a4e2cd5d1e152228d6f6c23b",
          "transactionIndex": "0xe",
          "logIndex": "0x10",
          "removed": false
        }
      ],
      "status": "0x1",
      "logsBloom": "0x00000000020000000000000000000000000000000000000000002000000000000000000000000000000000000000000000000000000000000000000000000000000000000000000000000000000000000000000000000000000000000000080000200000020000000000000000100800000000000000080000000000000000000000000000000000000000000000000000000000000000000000000000000000000000000000000000000000000000000000000000000000000000000000000000000000000000000000000000000000000000000000000000000000000020000000000000000000000000000000000000000000000000000000000000000000",
      "type": "0x2",
      "effectiveGasPrice": "0xb2d05e0f"
    },
    {
      "transactionHash": "0xe00b84f6c21538a3169c2771f84ca8e83f6bce8c66269c0901a404170eb4b785",
      "transactionIndex": "0xf",
      "blockHash": "0xb25282e115bcbd9973e5796663aecef40a2d439d69d9cfab596cb105d5bff29a",
      "blockNumber": "0x3c6ab9",
      "from": "0x8c4c12E63FCd9A9930C7d305Fc87193cF46B5832",
      "to": "0x711a51532e2BE8c2D13F0aa704cfd593D7513304",
      "cumulativeGasUsed": "0x4e098f",
      "gasUsed": "0x28ca3",
      "contractAddress": null,
      "logs": [
        {
          "address": "0x711a51532e2BE8c2D13F0aa704cfd593D7513304",
          "topics": [
            "0xce244affe047c96a0ad176b7e35e054912ccf455964e9b602475cae89a53d6f0",
            "0x0000000000000000000000000000000000000000000000000000000000000000"
          ],
          "data": "0x000000000000000000000000000000000000000000000000000000000000006000000000000000000000000000000000000000000000000000000000000000a000000000000000000000000000000000000000000000000000000000000000c00000000000000000000000000000000000000000000000000000000000000006696d61676539000000000000000000000000000000000000000000000000000000000000000000000000000000000000000000000000000000000000000000000000000000000000000000000000000000000000000000000000000000000035697066733a2f2f516d505159344433714e5855796978714c314d7671336d38433754627269614b4d425376645347687a75435345500000000000000000000000",
          "blockHash": "0xb25282e115bcbd9973e5796663aecef40a2d439d69d9cfab596cb105d5bff29a",
          "blockNumber": "0x3c6ab9",
          "transactionHash": "0xe00b84f6c21538a3169c2771f84ca8e83f6bce8c66269c0901a404170eb4b785",
          "transactionIndex": "0xf",
          "logIndex": "0x11",
          "removed": false
        }
      ],
      "status": "0x1",
      "logsBloom": "0x00000000020000000000000000000000000000000000000000002000000000000000000000000000000000000000000000000000000000000000000000000000000000000000000000000000000000000000000000000000000000000000080000200000020000000000000000100800000000000000080000000000000000000000000000000000000000000000000000000000000000000000000000000000000000000000000000000000000000000000000000000000000000000000000000000000000000000000000000000000000000000000000000000000000020000000000000000000000000000000000000000000000000000000000000000000",
      "type": "0x2",
      "effectiveGasPrice": "0xb2d05e0f"
    },
    {
      "transactionHash": "0x893a2e32fde677929654028eee6216b557b51592812982a878b2c573dc77c611",
      "transactionIndex": "0x10",
      "blockHash": "0xb25282e115bcbd9973e5796663aecef40a2d439d69d9cfab596cb105d5bff29a",
      "blockNumber": "0x3c6ab9",
      "from": "0x8c4c12E63FCd9A9930C7d305Fc87193cF46B5832",
      "to": "0x711a51532e2BE8c2D13F0aa704cfd593D7513304",
      "cumulativeGasUsed": "0x50a24b",
      "gasUsed": "0x298bc",
      "contractAddress": null,
      "logs": [
        {
          "address": "0x711a51532e2BE8c2D13F0aa704cfd593D7513304",
          "topics": [
            "0xce244affe047c96a0ad176b7e35e054912ccf455964e9b602475cae89a53d6f0",
            "0x0000000000000000000000000000000000000000000000000000000000000000"
          ],
          "data": "0x000000000000000000000000000000000000000000000000000000000000006000000000000000000000000000000000000000000000000000000000000000a000000000000000000000000000000000000000000000000000000000000000c00000000000000000000000000000000000000000000000000000000000000007696d61676531300000000000000000000000000000000000000000000000000000000000000000000000000000000000000000000000000000000000000000000000000000000000000000000000000000000000000000000000000000000035697066733a2f2f516d5a72586555756d5868714636427654766f61384379445739444e4a516470547153614b796375764c577867760000000000000000000000",
          "blockHash": "0xb25282e115bcbd9973e5796663aecef40a2d439d69d9cfab596cb105d5bff29a",
          "blockNumber": "0x3c6ab9",
          "transactionHash": "0x893a2e32fde677929654028eee6216b557b51592812982a878b2c573dc77c611",
          "transactionIndex": "0x10",
          "logIndex": "0x12",
          "removed": false
        }
      ],
      "status": "0x1",
      "logsBloom": "0x00000000020000000000000000000000000000000000000000002000000000000000000000000000000000000000000000000000000000000000000000000000000000000000000000000000000000000000000000000000000000000000080000200000020000000000000000100800000000000000080000000000000000000000000000000000000000000000000000000000000000000000000000000000000000000000000000000000000000000000000000000000000000000000000000000000000000000000000000000000000000000000000000000000000020000000000000000000000000000000000000000000000000000000000000000000",
      "type": "0x2",
      "effectiveGasPrice": "0xb2d05e0f"
    },
    {
      "transactionHash": "0x016347aec2a6bde85735e3a18cd3a69c11c2d6b9c6516ded5c27564b8f8c2d10",
      "transactionIndex": "0x11",
      "blockHash": "0xb25282e115bcbd9973e5796663aecef40a2d439d69d9cfab596cb105d5bff29a",
      "blockNumber": "0x3c6ab9",
      "from": "0x8c4c12E63FCd9A9930C7d305Fc87193cF46B5832",
      "to": "0x711a51532e2BE8c2D13F0aa704cfd593D7513304",
      "cumulativeGasUsed": "0x51610f",
      "gasUsed": "0xbec4",
      "contractAddress": null,
      "logs": [
        {
          "address": "0x711a51532e2BE8c2D13F0aa704cfd593D7513304",
          "topics": [
            "0x90a456c57871417b2930ed93a1cd64ff03a49414a743796acdfd7912a869889f"
          ],
          "data": "0x00000000000000000000000000000000000000000000000000000000000000200000000000000000000000000000000000000000000000000000000000000010456c65726d696e672057617272696e6700000000000000000000000000000000",
          "blockHash": "0xb25282e115bcbd9973e5796663aecef40a2d439d69d9cfab596cb105d5bff29a",
          "blockNumber": "0x3c6ab9",
          "transactionHash": "0x016347aec2a6bde85735e3a18cd3a69c11c2d6b9c6516ded5c27564b8f8c2d10",
          "transactionIndex": "0x11",
          "logIndex": "0x13",
          "removed": false
        }
      ],
      "status": "0x1",
      "logsBloom": "0x00004000020000000000000000000000000000000000000000000000000000000000000000000000000000000000000000000000800000000000000000000000000000000000000000000000000000000000000000000000000000000000080000000000000000000000080000100000000000000000000000000000000000000000000000000000000000000000000000000000000000000000000000000000000000000000000000000000000000000000000000000000000000000000000000000000000000000000000000000000000000000000000000000000000000000000000000000000000000000000000000000000000000000000000000000000",
      "type": "0x2",
      "effectiveGasPrice": "0xb2d05e0f"
    },
    {
      "transactionHash": "0xadb9014aaec45ab7823cd27c3f7fbdd36d6c1790b65e2ad6608b65eeca764ccc",
      "transactionIndex": "0x12",
      "blockHash": "0xb25282e115bcbd9973e5796663aecef40a2d439d69d9cfab596cb105d5bff29a",
      "blockNumber": "0x3c6ab9",
      "from": "0x8c4c12E63FCd9A9930C7d305Fc87193cF46B5832",
      "to": "0x711a51532e2BE8c2D13F0aa704cfd593D7513304",
      "cumulativeGasUsed": "0x54cc8e",
      "gasUsed": "0x36b7f",
      "contractAddress": null,
      "logs": [
        {
          "address": "0x711a51532e2BE8c2D13F0aa704cfd593D7513304",
          "topics": [
            "0xddf252ad1be2c89b69c2b068fc378daa952ba7f163c4a11628f55a4df523b3ef",
            "0x0000000000000000000000000000000000000000000000000000000000000000",
            "0x0000000000000000000000008c4c12e63fcd9a9930c7d305fc87193cf46b5832",
            "0x0000000000000000000000000000000000000000000000000000000000000001"
          ],
          "data": "0x",
          "blockHash": "0xb25282e115bcbd9973e5796663aecef40a2d439d69d9cfab596cb105d5bff29a",
          "blockNumber": "0x3c6ab9",
          "transactionHash": "0xadb9014aaec45ab7823cd27c3f7fbdd36d6c1790b65e2ad6608b65eeca764ccc",
          "transactionIndex": "0x12",
          "logIndex": "0x14",
          "removed": false
        },
        {
          "address": "0x711a51532e2BE8c2D13F0aa704cfd593D7513304",
          "topics": [
            "0x845020906442ad0651b44a75d9767153912bfa586416784cf8ead41b37b1dbf5",
            "0xcbc38aba2e88477ada96b396b1ca28d6596eb9fa45ee86910de2bab2d5e5918d"
          ],
          "data": "0x",
          "blockHash": "0xb25282e115bcbd9973e5796663aecef40a2d439d69d9cfab596cb105d5bff29a",
          "blockNumber": "0x3c6ab9",
          "transactionHash": "0xadb9014aaec45ab7823cd27c3f7fbdd36d6c1790b65e2ad6608b65eeca764ccc",
          "transactionIndex": "0x12",
          "logIndex": "0x15",
          "removed": false
        }
      ],
      "status": "0x1",
      "logsBloom": "0x00000000020000000000000000200000000000000000002000000000000000000000000000000000000000000000000000000000000000000000000000040000000000000000000000000008000040004000000000040000000000000000080000000000020000000000000000100800000000000000000400000010000000000000000000000000000000000000000000000000000000000000000000000400000000000000000000000000000000000000000000000000000000000000000000000002000000000000000000000000000000000000000000004000000060000400000000000000000000000002000000000000000000000000000000000000",
      "type": "0x2",
      "effectiveGasPrice": "0xb2d05e0f"
    },
    {
      "transactionHash": "0x5245eed561c843521af95f8af490d037f2696ecb84267ae8a423ca812c8c51cd",
      "transactionIndex": "0x13",
      "blockHash": "0xb25282e115bcbd9973e5796663aecef40a2d439d69d9cfab596cb105d5bff29a",
      "blockNumber": "0x3c6ab9",
      "from": "0x8c4c12E63FCd9A9930C7d305Fc87193cF46B5832",
      "to": "0x711a51532e2BE8c2D13F0aa704cfd593D7513304",
      "cumulativeGasUsed": "0x56e0d3",
      "gasUsed": "0x21445",
      "contractAddress": null,
      "logs": [
        {
          "address": "0x711a51532e2BE8c2D13F0aa704cfd593D7513304",
          "topics": [
            "0xce244affe047c96a0ad176b7e35e054912ccf455964e9b602475cae89a53d6f0",
            "0x0000000000000000000000000000000000000000000000000000000000000001"
          ],
          "data": "0x000000000000000000000000000000000000000000000000000000000000006000000000000000000000000000000000000000000000000000000000000000a000000000000000000000000000000000000000000000000000000000000000c00000000000000000000000000000000000000000000000000000000000000005696d61676500000000000000000000000000000000000000000000000000000000000000000000000000000000000000000000000000000000000000000000000000000000000000000000000000000000000000000000000000000000000035697066733a2f2f516d515a6562534a596e5a7455486d325a7868374768445163686b51654a6773765a4b37755a41674d57613133680000000000000000000000",
          "blockHash": "0xb25282e115bcbd9973e5796663aecef40a2d439d69d9cfab596cb105d5bff29a",
          "blockNumber": "0x3c6ab9",
          "transactionHash": "0x5245eed561c843521af95f8af490d037f2696ecb84267ae8a423ca812c8c51cd",
          "transactionIndex": "0x13",
          "logIndex": "0x16",
          "removed": false
        }
      ],
      "status": "0x1",
      "logsBloom": "0x00000000020000000000000000000000000000000000000000002000000000000000000000000000000000000000000000000000000000000000000000040000000000000000000000000000000000000000000000040000000000000000080000200000000000000000000000100000000000000000080000000000000000000000000000000000000000000000000000000000000000000000000000000000000000000000000000000000000000000000000000000000000000000000000000000000000000000000000000000000000000000000000000000000000040000000000000000000000000000000000000000000000000000000000000000000",
      "type": "0x2",
      "effectiveGasPrice": "0xb2d05e0f"
    },
    {
      "transactionHash": "0x0feb54c1e29884ffdfa8d74d76332e5a765202feb1740aa0522d13dc3e78c8b9",
      "transactionIndex": "0x14",
      "blockHash": "0xb25282e115bcbd9973e5796663aecef40a2d439d69d9cfab596cb105d5bff29a",
      "blockNumber": "0x3c6ab9",
      "from": "0x8c4c12E63FCd9A9930C7d305Fc87193cF46B5832",
      "to": "0x711a51532e2BE8c2D13F0aa704cfd593D7513304",
      "cumulativeGasUsed": "0x59012d",
      "gasUsed": "0x2205a",
      "contractAddress": null,
      "logs": [
        {
          "address": "0x711a51532e2BE8c2D13F0aa704cfd593D7513304",
          "topics": [
            "0xce244affe047c96a0ad176b7e35e054912ccf455964e9b602475cae89a53d6f0",
            "0x0000000000000000000000000000000000000000000000000000000000000001"
          ],
          "data": "0x000000000000000000000000000000000000000000000000000000000000006000000000000000000000000000000000000000000000000000000000000000a000000000000000000000000000000000000000000000000000000000000000c00000000000000000000000000000000000000000000000000000000000000006696d61676530000000000000000000000000000000000000000000000000000000000000000000000000000000000000000000000000000000000000000000000000000000000000000000000000000000000000000000000000000000000035697066733a2f2f516d515a6562534a596e5a7455486d325a7868374768445163686b51654a6773765a4b37755a41674d57613133680000000000000000000000",
          "blockHash": "0xb25282e115bcbd9973e5796663aecef40a2d439d69d9cfab596cb105d5bff29a",
          "blockNumber": "0x3c6ab9",
          "transactionHash": "0x0feb54c1e29884ffdfa8d74d76332e5a765202feb1740aa0522d13dc3e78c8b9",
          "transactionIndex": "0x14",
          "logIndex": "0x17",
          "removed": false
        }
      ],
      "status": "0x1",
      "logsBloom": "0x00000000020000000000000000000000000000000000000000002000000000000000000000000000000000000000000000000000000000000000000000040000000000000000000000000000000000000000000000040000000000000000080000200000000000000000000000100000000000000000080000000000000000000000000000000000000000000000000000000000000000000000000000000000000000000000000000000000000000000000000000000000000000000000000000000000000000000000000000000000000000000000000000000000000040000000000000000000000000000000000000000000000000000000000000000000",
      "type": "0x2",
      "effectiveGasPrice": "0xb2d05e0f"
    },
    {
      "transactionHash": "0x925a60848bfc53e5beb5619966da6739a06e1fe0c88a10268e809098e06bfa84",
      "transactionIndex": "0x15",
      "blockHash": "0xb25282e115bcbd9973e5796663aecef40a2d439d69d9cfab596cb105d5bff29a",
      "blockNumber": "0x3c6ab9",
      "from": "0x8c4c12E63FCd9A9930C7d305Fc87193cF46B5832",
      "to": "0x711a51532e2BE8c2D13F0aa704cfd593D7513304",
      "cumulativeGasUsed": "0x5b2d90",
      "gasUsed": "0x22c63",
      "contractAddress": null,
      "logs": [
        {
          "address": "0x711a51532e2BE8c2D13F0aa704cfd593D7513304",
          "topics": [
            "0xce244affe047c96a0ad176b7e35e054912ccf455964e9b602475cae89a53d6f0",
            "0x0000000000000000000000000000000000000000000000000000000000000001"
          ],
          "data": "0x000000000000000000000000000000000000000000000000000000000000006000000000000000000000000000000000000000000000000000000000000000a000000000000000000000000000000000000000000000000000000000000000c00000000000000000000000000000000000000000000000000000000000000006696d61676531000000000000000000000000000000000000000000000000000000000000000000000000000000000000000000000000000000000000000000000000000000000000000000000000000000000000000000000000000000000035697066733a2f2f516d615862565436666179466637727551694d45647368584b456966316b796f746439794d3439593252776639440000000000000000000000",
          "blockHash": "0xb25282e115bcbd9973e5796663aecef40a2d439d69d9cfab596cb105d5bff29a",
          "blockNumber": "0x3c6ab9",
          "transactionHash": "0x925a60848bfc53e5beb5619966da6739a06e1fe0c88a10268e809098e06bfa84",
          "transactionIndex": "0x15",
          "logIndex": "0x18",
          "removed": false
        }
      ],
      "status": "0x1",
      "logsBloom": "0x00000000020000000000000000000000000000000000000000002000000000000000000000000000000000000000000000000000000000000000000000040000000000000000000000000000000000000000000000040000000000000000080000200000000000000000000000100000000000000000080000000000000000000000000000000000000000000000000000000000000000000000000000000000000000000000000000000000000000000000000000000000000000000000000000000000000000000000000000000000000000000000000000000000000040000000000000000000000000000000000000000000000000000000000000000000",
      "type": "0x2",
      "effectiveGasPrice": "0xb2d05e0f"
    },
    {
      "transactionHash": "0xfae3adf1c376e55d906cedc517f6a3035498b6a76c6db78d6d2fcd28dffdbd6a",
      "transactionIndex": "0x16",
      "blockHash": "0xb25282e115bcbd9973e5796663aecef40a2d439d69d9cfab596cb105d5bff29a",
      "blockNumber": "0x3c6ab9",
      "from": "0x8c4c12E63FCd9A9930C7d305Fc87193cF46B5832",
      "to": "0x711a51532e2BE8c2D13F0aa704cfd593D7513304",
      "cumulativeGasUsed": "0x5d65fc",
      "gasUsed": "0x2386c",
      "contractAddress": null,
      "logs": [
        {
          "address": "0x711a51532e2BE8c2D13F0aa704cfd593D7513304",
          "topics": [
            "0xce244affe047c96a0ad176b7e35e054912ccf455964e9b602475cae89a53d6f0",
            "0x0000000000000000000000000000000000000000000000000000000000000001"
          ],
          "data": "0x000000000000000000000000000000000000000000000000000000000000006000000000000000000000000000000000000000000000000000000000000000a000000000000000000000000000000000000000000000000000000000000000c00000000000000000000000000000000000000000000000000000000000000006696d61676532000000000000000000000000000000000000000000000000000000000000000000000000000000000000000000000000000000000000000000000000000000000000000000000000000000000000000000000000000000000035697066733a2f2f516d576a706a53357279335743616a6a50374b5341554573767a324c776677776a6e4443335a614a6b42585578460000000000000000000000",
          "blockHash": "0xb25282e115bcbd9973e5796663aecef40a2d439d69d9cfab596cb105d5bff29a",
          "blockNumber": "0x3c6ab9",
          "transactionHash": "0xfae3adf1c376e55d906cedc517f6a3035498b6a76c6db78d6d2fcd28dffdbd6a",
          "transactionIndex": "0x16",
          "logIndex": "0x19",
          "removed": false
        }
      ],
      "status": "0x1",
      "logsBloom": "0x00000000020000000000000000000000000000000000000000002000000000000000000000000000000000000000000000000000000000000000000000040000000000000000000000000000000000000000000000040000000000000000080000200000000000000000000000100000000000000000080000000000000000000000000000000000000000000000000000000000000000000000000000000000000000000000000000000000000000000000000000000000000000000000000000000000000000000000000000000000000000000000000000000000000040000000000000000000000000000000000000000000000000000000000000000000",
      "type": "0x2",
      "effectiveGasPrice": "0xb2d05e0f"
    },
    {
      "transactionHash": "0x4e4f8e0379541c2abaf4b699a972ec9621ada89db8f204fac21e3cbe506fbd2f",
      "transactionIndex": "0x17",
      "blockHash": "0xb25282e115bcbd9973e5796663aecef40a2d439d69d9cfab596cb105d5bff29a",
      "blockNumber": "0x3c6ab9",
      "from": "0x8c4c12E63FCd9A9930C7d305Fc87193cF46B5832",
      "to": "0x711a51532e2BE8c2D13F0aa704cfd593D7513304",
      "cumulativeGasUsed": "0x5faa72",
      "gasUsed": "0x24476",
      "contractAddress": null,
      "logs": [
        {
          "address": "0x711a51532e2BE8c2D13F0aa704cfd593D7513304",
          "topics": [
            "0xce244affe047c96a0ad176b7e35e054912ccf455964e9b602475cae89a53d6f0",
            "0x0000000000000000000000000000000000000000000000000000000000000001"
          ],
          "data": "0x000000000000000000000000000000000000000000000000000000000000006000000000000000000000000000000000000000000000000000000000000000a000000000000000000000000000000000000000000000000000000000000000c00000000000000000000000000000000000000000000000000000000000000006696d61676533000000000000000000000000000000000000000000000000000000000000000000000000000000000000000000000000000000000000000000000000000000000000000000000000000000000000000000000000000000000035697066733a2f2f516d5842644743675665345861506e4a6e4355435976594246336d4439584b4d4b565548797752343774417255670000000000000000000000",
          "blockHash": "0xb25282e115bcbd9973e5796663aecef40a2d439d69d9cfab596cb105d5bff29a",
          "blockNumber": "0x3c6ab9",
          "transactionHash": "0x4e4f8e0379541c2abaf4b699a972ec9621ada89db8f204fac21e3cbe506fbd2f",
          "transactionIndex": "0x17",
          "logIndex": "0x1a",
          "removed": false
        }
      ],
      "status": "0x1",
      "logsBloom": "0x00000000020000000000000000000000000000000000000000002000000000000000000000000000000000000000000000000000000000000000000000040000000000000000000000000000000000000000000000040000000000000000080000200000000000000000000000100000000000000000080000000000000000000000000000000000000000000000000000000000000000000000000000000000000000000000000000000000000000000000000000000000000000000000000000000000000000000000000000000000000000000000000000000000000040000000000000000000000000000000000000000000000000000000000000000000",
      "type": "0x2",
      "effectiveGasPrice": "0xb2d05e0f"
    },
    {
      "transactionHash": "0xa219a74cc13ffb9f1abbf7eaaf47ce6cb03c3fb1e3563e64b829967a6888941c",
      "transactionIndex": "0x18",
      "blockHash": "0xb25282e115bcbd9973e5796663aecef40a2d439d69d9cfab596cb105d5bff29a",
      "blockNumber": "0x3c6ab9",
      "from": "0x8c4c12E63FCd9A9930C7d305Fc87193cF46B5832",
      "to": "0x711a51532e2BE8c2D13F0aa704cfd593D7513304",
      "cumulativeGasUsed": "0x61faf4",
      "gasUsed": "0x25082",
      "contractAddress": null,
      "logs": [
        {
          "address": "0x711a51532e2BE8c2D13F0aa704cfd593D7513304",
          "topics": [
            "0xce244affe047c96a0ad176b7e35e054912ccf455964e9b602475cae89a53d6f0",
            "0x0000000000000000000000000000000000000000000000000000000000000001"
          ],
          "data": "0x000000000000000000000000000000000000000000000000000000000000006000000000000000000000000000000000000000000000000000000000000000a000000000000000000000000000000000000000000000000000000000000000c00000000000000000000000000000000000000000000000000000000000000006696d61676534000000000000000000000000000000000000000000000000000000000000000000000000000000000000000000000000000000000000000000000000000000000000000000000000000000000000000000000000000000000035697066733a2f2f516d6258317a5866766741715962395434696b6f52765967793134745258574143707675466977676f4a4a584a420000000000000000000000",
          "blockHash": "0xb25282e115bcbd9973e5796663aecef40a2d439d69d9cfab596cb105d5bff29a",
          "blockNumber": "0x3c6ab9",
          "transactionHash": "0xa219a74cc13ffb9f1abbf7eaaf47ce6cb03c3fb1e3563e64b829967a6888941c",
          "transactionIndex": "0x18",
          "logIndex": "0x1b",
          "removed": false
        }
      ],
      "status": "0x1",
      "logsBloom": "0x00000000020000000000000000000000000000000000000000002000000000000000000000000000000000000000000000000000000000000000000000040000000000000000000000000000000000000000000000040000000000000000080000200000000000000000000000100000000000000000080000000000000000000000000000000000000000000000000000000000000000000000000000000000000000000000000000000000000000000000000000000000000000000000000000000000000000000000000000000000000000000000000000000000000040000000000000000000000000000000000000000000000000000000000000000000",
      "type": "0x2",
      "effectiveGasPrice": "0xb2d05e0f"
    },
    {
      "transactionHash": "0xa56d820603589b610829009014f181a6b48684c1a1bf96394e949395118b4c99",
      "transactionIndex": "0x19",
      "blockHash": "0xb25282e115bcbd9973e5796663aecef40a2d439d69d9cfab596cb105d5bff29a",
      "blockNumber": "0x3c6ab9",
      "from": "0x8c4c12E63FCd9A9930C7d305Fc87193cF46B5832",
      "to": "0x711a51532e2BE8c2D13F0aa704cfd593D7513304",
      "cumulativeGasUsed": "0x64577f",
      "gasUsed": "0x25c8b",
      "contractAddress": null,
      "logs": [
        {
          "address": "0x711a51532e2BE8c2D13F0aa704cfd593D7513304",
          "topics": [
            "0xce244affe047c96a0ad176b7e35e054912ccf455964e9b602475cae89a53d6f0",
            "0x0000000000000000000000000000000000000000000000000000000000000001"
          ],
          "data": "0x000000000000000000000000000000000000000000000000000000000000006000000000000000000000000000000000000000000000000000000000000000a000000000000000000000000000000000000000000000000000000000000000c00000000000000000000000000000000000000000000000000000000000000006696d61676535000000000000000000000000000000000000000000000000000000000000000000000000000000000000000000000000000000000000000000000000000000000000000000000000000000000000000000000000000000000035697066733a2f2f516d5238345176744d76686d38616d6d664c663663763468476b357268584b436548566a4e3539744c464c627a510000000000000000000000",
          "blockHash": "0xb25282e115bcbd9973e5796663aecef40a2d439d69d9cfab596cb105d5bff29a",
          "blockNumber": "0x3c6ab9",
          "transactionHash": "0xa56d820603589b610829009014f181a6b48684c1a1bf96394e949395118b4c99",
          "transactionIndex": "0x19",
          "logIndex": "0x1c",
          "removed": false
        }
      ],
      "status": "0x1",
      "logsBloom": "0x00000000020000000000000000000000000000000000000000002000000000000000000000000000000000000000000000000000000000000000000000040000000000000000000000000000000000000000000000040000000000000000080000200000000000000000000000100000000000000000080000000000000000000000000000000000000000000000000000000000000000000000000000000000000000000000000000000000000000000000000000000000000000000000000000000000000000000000000000000000000000000000000000000000000040000000000000000000000000000000000000000000000000000000000000000000",
      "type": "0x2",
      "effectiveGasPrice": "0xb2d05e0f"
    },
    {
      "transactionHash": "0x781d33af79f954b89581d7d7bd598bfba7b87fbdf1eefaac6b3cd1a426f6fd3c",
      "transactionIndex": "0x1a",
      "blockHash": "0xb25282e115bcbd9973e5796663aecef40a2d439d69d9cfab596cb105d5bff29a",
      "blockNumber": "0x3c6ab9",
      "from": "0x8c4c12E63FCd9A9930C7d305Fc87193cF46B5832",
      "to": "0x711a51532e2BE8c2D13F0aa704cfd593D7513304",
      "cumulativeGasUsed": "0x66c013",
      "gasUsed": "0x26894",
      "contractAddress": null,
      "logs": [
        {
          "address": "0x711a51532e2BE8c2D13F0aa704cfd593D7513304",
          "topics": [
            "0xce244affe047c96a0ad176b7e35e054912ccf455964e9b602475cae89a53d6f0",
            "0x0000000000000000000000000000000000000000000000000000000000000001"
          ],
          "data": "0x000000000000000000000000000000000000000000000000000000000000006000000000000000000000000000000000000000000000000000000000000000a000000000000000000000000000000000000000000000000000000000000000c00000000000000000000000000000000000000000000000000000000000000006696d61676536000000000000000000000000000000000000000000000000000000000000000000000000000000000000000000000000000000000000000000000000000000000000000000000000000000000000000000000000000000000035697066733a2f2f516d55656353515968704d53396e41734e5563475244444a396e5846443342654347586b6b56717256374736466a0000000000000000000000",
          "blockHash": "0xb25282e115bcbd9973e5796663aecef40a2d439d69d9cfab596cb105d5bff29a",
          "blockNumber": "0x3c6ab9",
          "transactionHash": "0x781d33af79f954b89581d7d7bd598bfba7b87fbdf1eefaac6b3cd1a426f6fd3c",
          "transactionIndex": "0x1a",
          "logIndex": "0x1d",
          "removed": false
        }
      ],
      "status": "0x1",
      "logsBloom": "0x00000000020000000000000000000000000000000000000000002000000000000000000000000000000000000000000000000000000000000000000000040000000000000000000000000000000000000000000000040000000000000000080000200000000000000000000000100000000000000000080000000000000000000000000000000000000000000000000000000000000000000000000000000000000000000000000000000000000000000000000000000000000000000000000000000000000000000000000000000000000000000000000000000000000040000000000000000000000000000000000000000000000000000000000000000000",
      "type": "0x2",
      "effectiveGasPrice": "0xb2d05e0f"
    },
    {
      "transactionHash": "0x40e4c422f1d325c45c50ef911e429c7a496b54efe575733bc7b102b88cd32aa4",
      "transactionIndex": "0x1b",
      "blockHash": "0xb25282e115bcbd9973e5796663aecef40a2d439d69d9cfab596cb105d5bff29a",
      "blockNumber": "0x3c6ab9",
      "from": "0x8c4c12E63FCd9A9930C7d305Fc87193cF46B5832",
      "to": "0x711a51532e2BE8c2D13F0aa704cfd593D7513304",
      "cumulativeGasUsed": "0x6934b0",
      "gasUsed": "0x2749d",
      "contractAddress": null,
      "logs": [
        {
          "address": "0x711a51532e2BE8c2D13F0aa704cfd593D7513304",
          "topics": [
            "0xce244affe047c96a0ad176b7e35e054912ccf455964e9b602475cae89a53d6f0",
            "0x0000000000000000000000000000000000000000000000000000000000000001"
          ],
          "data": "0x000000000000000000000000000000000000000000000000000000000000006000000000000000000000000000000000000000000000000000000000000000a000000000000000000000000000000000000000000000000000000000000000c00000000000000000000000000000000000000000000000000000000000000006696d61676537000000000000000000000000000000000000000000000000000000000000000000000000000000000000000000000000000000000000000000000000000000000000000000000000000000000000000000000000000000000035697066733a2f2f516d624432755571584864634275656d545533454a54703737586a576755653531345076797943737669487757630000000000000000000000",
          "blockHash": "0xb25282e115bcbd9973e5796663aecef40a2d439d69d9cfab596cb105d5bff29a",
          "blockNumber": "0x3c6ab9",
          "transactionHash": "0x40e4c422f1d325c45c50ef911e429c7a496b54efe575733bc7b102b88cd32aa4",
          "transactionIndex": "0x1b",
          "logIndex": "0x1e",
          "removed": false
        }
      ],
      "status": "0x1",
      "logsBloom": "0x00000000020000000000000000000000000000000000000000002000000000000000000000000000000000000000000000000000000000000000000000040000000000000000000000000000000000000000000000040000000000000000080000200000000000000000000000100000000000000000080000000000000000000000000000000000000000000000000000000000000000000000000000000000000000000000000000000000000000000000000000000000000000000000000000000000000000000000000000000000000000000000000000000000000040000000000000000000000000000000000000000000000000000000000000000000",
      "type": "0x2",
      "effectiveGasPrice": "0xb2d05e0f"
    },
    {
      "transactionHash": "0x6bdfe4565d24a9faaf326f376e107aef983196ea3616e32e46d4f7022b4d9f44",
      "transactionIndex": "0x1c",
      "blockHash": "0xb25282e115bcbd9973e5796663aecef40a2d439d69d9cfab596cb105d5bff29a",
      "blockNumber": "0x3c6ab9",
      "from": "0x8c4c12E63FCd9A9930C7d305Fc87193cF46B5832",
      "to": null,
      "cumulativeGasUsed": "0x870078",
      "gasUsed": "0x1dcbc8",
      "contractAddress": "0x0e7FbB177CC3366c2F9e60cBfE49C0bc083b80F2",
      "logs": [
        {
          "address": "0x0e7FbB177CC3366c2F9e60cBfE49C0bc083b80F2",
          "topics": [
            "0xddf252ad1be2c89b69c2b068fc378daa952ba7f163c4a11628f55a4df523b3ef",
            "0x0000000000000000000000000000000000000000000000000000000000000000",
            "0x0000000000000000000000008c4c12e63fcd9a9930c7d305fc87193cf46b5832"
          ],
          "data": "0x00000000000000000000000000000000000000000000000000000000000f4240",
          "blockHash": "0xb25282e115bcbd9973e5796663aecef40a2d439d69d9cfab596cb105d5bff29a",
          "blockNumber": "0x3c6ab9",
          "transactionHash": "0x6bdfe4565d24a9faaf326f376e107aef983196ea3616e32e46d4f7022b4d9f44",
          "transactionIndex": "0x1c",
          "logIndex": "0x1f",
          "removed": false
        }
      ],
      "status": "0x1",
      "logsBloom": "0x00000000000004000000000000000000000000000000000000000000000000000000000000000000000000000000000000000000000000000000000000000000000000000000000000000008000040004000000000000000000000000000000000000000020000000000000000000800000000000000000000000010800000000000000000000000000000000100000000000000000000000000000000000000000000000000000000000000000000000000000000000000000000000000000000000002000000000000000000000000000000000000000000000000000020000000000000000000000000000002000000000000000000000000000000000000",
      "type": "0x2",
      "effectiveGasPrice": "0xb2d05e0f"
    },
    {
      "transactionHash": "0x0b407654ceddb222e0b645f3f7186ca1e45e6710f0c4669a0658834c3310aeff",
      "transactionIndex": "0x1d",
      "blockHash": "0xb25282e115bcbd9973e5796663aecef40a2d439d69d9cfab596cb105d5bff29a",
      "blockNumber": "0x3c6ab9",
      "from": "0x8c4c12E63FCd9A9930C7d305Fc87193cF46B5832",
      "to": null,
      "cumulativeGasUsed": "0xbf5827",
      "gasUsed": "0x3857af",
      "contractAddress": "0x3688adE0cF7C028D42FEa40F272fe793c5D6307b",
      "logs": [
        {
          "address": "0x3688adE0cF7C028D42FEa40F272fe793c5D6307b",
          "topics": [
            "0xc565b045403dc03c2eea82b81a0465edad9e2e7fc4d97e11421c209da93d7a93"
          ],
          "data": "0x0000000000000000000000000000000000000000000000000000000000000000000000000000000000000000000000000000000000000000000000000000012c",
          "blockHash": "0xb25282e115bcbd9973e5796663aecef40a2d439d69d9cfab596cb105d5bff29a",
          "blockNumber": "0x3c6ab9",
          "transactionHash": "0x0b407654ceddb222e0b645f3f7186ca1e45e6710f0c4669a0658834c3310aeff",
          "transactionIndex": "0x1d",
          "logIndex": "0x20",
          "removed": false
        },
        {
          "address": "0x3688adE0cF7C028D42FEa40F272fe793c5D6307b",
          "topics": [
            "0x7e3f7f0708a84de9203036abaa450dccc85ad5ff52f78c170f3edb55cf5e8828"
          ],
          "data": "0x00000000000000000000000000000000000000000000000000000000000000000000000000000000000000000000000000000000000000000000000000003840",
          "blockHash": "0xb25282e115bcbd9973e5796663aecef40a2d439d69d9cfab596cb105d5bff29a",
          "blockNumber": "0x3c6ab9",
          "transactionHash": "0x0b407654ceddb222e0b645f3f7186ca1e45e6710f0c4669a0658834c3310aeff",
          "transactionIndex": "0x1d",
          "logIndex": "0x21",
          "removed": false
        },
        {
          "address": "0x3688adE0cF7C028D42FEa40F272fe793c5D6307b",
          "topics": [
            "0xccb45da8d5717e6c4544694297c4ba5cf151d455c9bb0ed4fc7a38411bc05461"
          ],
          "data": "0x00000000000000000000000000000000000000000000000000000000000000000000000000000000000000000000000000000000000000000000000000002710",
          "blockHash": "0xb25282e115bcbd9973e5796663aecef40a2d439d69d9cfab596cb105d5bff29a",
          "blockNumber": "0x3c6ab9",
          "transactionHash": "0x0b407654ceddb222e0b645f3f7186ca1e45e6710f0c4669a0658834c3310aeff",
          "transactionIndex": "0x1d",
          "logIndex": "0x22",
          "removed": false
        },
        {
          "address": "0x3688adE0cF7C028D42FEa40F272fe793c5D6307b",
          "topics": [
            "0x0553476bf02ef2726e8ce5ced78d63e26e602e4a2257b1f559418e24b4633997"
          ],
          "data": "0x00000000000000000000000000000000000000000000000000000000000000000000000000000000000000000000000000000000000000000000000000000033",
          "blockHash": "0xb25282e115bcbd9973e5796663aecef40a2d439d69d9cfab596cb105d5bff29a",
          "blockNumber": "0x3c6ab9",
          "transactionHash": "0x0b407654ceddb222e0b645f3f7186ca1e45e6710f0c4669a0658834c3310aeff",
          "transactionIndex": "0x1d",
          "logIndex": "0x23",
          "removed": false
        }
      ],
      "status": "0x1",
      "logsBloom": "0x00000000000000000100000000001000000000000000000004000000000008000000000000000000000000000010000000000000000000000000000000040000000000000000000000000000000000000000000000000000000010000000000000000000000000080002000000000000000000000000000000000000000000001000000000000000000000000000000000000000000000000000000000000002000000000000000000000000000000000000000000000000000000002000000000000000000000000000000000100000000000000000000000080000800000000000000000000000000000000000000000000000000000000000000000000000",
      "type": "0x2",
      "effectiveGasPrice": "0xb2d05e0f"
    },
    {
      "transactionHash": "0xf09fe077f07afe420ea56931953db110df2d9a326c0368c674746df2bed39a07",
      "transactionIndex": "0x1e",
      "blockHash": "0xb25282e115bcbd9973e5796663aecef40a2d439d69d9cfab596cb105d5bff29a",
      "blockNumber": "0x3c6ab9",
      "from": "0x8c4c12E63FCd9A9930C7d305Fc87193cF46B5832",
      "to": null,
      "cumulativeGasUsed": "0xcb2c4a",
      "gasUsed": "0xbd423",
      "contractAddress": "0xc19A9750F408fe2C5A6389de523643f81ac6336C",
      "logs": [
        {
          "address": "0xc19A9750F408fe2C5A6389de523643f81ac6336C",
          "topics": [
            "0x8be0079c531659141344cd1fd0a4f28419497f9722a3daafe3b4186f6b6457e0",
            "0x0000000000000000000000000000000000000000000000000000000000000000",
            "0x0000000000000000000000008c4c12e63fcd9a9930c7d305fc87193cf46b5832"
          ],
          "data": "0x",
          "blockHash": "0xb25282e115bcbd9973e5796663aecef40a2d439d69d9cfab596cb105d5bff29a",
          "blockNumber": "0x3c6ab9",
          "transactionHash": "0xf09fe077f07afe420ea56931953db110df2d9a326c0368c674746df2bed39a07",
          "transactionIndex": "0x1e",
          "logIndex": "0x24",
          "removed": false
        }
      ],
      "status": "0x1",
      "logsBloom": "0x00000000000000000000000000000000000000000000000000800000000000000000000000000000000000000000000000000000000000000000000000000000000001000000000000000000000040004001000000000000000200000000000000000000020000000000000000000800000000000000000000000000000000400000000002000000000000000000000000000000000000000000000000000000000000000000000000000000000000000000000000000000000000000000000000000000000000000000000000000000000000000000000000000000000020000000000000000000000000000002000000000000000000000000000000000000",
      "type": "0x2",
      "effectiveGasPrice": "0xb2d05e0f"
    },
    {
      "transactionHash": "0x56e22a79711e2f6a349327477b42839748ade6df933b928156d271d5c17f34eb",
      "transactionIndex": "0x1f",
      "blockHash": "0xb25282e115bcbd9973e5796663aecef40a2d439d69d9cfab596cb105d5bff29a",
      "blockNumber": "0x3c6ab9",
      "from": "0x8c4c12E63FCd9A9930C7d305Fc87193cF46B5832",
      "to": "0x711a51532e2BE8c2D13F0aa704cfd593D7513304",
      "cumulativeGasUsed": "0xcbe104",
      "gasUsed": "0xb4ba",
      "contractAddress": null,
      "logs": [
        {
          "address": "0x711a51532e2BE8c2D13F0aa704cfd593D7513304",
          "topics": [
            "0x17307eab39ab6107e8899845ad3d59bd9653f200f220920489ca2b5937696c31",
            "0x0000000000000000000000008c4c12e63fcd9a9930c7d305fc87193cf46b5832",
            "0x000000000000000000000000c19a9750f408fe2c5a6389de523643f81ac6336c"
          ],
          "data": "0x0000000000000000000000000000000000000000000000000000000000000001",
          "blockHash": "0xb25282e115bcbd9973e5796663aecef40a2d439d69d9cfab596cb105d5bff29a",
          "blockNumber": "0x3c6ab9",
          "transactionHash": "0x56e22a79711e2f6a349327477b42839748ade6df933b928156d271d5c17f34eb",
          "transactionIndex": "0x1f",
          "logIndex": "0x25",
          "removed": false
        }
      ],
      "status": "0x1",
      "logsBloom": "0x00000000020000000000000004000000000000000000000000000000000000000000000000000000000000000000000000000000000000000000000000000000000000000000000000000000000040004000000000000000000000000000080002000000000000000000000000100000000000000000000000000000000000000000000000000000000000000000000000000000000000000000000000000000000000000000000000000000000000000000000000000000020000000000000000000000000000000000800000000000000000000000000000000000000000000000200800000000000000000002000000000000000000000000000000000000",
      "type": "0x2",
      "effectiveGasPrice": "0xb2d05e0f"
    }
  ],
  "libraries": [],
  "pending": [],
  "returns": {},
  "timestamp": 1690258062,
  "chain": 11155111,
  "multi": false,
  "commit": "d6a34a1"
}